:020000040800F2
:100000004807002031020008CD0700081B07000840
:10001000C9070008E9040008A70D00080000000057
:100020000000000000000000000000008909000836
:10003000ED040008000000005D080008E10A000867
:100040004B0200084B0200084B0200084B0200085C
:100050004B0200084B020008F10400084B020008A4
:100060004B0200084B0200084B0200084B0200083C
:100070004B0200084B0200084B0200084B0200082C
:100080004B0200084B0200084B0200084B0200081C
:100090004B0200084B0200084B0200084B0200080C
:1000A0004B0200084B0200084B0200084B020008FC
:1000B0004B0200084B0200084B0200084B020008EC
:1000C0004B0200084B0200084B0200084B020008DC
:1000D0004B020008890B00084B0200084B02000885
:1000E0004B0200084B0200084B0200084B020008BC
:1000F0004B0200084B0200084B0200084B020008AC
:100100004B0200084B0200084B0200084B0200089B
:100110004B0200084B0200084B0200084B0200088B
:100120004B0200084B0200084B0200084B0200087B
:100130004B0200084B0200084B0200084B0200086B
:100140004B0200084B0200084B0200084B0200085B
:100150004B0200084B0200084B0200084B0200084B
:100160004B0200084B0200084B0200084B0200083B
:100170004B0200084B0200084B0200084B0200082B
:100180004B0200084B02000800F002F800F041F8B2
:100190000AA090E8000C82448344AAF10107DA45E2
:1001A00001D100F036F8AFF2090EBAE80F0013F0F3
:1001B000010F18BFFB1A43F001031847B40D0000EC
:1001C000D40D0000103A24BF78C878C1FAD852077D
:1001D00024BF30C830C144BF04680C6070470000C1
:1001E0000023002400250026103A28BF78C1FBD840
:1001F000520728BF30C148BF0B607047642900F028
:100200007980002070471FB500F0ACFE1FBD10B50F
:1002100010BD00F037F91146FFF7F5FF00F06EFE54
:1002200000F055F903B4FFF7F2FF03BC00F014FE31
:100230000948804709480047FEE7FEE7FEE7FEE77A
:10024000FEE7FEE7FEE7FEE7FEE7FEE704480549B6
:10025000054A064B70470000E50A000889010008BE
:1002600048010020480700204803002048030020E0
:10027000704700000FB4044910B503AA029800F0BB
:10028000D3F810BC5DF814FB180000202DE9F041F4
:100290000E460446002020622046E168884730B3BD
:1002A000252805D0D4E901219047206A401CF2E7B7
:1002B000E168204600278847050018D0A5F14100D5
:1002C000192802D820354FF40067324629462046C7
:1002D0002760FFF793FF40B1012804D0F61D26F0F8
:1002E00007060836D8E7361DD6E72846DAE7206A3B
:1002F000BDE8F0812DE9F04106460024106875291B
:10030000314616A510D0AFF30080002802DA404233
:1003100013A507E031688A0701D512A502E0490755
:1003200004D511A5012401E0AFF3008000210A22C9
:1003300006F1240709E0B0FBF2FCB0FBF2F302FB8C
:100340001C00303078541846491C0028F3D123464D
:100350002A463046BDE8F04100F00CB8000000002D
:100360002D0000002B0000002000000070477047A7
:10037000704770472DE9F0470D469946924604466E
:1003800000F124080168880604D5E06921F0100115
:10039000216000E00120A84201DD471B00E00027AA
:1003A000A1697A1902EB0900081AA0612078C00639
:1003B00002D42046AFF30080002608E0D4E90121F2
:1003C0001AF806009047206A401C761C20624E45B1
:1003D000F4DB2078C0060AD52046AFF3008006E0A3
:1003E000D4E9012130209047206A401C2062381E49
:1003F000A7F10107F4DC07E0D4E9012118F80500B2
:100400009047206A401C2062281EA5F10105F3DCFC
:100410002046AFF300802078000602D50220BDE818
:10042000F0870120FBE70000074B70B50D467B44C9
:1004300000F011F80446284600F020F810B14FF003
:10044000FF3070BD204670BDAF0A000001694A1C34
:1004500002610878704700B58FB0CDE90131002105
:10046000059105497944CDE9031011466846FFF727
:100470000DFF0FB000BD0000E5FFFFFF007B00F0A7
:1004800080007047754600F02BF8AE4605006946BF
:10049000534620F00700854618B020B5FFF7D6FE7A
:1004A000BDE820404FF000064FF000074FF0000875
:1004B0004FF0000B21F00701AC46ACE8C009ACE8F6
:1004C000C009ACE8C009ACE8C0098D46704710B55A
:1004D0000446AFF300802046BDE81040FFF7A2BEFF
:1004E00000487047E400002000BFFEE770470000AE
:1004F00010B50A2000F0B2FC06480068012804D1BB
:1005000000F016F904A0FFF7B5FE012000F00AF88C
:1005100010BD0000000240426665656420646F679C
:100520000D0A00000149086070470000143C0140BA
:10053000002123498279002A3AD00A4612680368CA
:100540009A430B461A600A1D126803689A430B1DF2
:100550001A60027911440A6803681A430A60184A4B
:100560000832126803689A43154B08331A601A1D43
:10057000126803689A43124B0C331A604279102AAE
:100580000ED11A1F126803681A430D4B08331A6004
:100590001A1D126803681A43094B0C331A600DE0E8
:1005A0000749427911440A6803681A430A6005E062
:1005B000027911440A6803689A430A607047000090
:1005C000003C014000B585B00121084600F048F923
:1005D0000121880300F054F90120039000208DF8D8
:1005E000100003208DF8110002208DF8130003A9DC
:1005F000124800F025F80021084600F0C7F9012054
:10060000009000208DF8040008208DF805000120DE
:100610008DF806006846FFF78BFF06208DF808006E
:1006200000208DF8090002208DF80A0001208DF8C5
:100630000B0002A800F0CCF805B000BD000002409D
:10064000F0B50A4600210023002400BF3DE001254B
:1006500005FA01F3156805EA03049C4234D10568E4
:100660004F000326BE40B543056015794E00B540E6
:100670000668354305601579012D02D01579022DE4
:1006800016D185684F000326BE40B5438560557975
:100690004E00B540866835438560456801268E402A
:1006A000B5434560456896798E40B6B2354345609E
:1006B000C5684F000326BE40B543C560D5794E00DE
:1006C000B540C6683543C560491C1029BFD3F0BD8D
:1006D000F0B5002300244D07ED0E02FA05F3CE100D
:1006E00000F1200555F826504E07F70E0F26BE40A4
:1006F000B543CF1000F1200646F82750CE1000F188
:10070000200555F8265045EA0304CE1000F12005D7
:1007100045F82640F0BD0183704700BFFEE70000AA
:100720004CF6CC40014908607047000000300040A2
:100730004AF6AA20014908607047000000300040D6
:10074000014948607047000000300040014988605E
:100750007047000000300040014908607047000009
:100760000030004070B505460C4645F25550FFF785
:10077000F3FF2846FFF7E4FF2046FFF7E7FFFFF708
:10078000D7FFFFF7CDFF70BD1CB50121202000F081
:1007900067F84FF4C060009001208DF8040000203D
:1007A0008DF8060003208DF8050001208DF8070064
:1007B00069460448FFF744FF4FF4C0610148FFF762
:1007C000AAFF1CBD0014024000BFFEE770470000F6
:1007D00070B5002100230F22C4781CB3174C246885
:1007E00004F4E064C4F5E064C4F30721C1F1040437
:1007F000E3B20A4144789C40E1B28478144021433A
:100800000C07210E0E4C05786155047804F01F0585
:100810000124AC4005786D11AD0005F1E025C5F867
:10082000004109E0047804F01F050124AC40054DA7
:100830000678761145F8264070BD00000CED00E00A
:1008400000E400E080E100E002490143024A116057
:10085000704700000000FA050CED00E07047000052
:1008600029B1064A12680243044B1A6004E0034AA5
:1008700012688243014B1A60704700003038024012
:1008800029B1064A12680243044B1A6004E0034A85
:1008900012688243014B1A607047000044380240DE
:1008A000F0B5002100220024022500260223324F49
:1008B0003F6807F00C0121B1042905D0082937D180
:1008C00005E02E4F076036E02D4F076033E02A4FDA
:1008D0003F1F3F68C7F38056274F3F1F3F6807F011
:1008E0003F036EB1264FB7FBF3F7DFF88CC0ACF1D6
:1008F000040CDCF800C0CCF3881C07FB0CF40CE003
:100900001E4FB7FBF3F7DFF870C0ACF1040CDCF856
:1009100000C0CCF3881C07FB0CF4174F3F1F3F6847
:10092000C7F301477F1C7D00B4FBF5F7076002E0C9
:10093000124F076000BF00BF0F4F3F6807F0F00184
:100940000909104F7A5C0768D74047600A4F3F6833
:1009500007F4E051890A0B4F7A5C4768D7408760FB
:10096000054F3F6807F46041490B064F7A5C4768C2
:10097000D740C760F0BD0000083802400024F400F2
:1009800000127A00000000207047000030B50022FD
:100990008B071C0F0F2303FA04F20B4B8C1053F838
:1009A00024309343084C8D1044F8253023468C1096
:1009B00053F824308C07240F00FA04F42343024C2C
:1009C0008D1044F8253030BD083801400CB50020AA
:1009D000019000903448006840F48030324908604B
:1009E00000BF3148006800F4003000900198401CBE
:1009F0000190009818B90198B0F5A04FF1D12A489C
:100A0000006800F4003010B10120009001E00020E7
:100A100000900098012846D123484030006840F0FB
:100A200080502149403108602048006840F440402F
:100A30001E4908601C48083000681B4908310860DE
:100A40000846006840F4004008600846006840F42A
:100A5000A05008601648091F0860081F006840F091
:100A60008070091F086000BF0F48006800F0007028
:100A70000028F9D040F205700E4908600A48083095
:100A8000006820F003000849083108600846006843
:100A900040F00200086000BF03480830006800F022
:100AA0000C000828F8D10CBD00380240007000404E
:100AB00008544007003C0240042808D14FF0E021D0
:100AC000096941F004014FF0E022116107E04FF0A5
:100AD000E021096921F004014FF0E0221161704723
:100AE0007047000010B51548006840F470001349C5
:100AF00008601348006840F00100114908600020B8
:100B00000F49083108600E4800680E4908400C493A
:100B100008600D48091D0860081F006820F4802047
:100B2000091F0860002006490C310860FFF74EFFDE
:100B30004FF0006001498039086010BD88ED00E089
:100B400000380240FFFFF6FE1030002410B50446C6
:100B50006FF00400FFF7B0FFE11704EB5171C1F330
:100B6000C701074A11701046007800EB4001C1EB45
:100B7000C0104FF6FF7101EAC0000249088010BDA5
:100B8000100000201200002010B540F225511D4831
:100B900000F04AF810B31B4800F000F9C4B21A483C
:100BA000008800F40040C8B91748008800F480406D
:100BB00060B10A2C03D000201349088020E01248BD
:100BC000008840F400401049088019E00D2C06D13F
:100BD0000D48008840F480400B49088010E00A4826
:100BE0000088C0F30D0009490C5407480088401CD8
:100BF0000549088008460088C72801DD00200880D4
:100C000010BD000000100140140000201C00002056
:100C100021B1828942F40052828104E082894DF63A
:100C2000FF731A408281704770B50246002400238A
:100C30000025002040F66A16B14200D100BFC1F382
:100C4000421501F01F03012606FA03F3012D02D11C
:100C50009689334006E0022D02D1168A334001E026
:100C6000968A33400C12012606FA04F416883440A2
:100C700013B10CB1012000E0002070BDF0B50346B7
:100C8000002400260025002040F66A17B94200D152
:100C900000BF1846C1F3421401F01F06012707FAEE
:100CA00006F5012C01D10C3004E0022C01D11030EA
:100CB00000E014301AB107682F43076002E00768AC
:100CC000AF430760F0BD00002DE9FF4705460E4623
:100CD0000024A14600BFA046B08900B100BF2C8A05
:100CE00024F44054F08804432C82AC8941F20C6017
:100CF0008443B08831890843718908430443AC8137
:100D0000AC8A24F44074B0890443AC826846FFF78F
:100D1000C7FD2048854202D01F48854202D1DDF838
:100D20000C9001E0DDF80890A88900F4004040B183
:100D300009EBC90000EB091031684900B0FBF1F77D
:100D400007E009EBC90000EB091031688900B0FB2E
:100D5000F1F76420B7FBF0F004012009642101FBE6
:100D60001078A88900F4004040B1322000EBC800A0
:100D7000B0FBF1F000F00700044308E0322000EB84
:100D800008106421B0FBF1F000F00F0004432C8147
:100D9000BDE8FF870010014000140140014688882B
:100DA000C0F30800704700BFFEE7000010B588B030
:100DB000044601210846FFF753FD01211020FFF7EB
:100DC0005FFD4FF4C060069002208DF81C008DF886
:100DD0001D0000208DF81E0001208DF81F0006A9BF
:100DE0001B48FFF72DFC072209211948FFF770FC6B
:100DF00007220A211648FFF76BFC02940020ADF889
:100E00000C00ADF80E00ADF81000ADF814000C2089
:100E1000ADF8120002A90F48FFF756FF01210D4857
:100E2000FFF7F6FE25208DF8040003208DF805005D
:100E30008DF8060001208DF8070001A8FFF7C8FC17
:100E4000012240F225510348FFF718FF08B010BDFA
:100E5000000002400010014000BF704770B504461A
:100E60004FF4077094FBF0F0C6B24FF4077094FB98
:100E7000F0F100FB114085B205E04FF4077000F07F
:100E800009F8701EC6B2002EF7D115B1284600F041
:100E900001F870BD0146114A12884A434FF0E02321
:100EA0005A6100229A611A46126942F001021A61DF
:100EB00000BF4FF0E022106900F001021AB100F407
:100EC0008032002AF5D04FF0E022126922F00102B0
:100ED0004FF0E0231A6100229A617047120000204F
:100EE00000BF054A128802F04002002AF9D0C2B2BF
:100EF000014B9A80704700000010014000244FF41D
:100F0000A060FFF7A1FCA820FFF720FE4FF4E1301E
:100F1000FFF74CFFFFF738FCFFF754FB4FF4FA7173
:100F20000420FFF71FFC6420FFF798FF002006490C
:100F3000086008E02146621CD4B204A0FFF79AF9C9
:100F40006420FFF78BFFF5E7A482424272756E6E54
:100F5000696E672074696D65206973202564200DB2
:100F60000A0000004FF04070E1EE100A70470000E8
:100F7000900F0008000000201C000000C4010008C1
:100F8000AC0F00081C0000202C070000E001000846
:100F9000000000000102030401020304060708091F
:0C0FA00000000000000000000000000045
:040000050800018965
:00000001FF
