:020000040800F2
:10000000480700202902000801040008B90300087D
:10001000FD030008D9020008BB0900080000000029
:10002000000000000000000000000000DD050008E6
:10003000DD0200080000000091040008F506000839
:10004000950A000843020008430200084302000822
:10005000430200084302000843020008430200086C
:10006000430200084302000843020008430200085C
:10007000430200084302000843020008430200084C
:10008000430200084302000843020008430200083C
:10009000430200084302000843020008430200082C
:1000A000430200084302000843020008430200081C
:1000B000430200084302000843020008430200080C
:1000C00043020008430200084302000843020008FC
:1000D000430200089D07000843020008430200088D
:1000E00043020008430200084302000843020008DC
:1000F00043020008430200084302000843020008CC
:1001000043020008430200084302000843020008BB
:1001100043020008430200084302000843020008AB
:10012000430200084302000843020008430200089B
:10013000430200084302000843020008430200088B
:10014000430200084302000843020008430200087B
:10015000430200084302000843020008430200086B
:10016000430200084302000843020008430200085B
:10017000430200084302000843020008430200084B
:10018000430200084302000800F002F800F03CF8C7
:100190000AA090E8000C82448344AAF10107DA45E2
:1001A00001D100F031F8AFF2090EBAE80F0013F0F8
:1001B000010F18BFFB1A43F001031847680A00003B
:1001C000880A0000103A24BF78C878C1FAD85207CC
:1001D00024BF30C830C144BF04680C6070470000C1
:1001E0000023002400250026103A28BF78C1FBD840
:1001F000520728BF30C148BF0B6070471FB500F0E1
:100200000BFD1FBD10B510BD00F033F81146FFF710
:10021000F5FF00F0E1FC00F051F803B4FFF7F2FF46
:1002200003BC00F095FC00000948804709480047DE
:10023000FEE7FEE7FEE7FEE7FEE7FEE7FEE7FEE796
:10024000FEE7FEE704480549054A064B70470000F3
:10025000F90600088901000848010020480700202D
:1002600048030020480300207047704770477047DC
:100270007047754600F02CF8AE46050069465346B7
:1002800020F00700854618B020B5FFF7DBFFBDE87A
:1002900020404FF000064FF000074FF000084FF0ED
:1002A000000B21F00701AC46ACE8C009ACE8C0097E
:1002B000ACE8C009ACE8C0098D46704710B50446EB
:1002C000AFF300802046BDE81040FFF7A6BF000056
:1002D00000487047E400002000BFFEE77047F0B51B
:1002E0000A4600210023002400BF3DE0012505FA55
:1002F00001F3156805EA03049C4234D105684F00F8
:100300000326BE40B543056015794E00B54006682A
:10031000354305601579012D02D01579022D16D1CE
:1003200085684F000326BE40B543856055794E0071
:10033000B540866835438560456801268E40B543E3
:100340004560456896798E40B6B235434560C568CC
:100350004F000326BE40B543C560D5794E00B54079
:10036000C6683543C560491C1029BFD3F0BDF0B540
:10037000002300244D07ED0E02FA05F3CE1000F124
:10038000200555F826504E07F70E0F26BE40B54300
:10039000CF1000F1200646F82750CE1000F12005BE
:1003A00055F8265045EA0304CE1000F1200545F823
:1003B0002640F0BD0183704700BFFEE71CB5012158
:1003C000202000F067F84FF4C060009001208DF805
:1003D000040000208DF8060003208DF805000120A0
:1003E0008DF8070069460448FFF779FF4FF4C061B4
:1003F0000148FFF7DFFF1CBD0014024000BFFEE70D
:100400007047000070B5002100230F22C4781CB390
:10041000174C246804F4E064C4F5E064C4F30721D5
:10042000C1F10404E3B20A4144789C40E1B284780B
:10043000144021430C07210E0E4C057861550478B9
:1004400004F01F050124AC4005786D11AD0005F1E5
:10045000E025C5F8004109E0047804F01F050124F7
:10046000AC40054D0678761145F8264070BD000079
:100470000CED00E000E400E080E100E0024901430F
:10048000024A1160704700000000FA050CED00E020
:100490007047000029B1064A12680243044B1A60F3
:1004A00004E0034A12688243014B1A60704700005F
:1004B0003038024029B1064A12680243044B1A60E0
:1004C00004E0034A12688243014B1A60704700003F
:1004D0004038024029B1064A12680243044B1A60B0
:1004E00004E0034A12688243014B1A60704700001F
:1004F00044380240F0B500210022002402250026E5
:100500000223324F3F6807F00C0121B1042905D0C6
:10051000082937D105E02E4F076036E02D4F0760E0
:1005200033E02A4F3F1F3F68C7F38056274F3F1FD6
:100530003F6807F03F036EB1264FB7FBF3F7DFF8D4
:100540008CC0ACF1040CDCF800C0CCF3881C07FBB9
:100550000CF40CE01E4FB7FBF3F7DFF870C0ACF102
:10056000040CDCF800C0CCF3881C07FB0CF4174F1C
:100570003F1F3F68C7F301477F1C7D00B4FBF5F7C1
:10058000076002E0124F076000BF00BF0F4F3F68D7
:1005900007F0F0010909104F7A5C0768D7404760FF
:1005A0000A4F3F6807F4E051890A0B4F7A5C4768AD
:1005B000D7408760054F3F6807F46041490B064FFD
:1005C0007A5C4768D740C760F0BD00000838024039
:1005D0000024F40000127A000000002070470000A0
:1005E0000CB50020019000903448006840F4803041
:1005F0003249086000BF3148006800F400300090C4
:100600000198401C0190009818B90198B0F5A04FCE
:10061000F1D12A48006800F4003010B101200090A8
:1006200001E0002000900098012846D12348403086
:10063000006840F08050214940310860204800683F
:1006400040F440401E4908601C48083000681B49BF
:10065000083108600846006840F400400860084619
:10066000006840F4A05008601648091F0860081F81
:10067000006840F08070091F086000BF0F480068E4
:1006800000F000700028F9D040F205700E490860B3
:100690000A480830006820F0030008490831086063
:1006A0000846006840F00200086000BF03480830B8
:1006B000006800F00C000828F8D10CBD003802409A
:1006C0000070004008544007003C0240042808D154
:1006D0004FF0E021096941F004014FF0E02211617F
:1006E00007E04FF0E021096921F004014FF0E0221A
:1006F000116170477047000010B51548006840F45C
:100700007000134908601348006840F00100114967
:10071000086000200F49083108600E4800680E4943
:1007200008400C4908600D48091D0860081F006852
:1007300020F48020091F0860002006490C31086061
:10074000FFF74EFF4FF0006001498039086010BD8F
:1007500088ED00E000380240FFFFF6FE1030002474
:1007600010B504466FF00400FFF7B0FFE11704EB8B
:100770005171C1F3C701074A11701046007800EBB0
:100780004001C1EBC0104FF6FF7101EAC000024901
:10079000088010BD100000201200002010B540F2AB
:1007A00025511D4800F04AF810B31B4800F000F92D
:1007B000C4B21A48008800F40040C8B9174800883D
:1007C00000F4804060B10A2C03D000201349088057
:1007D00020E01248008840F400401049088019E0E9
:1007E0000D2C06D10D48008840F480400B4908804C
:1007F00010E00A480088C0F30D0009490C5407486E
:100800000088401C0549088008460088C72801DD8B
:100810000020088010BD00000010014014000020DE
:100820001C00002021B1828942F40052828104E040
:1008300082894DF6FF731A408281704770B5024677
:10084000002400230025002040F66A16B14200D1A2
:1008500000BFC1F3421501F01F03012606FA03F39E
:10086000012D02D19689334006E0022D02D1168A6D
:10087000334001E0968A33400C12012606FA04F454
:100880001688344013B10CB1012000E0002070BD87
:10089000F0B50346002400260025002040F66A1724
:1008A000B94200D100BF1846C1F3421401F01F063F
:1008B000012707FA06F5012C01D10C3004E0022CC7
:1008C00001D1103000E014301AB107682F430760DF
:1008D00002E00768AF430760F0BD00002DE9FF4765
:1008E00005460E460024A14600BFA046B08900B1CF
:1008F00000BF2C8A24F44054F08804432C82AC8935
:1009000041F20C608443B0883189084371890843FF
:100910000443AC81AC8A24F44074B0890443AC82B3
:100920006846FFF7E7FD2048854202D01F48854210
:1009300002D1DDF80C9001E0DDF80890A88900F400
:10094000004040B109EBC90000EB091031684900D3
:10095000B0FBF1F707E009EBC90000EB09103168C3
:100960008900B0FBF1F76420B7FBF0F00401200927
:10097000642101FB1078A88900F4004040B13220C6
:1009800000EBC800B0FBF1F000F00700044308E002
:10099000322000EB08106421B0FBF1F000F00F00F2
:1009A00004432C81BDE8FF87001001400014014082
:1009B00001468888C0F30800704700BFFEE70000CA
:1009C00010B588B0044601210846FFF763FD0121F8
:1009D0001020FFF77FFD4FF4C060069002208DF8D5
:1009E0001C008DF81D0000208DF81E0001208DF8E0
:1009F0001F0006A91B48FFF772FC072209211948AE
:100A0000FFF7B5FC07220A211648FFF7B0FC029455
:100A10000020ADF80C00ADF80E00ADF81000ADF8F8
:100A200014000C20ADF8120002A90F48FFF756FF82
:100A300001210D48FFF7F6FE25208DF80400032064
:100A40008DF805008DF8060001208DF8070001A83B
:100A5000FFF7D8FC012240F225510348FFF718FFA9
:100A600008B010BD00000240001001400020014904
:100A700008607047082C004040F08001014A116076
:100A800070470000002C00400120014908607047B9
:100A9000A480054210B57F2000F00EF8FFF7E6FFB6
:100AA0000448006808B9012000E0002001490860FE
:100AB00010BD0000A882424200F07F01014A11608F
:100AC00070470000002C00400021044A126822F404
:100AD000C0710143014A116070470000042C0040BE
:100AE00008B5002100910749096821F07F010091B4
:100AF00000F07F01009A11430091024A00991160B1
:100B000008BD0000042C004038B505460C46012104
:100B1000C802FFF7CFFC2846FFF7D6FFE0B2FFF789
:100B2000DFFF7F20FFF7A8FF00208DF800000220E4
:100B30008DF8010003208DF8020001208DF80300DC
:100B40006846FFF75FFCFFF791FFFFF79DFF38BD99
:100B500000BF704770B504464FF4077094FBF0F087
:100B6000C6B24FF4077094FBF0F100FB114085B260
:100B700005E04FF4077000F009F8701EC6B2002EB1
:100B8000F7D115B1284600F001F870BD0146114AB1
:100B900012884A434FF0E0235A6100229A611A46B4
:100BA000126942F001021A6100BF4FF0E0221069A1
:100BB00000F001021AB100F48032002AF5D04FF0A3
:100BC000E022126922F001024FF0E0231A610022B4
:100BD0009A617047120000204FF4A060FFF74EFCAE
:100BE000A820FFF7BDFD4FF4E130FFF7E9FEFFF766
:100BF000E5FB0020074908604FF47A70FFF7AAFF71
:100C00005F214FF4C070FFF77FFF02E00120014930
:100C10000860FBE7A48242424FF04070E1EE100A08
:100C200070470000440C0008000000201C00000079
:100C3000C4010008600C00081C0000202C07000004
:100C4000E0010008000000000102030401020304A7
:100C50000607080900000000000000000000000076
:040000050800018965
:00000001FF
