:020000040800F2
:100000006007002039020008392100080B090008A8
:100010003521000885050008F326000800000000CF
:100020000000000000000000000000001523000890
:10003000FD06000800000000C92100082D2400086A
:10004000530200085302000853020008530200083C
:10005000530200085302000853020008530200082C
:10006000530200085302000853020008530200081C
:10007000530200085302000853020008530200080C
:1000800053020008530200085302000853020008FC
:1000900053020008530200085302000853020008EC
:1000A00053020008530200085302000853020008DC
:1000B00053020008530200085302000853020008CC
:1000C00053020008530200085302000853020008BC
:1000D0005302000853020008D52400085302000808
:1000E000530200085302000853020008530200089C
:1000F000530200085302000853020008530200088C
:10010000530200085302000853020008530200087B
:10011000530200085302000853020008530200086B
:10012000530200085302000853020008530200085B
:10013000530200085302000853020008530200084B
:10014000530200085302000853020008530200083B
:10015000530200085302000853020008530200082B
:10016000530200085302000853020008530200081B
:10017000530200085302000853020008530200080B
:10018000530200085302000800F002F800F044F89F
:100190000AA090E8000C82448344AAF10107DA45E2
:1001A00001D100F039F8AFF2090EBAE80F0013F0F0
:1001B000010F18BFFB1A43F00103184798420000D3
:1001C000B8420000103A24BF78C878C1FAD8520764
:1001D00024BF30C830C144BF04680C6070470000C1
:1001E0000023002400250026103A28BF78C1FBD840
:1001F000520728BF30C148BF0B607047642900F028
:100200007D80782900F0B680002070471FB502F08D
:1002100027FD1FBD10B510BD00F082F91146FFF794
:10022000F5FF02F037FB00F0A0F903B4FFF7F2FF8F
:1002300003BC02F0B7FA00000948804709480047AC
:10024000FEE7FEE7FEE7FEE7FEE7FEE7FEE7FEE786
:10025000FEE7FEE704480549054A064B70470000E3
:100260003124000889010008600100206007002097
:100270006003002060030020704700000FB40449B1
:1002800010B503AA029800F01DF910BC5DF814FB2C
:10029000180000202DE9F0410E460446002020629F
:1002A0002046E168884730B3252805D0D4E90121EC
:1002B0009047206A401CF2E7E16820460027884703
:1002C000050018D0A5F14100192802D820354FF4B7
:1002D00000673246294620462760FFF78FFF40B16E
:1002E000012804D0F61D26F007060836D8E7361D8B
:1002F000D6E72846DAE7206ABDE8F0812DE9F0412B
:100300000646002410687529314616A510D0AFF3B3
:100310000080002802DA404213A507E031688A070E
:1003200001D512A502E0490704D511A5012401E079
:10033000AFF3008000210A2206F1240709E0B0FB98
:10034000F2FCB0FBF2F302FB1C003030785418468C
:10035000491C0028F3D123462A463046BDE8F04127
:1003600000F057B8000000002D0000002B00000036
:100370002000000070B504460D4621461068AFF31A
:1003800000802188090502D50F4A7A4402E00E4A0E
:100390007A440E32002104F1240305E000F00F0638
:1003A0000009965D5E54491C0028F7D1207800238F
:1003B000000704D5702D02D009B102231132204666
:1003C000BDE8704000F025B89C40000010B5431C0B
:1003D00002E010F8011B71B18107FAD14FF0013230
:1003E00002C88C1A8C4314EAC211F9D0C01A0A064A
:1003F00003D0C01E10BDC01A10BD0A0401D0801E5B
:1004000010BD0902FCD0401E10BD704770477047F8
:1004100070472DE9F0470D4699469246044600F193
:1004200024080168880604D5E06921F010012160E4
:1004300000E00120A84201DD471B00E00027A16980
:100440007A1902EB0900081AA0612078C00602D4CC
:100450002046AFF30080002608E0D4E901211AF815
:1004600006009047206A401C761C20624E45F4DB53
:100470002078C0060AD52046AFF3008006E0D4E914
:10048000012130209047206A401C2062381EA7F1CD
:100490000107F4DC07E0D4E9012118F805009047D2
:1004A000206A401C2062281EA5F10105F3DC2046CD
:1004B000AFF300802078000602D50220BDE8F08767
:1004C0000120FBE7074B70B50D467B4400F011F8A7
:1004D0000446284600F020F810B14FF0FF3070BD00
:1004E000204670BDAB23000001694A1C02610878F8
:1004F000704700B58FB0CDE9013100210591054964
:100500007944CDE9031011466846FFF7C3FE0FB0EA
:1005100000BD0000E5FFFFFF007B00F0800070479A
:10052000754600F02BF8AE4605006946534620F0AC
:100530000700854618B020B5FFF78CFEBDE82040C7
:100540004FF000064FF000074FF000084FF0000B8F
:1005500021F00701AC46ACE8C009ACE8C009ACE842
:10056000C009ACE8C0098D46704710B50446AFF32A
:1005700000802046BDE81040FFF757BE0048704796
:100580000001002000BFFEE710B50121102001F09E
:100590001DFE00F09DF80221034800F0B4F94FF46D
:1005A0007A7002F001F910BD0010024070B5002011
:1005B000284908700221284800F0A3F9142002F00D
:1005C000F3F80221244800F09EF9282002F008F9EF
:1005D00000F070F80221204800F08AF905461DB1AC
:1005E00001201C49087070BD502002F0F9F802216A
:1005F000194800F07DF905461DB90220154908701B
:10060000F1E7502002F0ECF8002405E000F028F8B3
:1006100012490855601CC4B2052CF7DB00F058F8ED
:1006200002210D4800F06FF90C4800780B49497819
:1006300008440A49897808440849C9780844C6B278
:1006400006480079B04202D003200249087000BF7A
:10065000C9E7000020000020001002402100002017
:1006600070B50024002500BF1DE000BF0221104826
:1006700000F03EF90028F9D01E2002F0B1F8022166
:100680000B4800F035F9012804D1C4F10701884076
:100690002843C5B200BF0221054800F029F901280E
:1006A000F9D0601CC4B2082CDFDB284670BD000006
:1006B000001002401CB50220009000208DF80400BC
:1006C0006946024800F0A9F81CBD00000010024075
:1006D0001CB50220009001208DF8040000208DF848
:1006E000060003208DF8050001208DF807006946FB
:1006F000014800F092F81CBD001002407047000055
:1007000051B18200A2F1C042126842F0010382009E
:10071000A2F1C042136009E08200A2F1C042126857
:10072000034B1A408300A3F1C0431A6070470000D6
:10073000FEFF0F00D0E901121143C26811430269A4
:1007400011434269114382691143C2691143026A2C
:100750001143426A1143826A1143C26A1143026B18
:10076000114302689200A2F1C04211608168082919
:100770000BD101688900A1F1C041096841F0400234
:1007800001688900A1F1C0410A60416B0968426BB0
:10079000526841EA0211426B926841EA0221426BBF
:1007A000928941EA0241426B128A41EA0251426B4C
:1007B000127D41EA0261426B926911430268521C48
:1007C0009200A2F1C0421160C16AB1F5804F1BD105
:1007D000816B0968826B526841EA0211826B9268F0
:1007E00041EA0221826B128A41EA0251826B127D38
:1007F00041EA0261826B9269114302689200A2F1A0
:10080000C042C2F8041107E06FF07042016889002D
:10081000A1F1C041C1F804217047F0B50A4600219A
:100820000023002400BF3DE0012505FA01F315680F
:1008300005EA03049C4234D105684F000326BE40FC
:10084000B543056015794E00B5400668354305602F
:100850001579012D02D01579022D16D185684F002A
:100860000326BE40B543856055794E00B540866885
:1008700035438560456801268E40B543456045682F
:1008800096798E40B6B235434560C5684F00032661
:10089000BE40B543C560D5794E00B540C668354306
:1008A000C560491C1029BFD3F0BDF0B5002300245A
:1008B0004D07ED0E02FA05F3CE1000F1200555F8B4
:1008C00026504E07F70E0F26BE40B543CF1000F15D
:1008D000200646F82750CE1000F1200555F8265086
:1008E00045EA0304CE1000F1200545F82640F0BD8E
:1008F0000246002013690B400BB1012000E00020EC
:100900007047418370470183704700BFFEE70000D6
:100910002DE9FC4106460D4614462846FFF756FDD4
:1009200000F0FF0808FB04F000EBD0714F10BAB2E2
:100930000649CDE900450988C91BC1F34F0023468C
:10094000314601F078FBBDE8FC810000F00000209A
:1009500070B5044600250A4800880949498800FB0B
:1009600001F60021084601F00FFA01F0AFFB00BFCD
:1009700002E0044804806D1CB542FAD370BD00004B
:10098000F00000208000006C10B5044684B90020FF
:10099000164988714FF4F07008804FF44870488011
:1009A0000846438802880021084601F013FA0FE048
:1009B00001200E4988714FF4487008804FF4F070A0
:1009C00048800846438802880021084601F002FA60
:1009D0004FF43050054908814FF4285048814FF4B6
:1009E0002C508881002001F067F910BDF000002034
:1009F00030B504460D461449488901F04FFB2012DA
:100A000001F058FB10494989491C88B201F046FBA6
:100A1000E0B201F04FFB0C49888901F03FFB28123E
:100A200001F048FB08498989491C88B201F036FB6E
:100A3000E8B201F03FFB04480089044908804FF008
:100A4000D840A0F8802030BDF00000207E00006C6F
:100A50002DE9F04F05460E4617469846DDF824A0CE
:100A6000781B401C1FFA80FB344614E021462846C0
:100A700001F08AF901F02AFB4FF0000907E04FF07E
:100A8000D840A0F880A009F101001FFA80F9D945EB
:100A9000F5DB601C84B24445E8DDBDE8F08F000062
:100AA00000B59FB00121084601F0A0FB0121022002
:100AB00001F08CFB0121082001F088FB01211020AE
:100AC00001F084FB0121202001F080FB0121402066
:100AD00001F07CFB4FF400401D9001208DF8780060
:100AE00000208DF87A0002208DF8790001208DF821
:100AF0007B001DA9FE48FFF790FE02208DF87800CC
:100B000003208DF879004FF480501D901DA9F948FD
:100B1000FFF783FE4FF480401D901DA9F648FFF7B4
:100B20007CFE4FF400401D901DA9F348FFF775FEB1
:100B300001201D901DA9F048FFF76FFE02201D90B7
:100B40001DA9ED48FFF769FE80201D901DA9EB4807
:100B5000FFF763FE4FF480701D901DA9E748FFF773
:100B60005CFE4FF400701D901DA9E448FFF755FE90
:100B70004FF480601D901DA9E048FFF74EFE4FF432
:100B800000601D901DA9DD48FFF747FE4FF480501F
:100B90001D901DA9D948FFF740FE4FF400501D904D
:100BA0001DA9D648FFF739FE4FF480401D901DA9BE
:100BB000D248FFF732FE4FF400401D901DA9CF48E8
:100BC000FFF72BFE4FF480701D901DA9CA48FFF758
:100BD00024FE4FF400701D901DA9C748FFF71DFEAD
:100BE0004FF480601D901DA9C348FFF716FE4FF417
:100BF00080501D901DA9C248FFF70FFE10201D90C8
:100C00001DA9BD48FFF709FE20201D901DA9BA4867
:100C1000FFF703FE0C220021B748FFF746FE0C2227
:100C20000121B548FFF741FE0C220421B248FFF72D
:100C30003CFE0C220521B048FFF737FE0C220821AC
:100C4000AD48FFF732FE0C220921AB48FFF72DFE1D
:100C50000C220A21A848FFF728FE0C220E21A648E4
:100C6000FFF723FE0C220F21A348FFF71EFE0C22E4
:100C70000721A248FFF719FE0C2208219F48FFF721
:100C800014FE0C2209219D48FFF70FFE0C220A21B9
:100C90009A48FFF70AFE0C220B219848FFF705FE41
:100CA0000C2211469548FFF700FE0C220D219348B7
:100CB000FFF7FBFD0C220E219048FFF7F6FD0C22FA
:100CC0000F218E48FFF7F1FD0C2211468948FFF7EE
:100CD000ECFD0C2211468A48FFF7E7FD1020079033
:100CE000002008900A900B900C900D90032000902B
:100CF00000200190032002900020039004900590B2
:100D0000069006200E9000200F9010901020119059
:100D10000020129014901390159016904FF480506C
:100D20001790002018904FF48040199000201A90DE
:100D300007A81B90CDF870D00EA8FFF7FBFC01218F
:100D40000620FFF7DDFC642001F02EFD45F2105077
:100D50006C498880084681886BA0FFF78FFA642071
:100D600001F022FD55214FF4704001F0B9F9AA219C
:100D70004FF2010001F0B4F952214FF2020001F0EC
:100D8000AFF908214FF2030001F0AAF901214FF257
:100D9000040001F0A5F90D214FF4304001F0A0F955
:100DA0000D214BF2010001F09BF90D214BF20200E5
:100DB00001F096F934214FF4364001F091F93421D5
:100DC0004BF2016001F08CF934214BF2026001F02A
:100DD00087F90D214FF4314001F082F90D214BF2DA
:100DE000011001F07DF90D214BF2021001F078F9AC
:100DF00034214FF4374001F073F934214BF2017084
:100E000001F06EF934214BF2027001F069F9002112
:100E10004FF4324001F064F900214BF2012001F05F
:100E20005FF900214BF2022001F05AF924214FF41E
:100E3000384001F055F924214BF6010001F050F93A
:100E400024214BF6020001F04BF901214FF43F4001
:100E500001F046F90F214FF4334001F041F90F2121
:100E60004BF2013001F03CF90F214BF2023001F05E
:100E700037F934214FF4394001F032F934214BF67F
:100E8000011001F02DF934214BF6021001F028F980
:100E900008214FF4354001F023F908214BF20150AD
:100EA00001F01EF908214BF2025001F019F903215B
:100EB0004FF4424001F014F924214FF43A4001F07C
:100EC0000FF924214BF6012001F00AF924214BF6F9
:100ED000022001F005F900214FF43C4001F000F937
:100EE00078214BF6014001F0FBF8002112E00000F0
:100EF0000004024000140240000C024000100240B6
:100F000000180240F00000204C43442049443A2598
:100F1000780D0A004BF6024001F0E2F800214FF490
:100F20003D4001F0DDF878214BF6015001F0D8F892
:100F300000214BF6025001F0D3F800214FF43E405F
:100F400001F0CEF864214BF6016001F0C9F80021F0
:100F50004FF4514001F0C4F833214DF2011001F07B
:100F6000BFF800214DF2021001F0BAF834214DF221
:100F7000031001F0B5F800214DF2041001F0B0F8B3
:100F80003A214DF2051001F0ABF800214DF20610A8
:100F900001F0A6F84A214DF2071001F0A1F8002156
:100FA0004DF2081001F09CF85C214DF2091001F09F
:100FB00097F800214DF20A1001F092F881214DF2CC
:100FC0000B1001F08DF800214DF20C1001F088F8A3
:100FD000A6214DF20D1001F083F800214DF20E1004
:100FE00001F07EF8E5214DF20F1001F079F80121B2
:100FF0004DF2101001F074F813214DF2111001F0B0
:101000006FF801214DF2121001F06AF854214DF2EF
:10101000131001F065F801214DF2141001F060F891
:1010200082214DF2151001F05BF801214DF21610EE
:1010300001F056F8CA214DF2171001F051F80221C3
:101040004DF2181001F04CF800214DF2191001F08A
:1010500047F802214DF21A1001F042F801214DF239
:101060001B1001F03DF802214DF21C1001F038F880
:1010700034214DF21D1001F033F802214DF21E1003
:1010800001F02EF867214DF21F1001F029F802211E
:101090004DF2201001F024F884214DF2211001F0CE
:1010A0001FF802214DF2221001F01AF8A4214DF28E
:1010B000231001F015F802214DF2241001F010F870
:1010C000B7214DF2251001F00BF802214DF2261048
:1010D00001F006F8CF214DF2271001F001F80221AE
:1010E0004DF2281000F0FCFFDE214DF2291000F037
:1010F000F7FF02214DF22A1000F0F2FFF2214DF22B
:101100002B1000F0EDFF02214DF22C1000F0E8FF53
:10111000FE214DF22D1000F0E3FF03214DF22E10C1
:1011200000F0DEFF10214DF22F1000F0D9FF032157
:101130004DF2301000F0D4FF33214DF2311000F0A9
:10114000CFFF03214DF2321000F0CAFF6D214DF2A6
:10115000331000F0C5FF00214FF4524000F0C0FFF3
:1011600033214DF2012000F0BBFF00214DF202209F
:1011700000F0B6FF34214DF2032000F0B1FF002152
:101180004DF2042000F0ACFF3A214DF2052000F0B2
:10119000A7FF00214DF2062000F0A2FF4A214DF2E8
:1011A000072000F09DFF00214DF2082000F098FF7D
:1011B0005C214DF2092000F093FF00214DF20A203E
:1011C00000F08EFF81214DF20B2000F089FF0021FD
:1011D0004DF20C2000F084FFA6214DF20D2000F00E
:1011E0007FFF00214DF20E2000F07AFFE5214DF245
:1011F0000F2000F075FF01214DF2102000F070FF6C
:1012000013214DF2112000F06BFF01214DF212204D
:1012100000F066FF54214DF2132000F061FF012120
:101220004DF2142000F05CFF82214DF2152000F0F9
:1012300057FF01214DF2162000F052FFCA214DF256
:10124000172000F04DFF02214DF2182000F048FF5A
:1012500000214DF2192000F043FF02214DF21A2027
:1012600000F03EFF01214DF21B2000F039FF02216A
:101270004DF21C2000F034FF34214DF21D2000F00F
:101280002FFF02214DF21E2000F02AFF67214DF2B0
:101290001F2000F025FF02214DF2202000F020FF4A
:1012A00084214DF2212000F01BFF02214DF222206B
:1012B00000F016FFA4214DF2232000F011FF0221BF
:1012C0004DF2242000F00CFFB7214DF2252000F054
:1012D00007FF02214DF2262000F002FFCF214DF240
:1012E000272000F0FDFE02214DF2282000F0F8FE3C
:1012F000DE214DF2292000F0F3FE02214DF22A20DA
:1013000000F0EEFEF2214DF22B2000F0E9FE02216A
:101310004DF22C2000F0E4FEFE214DF22D2000F0D5
:10132000DFFE03214DF22E2000F0DAFE10214DF2F7
:101330002F2000F0D5FE03214DF2302000F0D0FE2A
:1013400033214DF2312000F0CBFE03214DF232204B
:1013500000F0C6FE6D214DF2332000F0C1FE0021E9
:101360004FF4534000F0BCFE33214DF2013000F049
:10137000B7FE00214DF2023000F0B2FE34214DF2F2
:10138000033000F0ADFE00214DF2043000F0A8FE65
:101390003A214DF2053000F0A3FE00214DF2063057
:1013A00000F09EFE4A214DF2073000F099FE002128
:1013B0004DF2083000F094FE5C214DF2093000F04F
:1013C0008FFE00214DF20A3000F08AFE81214DF29D
:1013D0000B3000F085FE00214DF20C3000F080FE55
:1013E000A6214DF20D3000F07BFE00214DF20E30B3
:1013F00000F076FEE5214DF20F3000F071FE012184
:101400004DF2103000F06CFE13214DF2113000F05F
:1014100067FE01214DF2123000F062FE54214DF2C0
:10142000133000F05DFE01214DF2143000F058FE43
:1014300082214DF2153000F053FE01214DF216309D
:1014400000F04EFECA214DF2173000F049FE022195
:101450004DF2183000F044FE00214DF2193000F03A
:101460003FFE02214DF21A3000F03AFE01214DF20A
:101470001B3000F035FE02214DF21C3000F030FE32
:1014800034214DF21D3000F02BFE02214DF21E30B2
:1014900000F026FE67214DF21F3000F021FE0221F0
:1014A0004DF2203000F01CFE84214DF2213000F07E
:1014B00017FE02214DF2223000F012FEA4214DF25F
:1014C000233000F00DFE02214DF2243000F008FE22
:1014D000B7214DF2253000F003FE02214DF22630F7
:1014E00000F0FEFDCF214DF2273000F0F9FD022182
:1014F0004DF2283000F0F4FDDE214DF2293000F0ED
:10150000EFFD02214DF22A3000F0EAFDF2214DF20A
:101510002B3000F0E5FD02214DF22C3000F0E0FD13
:10152000FE214DF22D3000F0DBFD03214DF22E3077
:1015300000F0D6FD10214DF22F3000F0D1FD032137
:101540004DF2303000F0CCFD33214DF2313000F05F
:10155000C7FD03214DF2323000F0C2FD6D214DF286
:10156000333000F0BDFD00214FF4544000F0B8FDD1
:1015700033214DF2014000F0B3FD00214DF2024055
:1015800000F0AEFD34214DF2034000F0A9FD002132
:101590004DF2044000F0A4FD3A214DF2054000F068
:1015A0009FFD00214DF2064000F09AFD4A214DF2C8
:1015B000074000F095FD00214DF2084000F090FD3D
:1015C0005C214DF2094000F08BFD00214DF20A40F4
:1015D00000F086FD81214DF20B4000F081FD0021DD
:1015E0004DF20C4000F07CFDA6214DF20D4000F0C4
:1015F00077FD00214DF20E4000F072FDE5214DF225
:101600000F4000F06DFD01214DF2104000F068FD2B
:1016100013214DF2114000F063FD01214DF2124003
:1016200000F05EFD54214DF2134000F059FD012100
:101630004DF2144000F054FD82214DF2154000F0AF
:101640004FFD01214DF2164000F04AFDCA214DF236
:10165000174000F045FD02214DF2184000F040FD1A
:1016600000214DF2194000F03BFD02214DF21A40DD
:1016700000F036FD01214DF21B4000F031FD02214A
:101680004DF21C4000F02CFD34214DF21D4000F0C5
:1016900027FD02214DF21E4000F022FD67214DF290
:1016A0001F4000F01DFD02214DF2204000F018FD0A
:1016B00084214DF2214000F013FD02214DF2224021
:1016C00000F00EFDA4214DF2234000F009FD02219F
:1016D0004DF2244000F004FDB7214DF2254000F00A
:1016E000FFFC02214DF2264000F0FAFCCF214DF222
:1016F000274000F0F5FC02214DF2284000F0F0FCFC
:10170000DE214DF2294000F0EBFC02214DF22A408F
:1017100000F0E6FCF2214DF22B4000F0E1FC02214A
:101720004DF22C4000F0DCFCFE214DF22D4000F08B
:10173000D7FC03214DF22E4000F0D2FC10214DF2D7
:101740002F4000F0CDFC03214DF2304000F0C8FCEA
:1017500033214DF2314000F0C3FC03214DF2324001
:1017600000F0BEFC6D214DF2334000F0B9FC0021C9
:101770004FF4554000F0B4FC33214DF2015000F01D
:10178000AFFC00214DF2025000F0AAFC34214DF2D2
:10179000035000F0A5FC00214DF2045000F0A0FC25
:1017A0003A214DF2055000F09BFC00214DF206500D
:1017B00000F096FC4A214DF2075000F091FC002108
:1017C0004DF2085000F08CFC5C214DF2095000F005
:1017D00087FC00214DF20A5000F082FC81214DF27D
:1017E0000B5000F07DFC00214DF20C5000F078FC15
:1017F000A6214DF20D5000F073FC00214DF20E5069
:1018000000F06EFCE5214DF20F5000F069FC012163
:101810004DF2105000F064FC13214DF2115000F015
:101820005FFC01214DF2125000F05AFC54214DF2A0
:10183000135000F055FC01214DF2145000F050FC03
:1018400082214DF2155000F04BFC01214DF2165053
:1018500000F046FCCA214DF2175000F041FC022175
:101860004DF2185000F03CFC00214DF2195000F0F0
:1018700037FC02214DF21A5000F032FC01214DF2EA
:101880001B5000F02DFC02214DF21C5000F028FCF2
:1018900034214DF21D5000F023FC02214DF21E5068
:1018A00000F01EFC67214DF21F5000F019FC0221D0
:1018B0004DF2205000F014FC84214DF2215000F034
:1018C0000FFC02214DF2225000F00AFCA4214DF23F
:1018D000235000F005FC02214DF2245000F000FCE2
:1018E000B7214DF2255000F0FBFB02214DF22650AE
:1018F00000F0F6FBCF214DF2275000F0F1FB022162
:101900004DF2285000F0ECFBDE214DF2295000F0A2
:10191000E7FB02214DF22A5000F0E2FBF2214DF2EA
:101920002B5000F0DDFB02214DF22C5000F0D8FBD3
:10193000FE214DF22D5000F0D3FB03214DF22E502D
:1019400000F0CEFB10214DF22F5000F0C9FB032117
:101950004DF2305000F0C4FB33214DF2315000F015
:10196000BFFB03214DF2325000F0BAFB6D214DF266
:10197000335000F0B5FB00214FF4564000F0B0FBAF
:1019800033214DF2016000F0ABFB00214DF202600B
:1019900000F0A6FB34214DF2036000F0A1FB002112
:1019A0004DF2046000F09CFB3A214DF2056000F01E
:1019B00097FB00214DF2066000F092FB4A214DF2A8
:1019C000076000F08DFB00214DF2086000F088FBFD
:1019D0005C214DF2096000F083FB00214DF20A60AA
:1019E00000F07EFB81214DF20B6000F079FB0021BD
:1019F0004DF20C6000F074FBA6214DF20D6000F07A
:101A00006FFB00214DF20E6000F06AFBE5214DF204
:101A10000F6000F065FB01214DF2106000F060FBEB
:101A200013214DF2116000F05BFB01214DF21260B9
:101A300000F056FB54214DF2136000F051FB0121E0
:101A40004DF2146000F04CFB82214DF2156000F065
:101A500047FB01214DF2166000F042FBCA214DF216
:101A6000176000F03DFB02214DF2186000F038FBDA
:101A700000214DF2196000F033FB02214DF21A6093
:101A800000F02EFB01214DF21B6000F029FB02212A
:101A90004DF21C6000F024FB34214DF21D6000F07B
:101AA0001FFB02214DF21E6000F01AFB67214DF270
:101AB0001F6000F015FB02214DF2206000F010FBCA
:101AC00084214DF2216000F00BFB02214DF22260D7
:101AD00000F006FBA4214DF2236000F001FB02217F
:101AE0004DF2246000F0FCFAB7214DF2256000F0C1
:101AF000F7FA02214DF2266000F0F2FACF214DF202
:101B0000276000F0EDFA02214DF2286000F0E8FABB
:101B1000DE214DF2296000F0E3FA02214DF22A6045
:101B200000F0DEFAF2214DF22B6000F0D9FA02212A
:101B30004DF22C6000F0D4FAFE214DF22D6000F041
:101B4000CFFA03214DF22E6000F0CAFA10214DF2B7
:101B50002F6000F0C5FA03214DF2306000F0C0FAAA
:101B600033214DF2316000F0BBFA03214DF23260B7
:101B700000F0B6FA6D214DF2336000F0B1FA552154
:101B80004FF4704000F0ACFAAA214FF2010000F0CF
:101B9000A7FA52214FF2020000F0A2FA08214FF2F8
:101BA000030000F09DFA00214FF2040000F098FAC3
:101BB000CC214FF4314000F093FA00214BF2011098
:101BC00000F08EFA05214FF4364000F089FA7021BA
:101BD0004FF4374000F084FA70214BF2017000F0AE
:101BE0007FFA01214FF4384000F07AFA03214BF6D6
:101BF000010000F075FA03214BF6020000F070FAC4
:101C000003214BF6030000F06BFA02214FF43C4035
:101C100000F066FA00214BF6014000F061FA002165
:101C20004BF6024000F05CFAD0214FF4494000F03E
:101C300057FA02214CF6011000F052FA50214CF6EE
:101C4000021000F04DFA50214CF6031000F048FA53
:101C500050214CF6041000F043FA00214FF4545088
:101C600000F03EFA55214FF4685000F039FA4FF475
:101C7000885000F013FA782000F0B2FD4FF42450A1
:101C800000F00CFA0020FEF77FFE012003490860F7
:101C90004FF6FF70FEF75CFE1FB000BDBC824042F5
:101CA00010B50246012000E050430B1EA1F10104D3
:101CB000E1B2F9D110BD000070B504460023002642
:101CC00030488079012818D1082C15D2DFE804F0BB
:101CD0000406080A0C0E101206240DE007240BE07F
:101CE000042409E0052407E0012405E0002403E0C2
:101CF000032401E0022400BF00BF082C1CD2DFE84F
:101D000004F00406090C0F12151800BF14E043F08C
:101D1000800311E043F040030EE043F0C0030BE00A
:101D200043F0200308E043F0600305E043F0A00324
:101D300002E043F0E00300BF00BF4FF458561946DD
:101D4000304600F0CDF903F0200068B10D4800885E
:101D50000C494988884214DA0A48058840880949AC
:101D60000880084645800CE00648008805494988F7
:101D7000884206DD034805884088024908800846F5
:101D8000458070BDF000002010B502460C46104999
:101D9000488900F083F9101200F08CF90C49498948
:101DA000491C88B200F07AF9D0B200F083F90849F2
:101DB000888900F073F9201200F07CF904498989C0
:101DC000491C88B200F06AF9E0B200F073F910BD66
:101DD000F00000202DE9F04104460D461E46A018F3
:101DE000401E87B2A819401E1FFA80F8234948896F
:101DF00000F054F9201200F05DF920494989491C8E
:101E000088B200F04BF9E0B200F054F91B4949895F
:101E1000891C88B200F042F9381200F04BF91749DA
:101E20004989C91C88B200F039F9F8B200F042F9CA
:101E30001249888900F032F9281200F03BF90F4965
:101E40008989491C88B200F029F9E8B200F032F91A
:101E50000A498989891C88B200F020F94FEA2820B4
:101E600000F028F905498989C91C88B200F016F9E3
:101E700008F0FF0000F01EF9BDE8F081F00000203E
:101E80002DE9F84F80460E4617461C46B3462046BD
:101E9000E31704EB5373DB1021464FEAE47C04EBB9
:101EA0005C7C4FEAEC0CA4EBCC0CBCF1000F02D034
:101EB0004FF0010C01E04FF0000C6344224604EBAC
:101EC000D27C4FEA6C0C03FB0CF3DBB20093A7F15E
:101ED0002000C7B2002558E00C2C04D0102C0AD0EA
:101EE000182C16D10DE007EB47002A4901EB8000C2
:101EF00010F805900FE0284800EB071010F8059047
:101F000009E007EBC700254901EB800010F80590B8
:101F100001E0BDE8F88F00BF4FF0000A2FE009F0A4
:101F2000800030B11E48028831464046FEF760FD11
:101F300007E00A9828B91B48028831464046FEF758
:101F400057FD4FEA49604FEA1069701C86B2164887
:101F50004088B04200DCDCE7A6EB0B00A0420AD1CF
:101F60005E4608F101001FFA80F80F4800884045DE
:101F700000DCCEE706E00AF1010000F0FF0ABAF14A
:101F8000080FCCDB00BF681CC5B200988542A3DBFC
:101F900000BFBEE76A2C0008DE300008CE3600081D
:101FA0001C0000201E000020F00000202DE9FF474B
:101FB0008046894615461E4600240027092410E065
:101FC000E1B20A20FFF76CFEB5FBF0F001A908555D
:101FD000E1B20A20FFF764FEB5FBF0F100FB1155FA
:101FE000641E002CECDA092405E001A8005D00B9AC
:101FF00004B902E0641E002CF7DA00BFE7B2002447
:1020000012E00120B24606EBDA71491001FB0481AF
:10201000009088B2391B01AB595C3031CAB23346EB
:102020004946FFF72DFF641CBC42EADD781CC0B2B4
:1020300004B0BDE8F0872DE9F84704460D46904608
:102040009946DDE9096704F0FF0A08EB04001FFA6E
:1020500080F809EB05001FFA80F916E0444502DB21
:102060005446A81985B24D4500DB14E000200090CD
:102070003A78334629462046FFF702FF304606EB02
:10208000D07104EB61018CB27F1C38787E2802DCB1
:1020900038782028E2DA00BFBDE8F88701B5BDF83E
:1020A00000000090BDF800000149088008BD000054
:1020B0007E00006C01B5BDF800000090BDF8000086
:1020C0000149088008BD00008000006C02480089BA
:1020D0000249088070470000F00000207E00006C7C
:1020E000034A10804FF0D842A2F8801070470000D9
:1020F0007E00006C1CB50121202000F067F84FF431
:10210000C060009001208DF8040000208DF80600CA
:1021100003208DF8050001208DF80700694604486A
:10212000FEF77BFB4FF4C0610148FEF7ECFB1CBDE2
:102130000014024000BFFEE77047000070B50021A8
:1021400000230F22C4781CB3174C246804F4E06405
:10215000C4F5E064C4F30721C1F10404E3B20A4109
:1021600044789C40E1B28478144021430C07210E4E
:102170000E4C05786155047804F01F050124AC402D
:1021800005786D11AD0005F1E025C5F8004109E0C5
:10219000047804F01F050124AC40054D0678761143
:1021A00045F8264070BD00000CED00E000E400E0C2
:1021B00080E100E002490143024A116070470000DB
:1021C0000000FA050CED00E07047000029B1064A56
:1021D00012680243044B1A6004E0034A1268824307
:1021E000014B1A60704700003038024029B1064A9E
:1021F00012680243044B1A6004E0034A12688243E7
:10220000014B1A60704700003838024029B1064A75
:1022100012680243044B1A6004E0034A12688243C6
:10222000014B1A607047000040380240F0B50021B1
:1022300000220024022500260223324F3F6807F0C7
:102240000C0121B1042905D0082937D105E02E4F12
:10225000076036E02D4F076033E02A4F3F1F3F688D
:10226000C7F38056274F3F1F3F6807F03F036EB10B
:10227000264FB7FBF3F7DFF88CC0ACF1040CDCF8A9
:1022800000C0CCF3881C07FB0CF40CE01E4FB7FB1E
:10229000F3F7DFF870C0ACF1040CDCF800C0CCF34D
:1022A000881C07FB0CF4174F3F1F3F68C7F301471B
:1022B0007F1C7D00B4FBF5F7076002E0124F07605A
:1022C00000BF00BF0F4F3F6807F0F0010909104F32
:1022D0007A5C0768D74047600A4F3F6807F4E051CF
:1022E000890A0B4F7A5C4768D7408760054F3F6883
:1022F00007F46041490B064F7A5C4768D740C760D6
:10230000F0BD0000083802400024F40000127A00FA
:1023100000000020704700000CB5002001900090E4
:102320003448006840F480303249086000BF3148CA
:10233000006800F4003000900198401C0190009863
:1023400018B90198B0F5A04FF1D12A48006800F4FF
:10235000003010B10120009001E0002000900098B2
:10236000012846D123484030006840F08050214980
:10237000403108602048006840F440401E49086031
:102380001C48083000681B4908310860084600688E
:1023900040F4004008600846006840F4A05008601F
:1023A0001648091F0860081F006840F08070091F68
:1023B000086000BF0F48006800F000700028F9D0E6
:1023C00040F205700E4908600A480830006820F0A5
:1023D00003000849083108600846006840F0020020
:1023E000086000BF03480830006800F00C000828AF
:1023F000F8D10CBD0038024000700040085440077E
:10240000003C0240042808D14FF0E021096941F066
:1024100004014FF0E022116107E04FF0E02109696B
:1024200021F004014FF0E022116170477047000075
:1024300010B51548006840F470001349086013484F
:10244000006840F001001149086000200F49083180
:1024500008600E4800680E4908400C4908600D48A5
:10246000091D0860081F006820F48020091F08600B
:10247000002006490C310860FFF74EFF4FF0006066
:1024800001498039086010BD88ED00E00038024045
:10249000FFFFF6FE1030002410B504466FF0040074
:1024A000FFF7B0FFE11704EB5171C1F3C701074A11
:1024B00011701046007800EB4001C1EBC0104FF6E0
:1024C000FF7101EAC0000249088010BD1000002021
:1024D0001200002010B540F225511D4800F04AF8C6
:1024E00010B31B4800F000F9C4B21A48008800F489
:1024F0000040C8B91748008800F4804060B10A2C39
:1025000003D000201349088020E01248008840F4DE
:1025100000401049088019E00D2C06D10D480088B4
:1025200040F480400B49088010E00A480088C0F35E
:102530000D0009490C5407480088401C05490880D3
:1025400008460088C72801DD0020088010BD000073
:1025500000440040140000202800002021B182899E
:1025600042F40052828104E082894DF6FF731A40E2
:102570008281704770B502460024002300250020A8
:1025800040F66A16B14200D100BFC1F3421501F016
:102590001F03012606FA03F3012D02D19689334069
:1025A00006E0022D02D1168A334001E0968A3340BC
:1025B0000C12012606FA04F41688344013B10CB14B
:1025C000012000E0002070BDF0B503460024002685
:1025D0000025002040F66A17B94200D100BF184616
:1025E000C1F3421401F01F06012707FA06F5012C7A
:1025F00001D10C3004E0022C01D1103000E0143085
:102600001AB107682F43076002E00768AF4307600D
:10261000F0BD00002DE9FF4705460E460024A14607
:1026200000BFA046B08900B100BF2C8A24F44054FA
:10263000F08804432C82AC8941F20C608443B0885A
:1026400031890843718908430443AC81AC8A24F47E
:102650004074B0890443AC826846FFF7E7FD204828
:10266000854202D01F48854202D1DDF80C9001E07E
:10267000DDF80890A88900F4004040B109EBC900DA
:1026800000EB091031684900B0FBF1F707E009EBF6
:10269000C90000EB091031688900B0FBF1F7642034
:1026A000B7FBF0F004012009642101FB1078A88930
:1026B00000F4004040B1322000EBC800B0FBF1F064
:1026C00000F00700044308E0322000EB081064210A
:1026D000B0FBF1F000F00F0004432C81BDE8FF8750
:1026E000001001400014014001468888C0F3080032
:1026F000704700BFFEE7000010B588B00446012116
:102700000846FFF763FD01214804FFF77FFD0C2019
:10271000069002208DF81C008DF81D0000208DF819
:102720001E0001208DF81F0006A91C48FEF775F851
:10273000072202211948FEF7B8F80722032117489B
:10274000FEF7B3F802940020ADF80C00ADF80E00CF
:10275000ADF81000ADF814000C20ADF8120002A97D
:102760000F48FFF757FF26208DF8040003208DF84F
:1027700005008DF8060001208DF8070001A8FFF77D
:10278000DDFC01210648FFF7E9FE012240F2255158
:102790000348FFF719FF08B010BD00000000024019
:1027A0000044004000BF704770B504464FF4077006
:1027B00094FBF0F0C6B24FF4077094FBF0F100FB0D
:1027C000114085B205E04FF4077000F02FF8701E3D
:1027D000C6B2002EF7D115B1284600F027F870BD1B
:1027E0000146114A12784A434FF0E0235A61002211
:1027F0009A611A46126942F001021A6100BF4FF055
:10280000E022106900F001021AB100F48032002ABF
:10281000F5D04FF0E022126922F001024FF0E023E0
:102820001A6100229A617047100000200146114A87
:1028300012884A434FF0E0235A6100229A611A46F7
:10284000126942F001021A6100BF4FF0E0221069E4
:1028500000F001021AB100F48032002AF5D04FF0E6
:10286000E022126922F001024FF0E0231A610022F7
:102870009A6170471200002000BF054A128802F0DA
:102880004002002AF9D0C2B2014B1B1D1A807047CA
:10289000004400408AB086A2D2E900109268CDE9D7
:1028A0000802079185A30FCBCDE90523CDE90301EC
:1028B00007A8FDF78BFDC4B203A8FDF787FDC5B2DD
:1028C0004FF4A060FFF776FCA820FFF7E5FD4FF47A
:1028D000E130FFF711FFFFF70DFCFEF7E1F8FDF720
:1028E00053FE4FF47840794908804FF6FF707849DD
:1028F0000880182277A13220FEF70AF81F207349BA
:102900000880D4E0FDF752FE7848007830B1012805
:1029100061D002287BD0032874D191E0744882787A
:10292000017874A0FDF7AAFC69480088A0234FF441
:10293000F072642100900020FEF78AF807A81821A1
:10294000CDE9001004EB440082001E2364211846E8
:10295000FFF771FB66490A7804EB44011E2303EB81
:10296000810018236421FFF721FB6DA01821CDE918
:102970000010A11C01EB41011E2202EB8100134655
:102980000C226421FFF757FB03A81821CDE90010A2
:1029900005EB450082001E2382211846FFF74BFB02
:1029A00053498A7805EB45011E2303EB8100182368
:1029B0008221FFF7FBFA5BA01821CDE90010A91CCA
:1029C00001EB41011E2202EB810013460C22822101
:1029D000FFF731FB66E03E480088A0234FF4F07219
:1029E000642100900020FEF733F84FA018211E2329
:1029F0004FF4D272CDE9001064211846FFF71BFB9B
:102A000001E004E035E052A0FDF738FC4AE0304830
:102A10000088A0234FF4F072642100900020FEF79C
:102A200017F856A018211E234FF4D272CDE90010DA
:102A300064211846FFF7FFFA5AA0FDF71FFC31E0AA
:102A400023480088A0234FF4F072642100900020F6
:102A5000FDF7FEFF5EA018211E234FF4D272CDE9D0
:102A6000001064211846FFF7E6FA61A0FDF706FCA6
:102A700018E017480088A0234FF4F07264210090FA
:102A80000020FDF7E5FF62A018211E234FF4D2724B
:102A9000CDE9001064211846FFF7CDFA66A0FDF7D6
:102AA000EDFB00BF00BF4FF47A70FFF77DFE29E712
:102AB00068756D64697479203D20000074656D70DF
:102AC00065726174757265203D2000001C00002055
:102AD0001E00002054656D7065726174757265200A
:102AE0004578706572696D656E7400002000002085
:102AF0002100002068756D64697479203D2025648B
:102B00002E302025252074656D7065726174757294
:102B100065203D2025642E3020430D0A0000000072
:102B200025000000430000004572726F7220313AA8
:102B30002044485420737461727420636F6E64691A
:102B400074696F6E2031206E6F74206D65742E0075
:102B50004572726F7220313A204448542073746178
:102B6000727420636F6E646974696F6E2031206EB9
:102B70006F74206D65742E0A000000004572726F3C
:102B80007220323A20444854207374617274206376
:102B90006F6E646974696F6E2032206E6F74206D81
:102BA00065742E004572726F7220323A2044485488
:102BB00020737461727420636F6E646974696F6EE0
:102BC0002032206E6F74206D65742E0A00000000A4
:102BD0004572726F7220333A20444854206368650E
:102BE000636B73756D206572726F722E000000004A
:102BF0004572726F7220333A2044485420636865EE
:102C0000636B73756D206572726F722E0A0000001F
:102C10004572726F723A20556E7265636F676E69A6
:102C20007A656420636F646520656E636F756E748A
:102C3000657265642E0000004572726F723A20550D
:102C40006E7265636F676E697A656420636F646531
:102C500020656E636F756E74657265642E0A000080
:102C60004FF04070E1EE100A7047000000000000D5
:102C7000000000000000000000003F4000000000D5
:102C8000000000003000400030004000000009005B
:102C90000BC03D000BC03D00090018C024407FE080
:102CA000224031800000180024C01B000D803240FB
:102CB000018003801C4027401C800740004010001A
:102CC00060000000000000000000000000000000A4
:102CD0001F80204040200000402020401F80000036
:102CE0000000090006001F80060009000000040023
:102CF00004003F8004000400000000100060000099
:102D000000000000000004000400040004000400AF
:102D10000000000000400000000000000000002053
:102D200001C006003800400000001F802040204005
:102D300020401F800000000010403FC00040000005
:102D4000000018C02140224024401840000010809C
:102D50002040244024401B80000002000D00110090
:102D60003FC0014000003C80244024402440238098
:102D700000001F80244024403440038000003000C5
:102D8000200027C03800200000001B802440244081
:102D900024401B8000001C0022C0224022401F80D3
:102DA00000000000000008400000000000000000DB
:102DB00000000460000000000000000004000A00A1
:102DC00011002080404009000900090009000900A5
:102DD000000000004040208011000A00040018009C
:102DE000200023402400180000001F8020402740BE
:102DF00029401F400000004007C039000F0001C0FB
:102E0000004020403FC0244024401B8000001F8021
:102E10002040204020403080000020403FC0204023
:102E200020401F80000020403FC024402E4030C082
:102E3000000020403FC024402E00300000000F0062
:102E40001080204022403380020020403FC0040018
:102E500004003FC02040204020403FC02040204090
:102E600000000060202020203FC0200020002040E3
:102E70003FC024400B0030C0204020403FC02040D5
:102E80000040004000C03FC03C0003C03C003FC0C9
:102E9000000020403FC00C4023003FC020001F80A6
:102EA0002040204020401F80000020403FC02440A0
:102EB0002400180000001F802140214020E01FA0B6
:102EC000000020403FC02440260019C0004018C028
:102ED00024402440224031800000300020403FC088
:102EE00020403000000020003F80004000403F8034
:102EF000200020003E0001C00700380020003800FC
:102F000007C03C0007C038000000204039C0060060
:102F100039C0204000002000384007C03840200061
:102F20000000304021C02640384020C00000000092
:102F300000007FE0402040200000000070000C00F6
:102F40000380004000000000402040207FE000009F
:102F500000000000200040002000000000000010E1
:102F600000100010001000100010000000004000D1
:102F7000000000000000000002800540054003C082
:102F8000004020003FC004400440038000000000D7
:102F90000380044004400640000000000380044019
:102FA00024403FC00040000003800540054003402E
:102FB0000000000004401FC0244024402000000006
:102FC00002E0055005500650042020403FC0044058
:102FD000040003C000400000044027C0004000007F
:102FE000000000100010041027E000000000204046
:102FF0003FC00140070004C00440204020403FC0C3
:1030000000400040000007C0040007C0040003C0E7
:103010000000044007C00440040003C0004000005A
:1030200003800440044003800000041007F00450B3
:10303000044003800000000003800440045007F0B7
:103040000010044007C0024004000400000000001B
:1030500006400540054004C00000000004001F8039
:10306000044000400000040007800040044007C006
:1030700000400400070004C00180060004000600B0
:1030800001C0070001C006000000044006C00100A6
:1030900006C0044000000410071004E00180060090
:1030A00004000000044005C0064004400000000089
:1030B000000004007BE04020000000000000000051
:1030C000FFF000000000000040207BE00400000052
:1030D0000000400080004000200020004000000070
:1030E00000000000000000000000000000000000E0
:1030F000000000001FCC000C0000000000000000D9
:10310000080030006000080030006000000002206D
:1031100003FC1E20022003FC1E20022000000000F1
:103120000E1811043FFF10840C78000000000F00FF
:1031300010840F3800C007781884007800000078E9
:103140000F8410C411240E9800E4008400080800C5
:103150006800700000000000000000000000000097
:103160000000000007E018182004400200000000E2
:1031700040022004181807E0000000000000024090
:10318000024001800FF001800240024000000080F8
:10319000008000800FF800800080008000000001A7
:1031A000000D000E00000000000000000000000004
:1031B000008000800080008000800080008000008F
:1031C000000C000C000000000000000000000000E7
:1031D00000060018006001800600180020000000B2
:1031E00007F0080810041004080807F000000000A9
:1031F000080408041FFC0004000400000000000094
:103200000E0C10141024104411840E0C0000000049
:103210000C1810041104110412880C700000000036
:1032200000E00320042408241FFC00240000000008
:103230001F98108411041104108810700000000001
:1032400007F00888110411041888007000000000BD
:103250001C00100010FC13001C00100000000000F7
:103260000E3811441084108411440E380000000000
:103270000700088C10441044088807F00000000084
:1032800000000000030C030C000000000000000020
:103290000000000101060000000000000000000026
:1032A00000800140022004100808100400000220E1
:1032B0000220022002200220022002200000000042
:1032C00010040808041002200140008000000000E3
:1032D0000E001200100C106C10800F00000003E0B4
:1032E0000C1813E4142417C4082807D000000004A5
:1032F000003C03C41C40074000E4001C0004100410
:103300001FFC1104110411040E880070000003E07A
:103310000C1810041004100410081C1000001004F5
:103320001FFC100410041004080807F0000010042B
:103330001FFC1104110417C4100408180000100425
:103340001FFC1104110017C010000800000003E06A
:103350000C181004100410441C78004000001004E5
:103360001FFC10840080008010841FFC10040000EB
:10337000100410041FFC10041004000000000003DF
:103380000001100110011FFE1000100000001004C9
:103390001FFC110403801464181C100400001004A6
:1033A0001FFC1004000400040004000C00001004C2
:1033B0001FFC1F0000FC1F001FFC10040000100475
:1033C0001FFC0C04030000E010181FFC100007F0A5
:1033D0000808100410041004080807F00000100486
:1033E0001FFC10841080108010800F00000007F078
:1033F000081810241024101C080A07F200001004FA
:103400001FFC1104110011C011300E0C000400004B
:103410000E1C11041084108410441C380000180085
:10342000100010041FFC1004100018000000100011
:103430001FF810040004000410041FF8100010000E
:103440001E0011E0001C007013801C0010001FC043
:10345000103C00E01F0000E0103C1FC00000100402
:10346000180C163401C001C01634180C10041000DA
:103470001C00130400FC13041C00100000000804CE
:10348000101C1064108413041C04101800000000A9
:10349000000000007FFE40024002400200000000E9
:1034A00030000C0003800060001C000300000000DE
:1034B0004002400240027FFE0000000000000000C9
:1034C00000002000400040004000200000000001FB
:1034D00000010001000100010001000100010000E5
:1034E000400040002000000000000000000000003C
:1034F0000098012401440144014400FC0004100030
:103500001FFC008801040104008800700000000016
:10351000007000880104010401040088000000001C
:10352000007000880104010411081FFC0004000061
:1035300000F8014401440144014400C800000000B7
:10354000010401040FFC1104110411001800000013
:1035500000D601290129012901C901060000100432
:103560001FFC008401000100010400FC00040000B5
:103570000104190419FC000400040000000000000C
:10358000000300010101190119FE000000001004F0
:103590001FFC0024004001B4010C010400000000E5
:1035A000100410041FFC00040004000000000104CB
:1035B00001FC0104010001FC0104010000FC010404
:1035C00001FC008401000100010400FC0004000073
:1035D00000F8010401040104010400F800000101E5
:1035E00001FF008501040104008800700000000054
:1035F0000070008801040104010501FF00010104BD
:10360000010401FC008401040100018000000000AD
:1036100000CC0124012401240124019800000000B1
:103620000100010007F8010401040000000001008E
:1036300001F8000400040004010801FC000401007A
:1036400001800170000C001001600180010001F098
:10365000010C003001C00030010C01F0010000003D
:103660000104018C00740170018C0104000001014F
:1036700001810171000E001801600180010000004D
:103680000184010C013401440184010C000000009C
:1036900000000000000001003EFC4002400200006B
:1036A000000000000000FFFF00000000000000001C
:1036B000400240023EFC010000000000000000004B
:1036C00060008000800040004000200020000000DA
:1036D00000000000000000000000000000000000EA
:1036E00000000000000000000000000000000000DA
:1036F00000000000000000000000000000000000CA
:10370000000F80380FFE380F8038000000000000E6
:1037100000000000000000000000000001000006A2
:1037200000000C00003800003100000600000C0012
:103730000038000030000000000000000000618040
:103740000067F807F98000618000618000618000F7
:1037500061800067F807F9800061800000000000C8
:103760000000000001C0E003E0F006300804180883
:103770001FFFFE040E080787F00381E00000000031
:10378000000001F000060C00040408060C7001F9AA
:10379000C0000E00003BE000EC18070808040C18FD
:1037A0000003E00000000001E00007F003F8180447
:1037B0001C0804170807E1D003C0E00023B0003C58
:1037C00008002008000010000000000000010000B8
:1037D0003100003200001C0000000000000000006A
:1037E00000000000000000000000000000000000D9
:1037F00000000000000000000000000000007F004A
:1038000001FFC00780F00C00181000042000020027
:1038100000000000002000021000040C00180780C7
:10382000F001FFC0007F0000000000000000000069
:1038300000000000000000000000420000660000E0
:103840006600003C0000180003FFC0001800003CA8
:103850000000660000660000420000000000080052
:1038600000080000080000080000080001FFC00078
:103870000800000800000800000800000800000020
:103880000000000100003100003200001C000000B8
:103890000000000000000000000000000000000028
:1038A00000000000000008000008000008000008F8
:1038B00000000800000800000800000800000800E0
:1038C00000080000000000000000000000003800B8
:1038D0000038000038000000000000000000000078
:1038E00000000000000000000000000000000006D2
:1038F00000001C000070000180000E000038000075
:10390000C0000700001C00003000000000000000A4
:1039100000007F8001FFE0038070060018040008AB
:1039200004000806001803807001FFE0007F80009B
:103930000000000000000000010008010008010074
:103940000803FFF807FFF80000080000080000085F
:1039500000000000000000000001C03802C0580450
:103960000098040118040218040418061C1803F82F
:103970001801E0F800000000000000000001C0E0B5
:1039800003C0F00400080408080408080618080327
:10399000F41801E7F00001E0000000000000000062
:1039A00000000300000D000011000061000081080C
:1039B00003010807FFF80FFFF800010800010800E5
:1039C00000000000000000E007FCD0060808061018
:1039D00008061008061008061838060FF00607C07B
:1039E000000000000000000000003F8001FFE00335
:1039F000843002081804100804100804100807187E
:103A000010030FF00007C0000000000000000000DD
:103A100003C0000700000600000600F80607F806CD
:103A2000180006E00007000006000000000000008B
:103A30000001E1E003F7F006341004180804180848
:103A4000040C08040C0806161803F3F001C1E0008A
:103A5000000000000000F80003FC300306380402F8
:103A6000080402080402080404100308F001FFC05F
:103A7000007F0000000000000000000000000000C7
:103A8000000000000000703800703800703800003E
:103A90000000000000000000000000000000000026
:103AA00000000000000000000000301A00301C0080
:103AB0000000000000000000000000000000000006
:103AC0000000000000080000140000220000410077
:103AD000008080010040020020040010080008005F
:103AE0000000000000002100002100002100002152
:103AF0000000210000210000210000210000210021
:103B00000021000000000000000000000800080480
:103B100000100200200100400080800041000022CF
:103B20000000140000080000000000000003C000B6
:103B300004C000040000080038080F3808083808DE
:103B400010000C300007E00003C00000000000007F
:103B500000003F8000FFE0038070020F10067088B5
:103B600004C088048308047F8802C09003012000F9
:103B7000FE400000080000180001F8003E0801C2E5
:103B80000007020007E20000FE00001FC80001F865
:103B900000003800000804000807FFF807FFF804D9
:103BA000080804080804080804080806180803F4AC
:103BB0001801E7F00001E0000000000000003F8075
:103BC00001FFE003807002001804000804000804EC
:103BD00000080400100600200780C0000000040058
:103BE0000807FFF807FFF8040008040008040008AD
:103BF00004001802001003807001FFE0007F8000C5
:103C0000000004000807FFF807FFF804080804088C
:103C100008040808040808043E0804000806001800
:103C200001006000000004000807FFF807FFF80427
:103C30000808040800040800040800043E00060008
:103C400000060000018000000000000000003F802E
:103C500001FFE00380700600180400080402080455
:103C600002080203F00783F00002000002000400D3
:103C70000807FFF807FFF80408080008000008001C
:103C800000080000080004080807FFF807FFF80410
:103C90000008000000000000040008040008040000
:103CA0000807FFF807FFF8040008040008040008EC
:103CB00000000000000000000000000600000700F7
:103CC000000104000104000104000307FFFE07FFD8
:103CD000FC04000004000004000004000807FFF8D2
:103CE00007FFF8040C08001800003E0004C7800518
:103CF00003C80600F8040038040018000008040097
:103D00000807FFF807FFF804000800000800000893
:103D10000000080000080000080000180000600013
:103D2000000004000807FFF807800807FC00007F78
:103D3000C00003F80007C000780007800807FFF8FC
:103D400007FFF804000804000807FFF8070008034D
:103D5000C00000E000003800001E00000700000165
:103D6000C00400F007FFF8040000000000007F809E
:103D700001FFE00380700600180400080400080634
:103D8000001803003001FFE0007F80000000040005
:103D90000807FFF807FFF8040408040400040400FF
:103DA000040400040400060C0003F80001F0000005
:103DB0000000000000007F8001FFE003807006002B
:103DC000880400880400C806003C03003E01FFE6AA
:103DD000007F8400000004000807FFF807FFF804D4
:103DE0000808040800040C00040F00040BC00610AF
:103DF000F003F03801E00800000800000001E0F8DE
:103E000003F030063010041808041808040C0804E5
:103E10000C080206180207F00781E000000001808C
:103E20000006000004000004000004000807FFF87A
:103E300007FFF80400080400000400000600000169
:103E4000800004000007FFE007FFF00400180000F6
:103E50000800000800000800000800000804001026
:103E600007FFE004000004000006000007E0000770
:103E7000FE00041FE00001F80000380001E0043EED
:103E80000007C00006000004000004000007E00076
:103E900007FFC0041FF80007C007F80007FF8004F1
:103EA0003FF80007C004F80007000004000000000D
:103EB0000004000806001807C07805F1C8003E009D
:103EC000001F800463E80780F8060018040008005B
:103ED000000004000006000007800007E008047CE2
:103EE00008001FF80007F800180804E008070000A1
:103EF000060000040000000000010008060038046D
:103F000000F80403E8040F08047C0805F00807C063
:103F10000807001804006000000000000000000016
:103F20000000000000000000003FFFFE2000022013
:103F30000002200002200002200002000000000019
:103F40000000000008000007000000C0000038006A
:103F50000006000001C000003000000E000001005B
:103F600000000000000000002000022000022000ED
:103F7000022000022000023FFFFE000000000000BF
:103F80000000000000000000000000000000000829
:103F90000000100000300000200000300000100081
:103FA0000008000000000000000000000100000107
:103FB00000000100000100000100000100000100FC
:103FC00000010000010000010000010000010000EC
:103FD0000000000000000020000020000010000091
:103FE00010000000000000000000000000000000C1
:103FF00000000000000000F00019F8001B1800226B
:1040000008002608002408002410003FF8001FF8CC
:1040100000000800001800000004000007FFF80F6F
:10402000FFF00018180010080020080020080030D9
:1040300018001FF0000FC00000000000000007C0C3
:10404000001FF000183000200800200800200800A1
:104050003C08001C10000060000000000000000090
:10406000000007C0001FF0003818002008002008DA
:1040700000200804101007FFF80FFFF000001000E8
:1040800000000000000000000007C0001FF0001248
:1040900030002218002208002208003208001E10FA
:1040A000000E20000000000000002000002008009A
:1040B000200801FFF803FFF8062008042008042068
:1040C0000807200003000000000000000000000EB0
:1040D000000E6E001FF30031B10020B10020B100CE
:1040E0003191001F13002E1E00200E003000000032
:1040F0000004000807FFF80FFFF800100800200078
:10410000002000002008003FF8001FF80000080011
:10411000000000000000000000200800200800202F
:1041200008063FF8063FF8000008000008000008F5
:10413000000000000000000000000000000003007C
:104140000003002001002001002003063FFE063F7F
:10415000FC00000000000000000000000004000857
:1041600007FFF80FFFF8000188000300002FC000D0
:1041700038F8002038002008000008000000000087
:104180000000000004000804000804000807FFF80D
:104190000FFFF80000080000080000080000000001
:1041A0000000002008003FF8003FF8001008002041
:1041B00000003FF8003FF8001008002000003FF822
:1041C000003FF8000008000000002008003FF80051
:1041D0003FF8001008001000002000002008003FF9
:1041E000F8001FF80000080000000000000007C0F1
:1041F000000FF000183000300800200800200800F0
:104200003008001830000FF00007C0000000000068
:1042100000002001003FFF003FFF001011002009B7
:10422000002008002008003038001FF0000FC000F8
:1042300000000000000007C0001FF0003818002038
:1042400008002008002009001011001FFF003FFF98
:1042500000000100000000200800200800200800E5
:104260003FF8003FF8000808001008002008002070
:1042700000003000003000000000000000000000DE
:10428000000C78001E1800330800230800210800E5
:1042900021880021980030F0003860000000000004
:1042A0000000200000200000200000FFF003FFF8C5
:1042B0000020080020080020080000300000000056
:1042C0000000000000002000003FF0007FF8000028
:1042D00018000008000008002010003FF8007FF0E0
:1042E000000010000000000000002000003000006E
:1042F0003C00003F800023F00000780000700023A5
:1043000080003C00003000002000002000003C0045
:10431000003FE00023F80000E0002700003E00001E
:104320003FE00021F80001E0003E00002000000016
:1043300000002008002008003838003E6800278070
:104340000003C8002CF800383800201800200800AE
:104350000000000000002000003003003C01003F8E
:10436000830023EC000070002380003C000020004C
:1043700000200000000000000000000000380800DD
:1043800020380020F80023E8002F88003E0800387D
:10439000080020180000700000000000000000006D
:1043A0000000000000000000000008000014001FD2
:1043B000F7FC3000062000020000000000000000B2
:1043C00000000000000000000000000000000000ED
:1043D000FFFFFF00000000000000000000000000E0
:1043E00000000000000000002000023000061FF75F
:1043F000FC001400000800000000000000000000A5
:1044000000000000000000000018000060000040F4
:104410000000400000200000100000080000040020
:10442000000400000C00001000003031323334353D
:1044300036373839414243444546403058003031E0
:1044400032333435363738396162636465664030FB
:1044500078000000744400080000002028000000DC
:10446000C40100089C440008280000203807000010
:10447000E00100080000000001020304010203043F
:10448000060708090000000000000000000000000E
:0C4490000000FFFF000000000000000022
:040000050800018965
:00000001FF
