:020000040800F2
:1000000058070020310200089D210008210900083E
:100010009921000825070008772700080000000044
:10002000000000000000000000000000992300080C
:1000300029070008000000002D220008B124000854
:100040004B0200084B0200084B0200084B0200085C
:100050004B0200084B0200084B0200084B0200084C
:100060004B0200084B0200084B0200084B0200083C
:100070004B0200084B0200084B0200084B0200082C
:100080004B0200084B0200084B0200084B0200081C
:100090004B0200084B0200084B0200084B0200080C
:1000A0004B0200084B0200084B0200084B020008FC
:1000B0004B0200084B0200084B0200084B020008EC
:1000C0004B0200084B0200084B0200084B020008DC
:1000D0004B020008592500084B0200084B0200089B
:1000E0004B0200084B0200084B0200084B020008BC
:1000F0004B0200084B0200084B0200084B020008AC
:100100004B0200084B0200084B0200084B0200089B
:100110004B0200084B0200084B0200084B0200088B
:100120004B0200084B0200084B0200084B0200087B
:100130004B0200084B0200084B0200084B0200086B
:100140004B0200084B0200084B0200084B0200085B
:100150004B0200084B0200084B0200084B0200084B
:100160004B0200084B0200084B0200084B0200083B
:100170004B0200084B0200084B0200084B0200082B
:100180004B0200084B02000800F002F800F041F8B2
:100190000AA090E8000C82448344AAF10107DA45E2
:1001A00001D100F036F8AFF2090EBAE80F0013F0F3
:1001B000010F18BFFB1A43F0010318471844000051
:1001C00038440000103A24BF78C878C1FAD85207E2
:1001D00024BF30C830C144BF04680C6070470000C1
:1001E0000023002400250026103A28BF78C1FBD840
:1001F000520728BF30C148BF0B607047782900F014
:100200007980002070471FB502F0E5FD1FBD10B5D5
:1002100010BD00F027F91146FFF7F5FF02F07CFB57
:1002200000F045F903B4FFF7F2FF03BC02F0FCFA5B
:100230000948804709480047FEE7FEE7FEE7FEE77A
:10024000FEE7FEE7FEE7FEE7FEE7FEE704480549B6
:10025000054A064B70470000B524000889010008D4
:1002600058010020580700205803002058030020A0
:10027000704700000FB4044910B503AA029800F0BB
:10028000C3F810BC5DF814FB180000202DE9F04104
:100290000E460446002020622046E168884730B3BD
:1002A000252805D0D4E901219047206A401CF2E7B7
:1002B000E168204600278847050018D0A5F14100D5
:1002C000192802D820354FF40067324629462046C7
:1002D0002760FFF793FF40B1012804D0F61D26F0F8
:1002E00007060836D8E7361DD6E72846DAE7206A3B
:1002F000BDE8F08170B504460D4621461068AFF3A5
:1003000000802188090502D50F4A7A4402E00E4A8E
:100310007A440E32002104F1240305E000F00F06B8
:100320000009965D5E54491C0028F7D1207800230F
:10033000000704D5702D02D009B1022311322046E6
:10034000BDE8704000F006B89C420000704770475E
:10035000704770472DE9F0470D469946924604468E
:1003600000F124080168880604D5E06921F0100135
:10037000216000E00120A84201DD471B00E00027CA
:10038000A1697A1902EB0900081AA0612078C00659
:1003900002D42046AFF30080002608E0D4E9012112
:1003A0001AF806009047206A401C761C20624E45D1
:1003B000F4DB2078C0060AD52046AFF3008006E0C3
:1003C000D4E9012130209047206A401C2062381E69
:1003D000A7F10107F4DC07E0D4E9012118F80500D2
:1003E0009047206A401C2062281EA5F10105F3DC1D
:1003F0002046AFF300802078000602D50220BDE839
:10040000F0870120FBE70000074B70B50D467B44E9
:1004100000F011F80446284600F020F810B14FF023
:10042000FF3070BD204670BDEB24000001694A1CFE
:1004300002610878704700B58FB0CDE90131002125
:10044000059105497944CDE9031011466846FFF747
:100450001DFF0FB000BD0000E5FFFFFF007B00F0B7
:1004600080007047754600F02BF8AE4605006946DF
:10047000534620F00700854618B020B5FFF7E6FE8A
:10048000BDE820404FF000064FF000074FF0000895
:100490004FF0000B21F00701AC46ACE8C009ACE816
:1004A000C009ACE8C009ACE8C0098D46704710B57A
:1004B0000446AFF300802046BDE81040FFF7B2BE0F
:1004C00000487047F800002021B1826842F0010224
:1004D000826003E0826822F00102826070470000BF
:1004E0000021084A1168084A1140D0E900231A4344
:1004F00083681A43C3681A431143044AC2F80413B9
:100500007047000004230140E030FCFF0020014060
:100510000146C86C80B270470246002013680B4049
:100520000BB1012000E000207047000030B502460A
:10053000002000235068104C20400D790C6844EADC
:1005400005242043506090680C4C2040D1E90354AE
:100550002C438D682C434D7944EA45042043906038
:10056000D06A20F470000C7D641EE4B2234340EA9C
:100570000350D06230BD0000FFFEFFFCFDF7FFC05E
:10058000F0B504460D4600200021092D11DDE0687C
:10059000A5F10A0606EB4607072606FA07F1884387
:1005A000A5F10A0606EB460603FA06F10843E060E9
:1005B0000CE0206905EB4507072606FA07F188439A
:1005C00005EB450603FA06F108432061072A0FDA16
:1005D000606B561E06EB86071F2606FA07F1884356
:1005E000561E06EB860605FA06F10843606322E014
:1005F0000D2A0FDA206BD61F06EB86071F2606FA98
:1006000007F18843D61F06EB860605FA06F1084374
:10061000206310E0E06AA2F10D0606EB86071F26B4
:1006200006FA07F18843A2F10D0606EB860605FAE5
:1006300006F10843E062F0BD816841F080418160CD
:1006400070472DE9F04107460C460025002608E0DA
:10065000384600F00DF80544052002F0E7F8701C5C
:10066000C6B2A642F4DBB5FBF4F080B2BDE8F0817F
:1006700010B504460723012221460848FFF780FFF2
:100680000648FFF7D9FF00BF02210448FFF744FFE7
:100690000028F9D00148FFF73BFF10BD00220140C0
:1006A00000B58DB00121202001F0C2FD012188029A
:1006B00001F0DEFD80200B9003208DF8300000203B
:1006C0008DF833000BA9154800F0BDF80121880210
:1006D00001F0DEFD00214FF4806001F0D9FD002023
:1006E00007900A9009904FF48030089007A8FFF710
:1006F000F7FE002001908DF808008DF809000390A6
:10070000059001208DF8180001A90548FFF70EFF9C
:1007100001210348FFF7D8FE0DB000BD00140240D0
:100720000022014000BFFEE77047000051B1820087
:10073000A2F1C042126842F001038200A2F1C0425D
:10074000136009E08200A2F1C0421268034B1A4014
:100750008300A3F1C0431A6070470000FEFF0F0042
:10076000D0E901121143C268114302691143426981
:10077000114382691143C2691143026A1143426AFB
:100780001143826A1143C26A1143026B114302682A
:100790009200A2F1C0421160816808290BD1016862
:1007A0008900A1F1C041096841F040020168890057
:1007B000A1F1C0410A60416B0968426B526841EA8D
:1007C0000211426B926841EA0221426B928941EA2E
:1007D0000241426B128A41EA0251426B127D41EAA8
:1007E0000261426B926911430268521C9200A2F1AD
:1007F000C0421160C16AB1F5804F1BD1816B09689D
:10080000826B526841EA0211826B926841EA0221CE
:10081000826B128A41EA0251826B127D41EA0261C7
:10082000826B9269114302689200A2F1C042C2F841
:10083000041107E06FF0704201688900A1F1C04126
:10084000C1F804217047F0B50A46002100230024B6
:1008500000BF3DE0012505FA01F3156805EA030430
:100860009C4234D105684F000326BE40B543056065
:1008700015794E00B5400668354305601579012DA0
:1008800002D01579022D16D185684F000326BE408F
:10089000B543856055794E00B5408668354385601F
:1008A000456801268E40B5434560456896798E407F
:1008B000B6B235434560C5684F000326BE40B54318
:1008C000C560D5794E00B540C6683543C560491C42
:1008D0001029BFD3F0BDF0B5002300244D07ED0E65
:1008E00002FA05F3CE1000F1200555F826504E0708
:1008F000F70E0F26BE40B543CF1000F1200646F894
:100900002750CE1000F1200555F8265045EA030483
:10091000CE1000F1200545F82640F0BD0183704758
:1009200000BFFEE770B5044600250A480088094963
:10093000498800FB01F60021084601F005FA01F0A4
:10094000F7FB00BF02E0044804806D1CB542FAD3F7
:1009500070BD0000E80000208000006C10B5044667
:100960004CB900200F4988714FF4F07008804FF4A3
:100970004870488008E001200A4988714FF44870A7
:1009800008804FF4F07048804FF4305005490881DA
:100990004FF4285048814FF42C508881002001F0FA
:1009A0006BF910BDE800002030B504460D4614492F
:1009B000488901F0A5FB201201F0AEFB10494989DE
:1009C000491C88B201F09CFBE0B201F0A5FB0C4988
:1009D000888901F095FB281201F09EFB084989895E
:1009E000491C88B201F08CFBE8B201F095FB044889
:1009F0000089044908804FF0D840A0F8802030BD1D
:100A0000E80000207E00006C2DE9F04F05460E4600
:100A100017469846DDF824A0781B401C1FFA80FB7F
:100A2000344614E02146284601F08EF901F080FB9F
:100A30004FF0000907E04FF0D840A0F880A009F17E
:100A400001001FFA80F9D945F5DB601C84B24445EA
:100A5000E8DDBDE8F08F000000B59FB00121084639
:100A600001F0F6FB0121022001F0E2FB0121082048
:100A700001F0DEFB0121102001F0DAFB0121202032
:100A800001F0D6FB0121402001F0D2FB4FF40040E1
:100A90001D9001208DF8780000208DF87A0002204A
:100AA0008DF8790001208DF87B001DA9FE48FFF725
:100AB000CAFE02208DF8780003208DF879004FF4EB
:100AC00080501D901DA9F948FFF7BDFE4FF48040EE
:100AD0001D901DA9F648FFF7B6FE4FF400401D908B
:100AE0001DA9F348FFF7AFFE01201D901DA9F04896
:100AF000FFF7A9FE02201D901DA9ED48FFF7A3FEF8
:100B000080201D901DA9EB48FFF79DFE4FF48070DB
:100B10001D901DA9E748FFF796FE4FF400701D9049
:100B20001DA9E448FFF78FFE4FF480601D901DA9BA
:100B3000E048FFF788FE4FF400601D901DA9DD48D6
:100B4000FFF781FE4FF480501D901DA9D948FFF793
:100B50007AFE4FF400501D901DA9D648FFF773FE92
:100B60004FF480401D901DA9D248FFF76CFE4FF452
:100B700000401D901DA9CF48FFF765FE4FF480701F
:100B80001D901DA9CA48FFF75EFE4FF400701D902E
:100B90001DA9C748FFF757FE4FF480601D901DA99F
:100BA000C348FFF750FE4FF480501D901DA9C24866
:100BB000FFF749FE10201D901DA9BD48FFF743FE19
:100BC00020201D901DA9BA48FFF73DFE0C220021F0
:100BD000B748FFF780FE0C220121B548FFF77BFEE6
:100BE0000C220421B248FFF776FE0C220521B04802
:100BF000FFF771FE0C220821AD48FFF76CFE0C22B6
:100C00000921AB48FFF767FE0C220A21A848FFF72D
:100C100062FE0C220E21A648FFF75DFE0C220F217A
:100C2000A348FFF758FE0C220721A248FFF753FE06
:100C30000C2208219F48FFF74EFE0C2209219D48F7
:100C4000FFF749FE0C220A219A48FFF744FE0C22C6
:100C50000B219848FFF73FFE0C2211469548FFF7FD
:100C60003AFE0C220D219348FFF735FE0C220E218F
:100C70009048FFF730FE0C220F218E48FFF72BFE25
:100C80000C2211468948FFF726FE0C2211468A489D
:100C9000FFF721FE10200790002008903C200990CB
:100CA00000200A900B900C900D90032000900020E3
:100CB000019003200290002003900490059006907C
:100CC00006200E9000200F90109010201190002010
:100CD000129014901390159016904FF48050179026
:100CE000002018904FF48040199000201A9007A817
:100CF0001B90CDF870D00EA8FFF732FD0121062021
:100D0000FFF714FD642001F091FD45F210506B498E
:100D10008880084681886AA0FFF7ACFA642001F059
:100D200085FD55214FF4704001F00CFAAA214FF2D5
:100D3000010001F007FA52214FF2020001F002FA1D
:100D400008214FF2030001F0FDF901214FF20400E8
:100D500001F0F8F90D214FF4304001F0F3F90D21C5
:100D60004BF2010001F0EEF90D214BF2020001F00F
:100D7000E9F934214FF4364001F0E4F934214BF223
:100D8000016001F0DFF934214BF2026001F0DAF981
:100D90000D214FF4314001F0D5F90D214BF2011036
:100DA00001F0D0F90D214BF2021001F0CBF9342102
:100DB0004FF4374001F0C6F934214BF2017001F0D5
:100DC000C1F934214BF2027001F0BCF900214FF45B
:100DD000324001F0B7F900214BF2012001F0B2F9E5
:100DE00000214BF2022001F0ADF924214FF43840EC
:100DF00001F0A8F924214BF6010001F0A3F9242108
:100E00004BF6020001F09EF901214FF43F4001F042
:100E100099F90F214FF4334001F094F90F214BF26F
:100E2000013001F08FF90F214BF2023001F08AF905
:100E300034214FF4394001F085F934214BF601108B
:100E400001F080F934214BF6021001F07BF9082102
:100E50004FF4354001F076F908214BF2015001F0D2
:100E600071F908214BF2025001F06CF903214FF4A3
:100E7000424001F067F924214FF43A4001F062F951
:100E800024214BF6012001F05DF924214BF60220CC
:100E900001F058F900214FF43C4001F053F978215A
:100EA0004BF6014012E00000000402400014024032
:100EB000000C02400010024000180240E800002030
:100EC0004C43442049443A25780D0A0001F03AF990
:100ED00000214BF6024001F035F900214FF43D406E
:100EE00001F030F978214BF6015001F02BF9002187
:100EF0004BF6025001F026F900214FF43E4001F07C
:100F000021F964214BF6016001F01CF900214FF436
:100F1000514001F017F933214DF2011001F012F99F
:100F200000214DF2021001F00DF934214DF20310B1
:100F300001F008F900214DF2041001F003F93A2103
:100F40004DF2051001F0FEF800214DF2061001F0FF
:100F5000F9F84A214DF2071001F0F4F800214DF2A2
:100F6000081001F0EFF85C214DF2091001F0EAF8E9
:100F700000214DF20A1001F0E5F881214DF20B102D
:100F800001F0E0F800214DF20C1001F0DBF8A62191
:100F90004DF20D1001F0D6F800214DF20E1001F0C7
:100FA000D1F8E5214DF20F1001F0CCF801214DF2FE
:100FB000101001F0C7F813214DF2111001F0C2F822
:100FC00001214DF2121001F0BDF854214DF2131021
:100FD00001F0B8F801214DF2141001F0B3F88221AC
:100FE0004DF2151001F0AEF801214DF2161001F08E
:100FF000A9F8CA214DF2171001F0A4F802214DF210
:10100000181001F09FF800214DF2191001F09AF824
:1010100002214DF21A1001F095F801214DF21B103A
:1010200001F090F802214DF21C1001F08BF83421F0
:101030004DF21D1001F086F802214DF21E1001F054
:1010400081F867214DF21F1001F07CF802214DF26A
:10105000201001F077F884214DF2211001F072F890
:1010600002214DF2221001F06DF8A4214DF223105F
:1010700001F068F802214DF2241001F063F8B72165
:101080004DF2251001F05EF802214DF2261001F01C
:1010900059F8CF214DF2271001F054F802214DF2FA
:1010A000281001F04FF8DE214DF2291001F04AF826
:1010B00002214DF22A1001F045F8F2214DF22B10D9
:1010C00001F040F802214DF22C1001F03BF8FE2116
:1010D0004DF22D1001F036F803214DF22E1001F0E3
:1010E00031F810214DF22F1001F02CF803214DF2B0
:1010F000301001F027F833214DF2311001F022F8C1
:1011000003214DF2321001F01DF86D214DF2331024
:1011100001F018F800214FF4524001F013F8332188
:101120004DF2012001F00EF800214DF2022001F0F5
:1011300009F834214DF2032001F004F800214DF2AA
:10114000042000F0FFFF3A214DF2052000F0FAFFE5
:1011500000214DF2062000F0F5FF4A214DF2072054
:1011600000F0F0FF00214DF2082000F0EBFF5C21C1
:101170004DF2092000F0E6FF00214DF20A2000F0B8
:10118000E1FF81214DF20B2000F0DCFF00214DF248
:101190000C2000F0D7FFA6214DF20D2000F0D2FF69
:1011A00000214DF20E2000F0CDFFE5214DF20F2081
:1011B00000F0C8FF01214DF2102000F0C3FF132101
:1011C0004DF2112000F0BEFF01214DF2122000F07F
:1011D000B9FF54214DF2132000F0B4FF01214DF26C
:1011E000142000F0AFFF82214DF2152000F0AAFF7D
:1011F00001214DF2162000F0A5FFCA214DF2172063
:1012000000F0A0FF02214DF2182000F09BFF00210A
:101210004DF2192000F096FF02214DF21A2000F045
:1012200091FF01214DF21B2000F08CFF02214DF2B5
:101230001C2000F087FF34214DF21D2000F082FFBA
:1012400002214DF21E2000F07DFF67214DF21F208C
:1012500000F078FF02214DF2202000F073FF84217E
:101260004DF2212000F06EFF02214DF2222000F00D
:1012700069FFA4214DF2232000F064FF02214DF20A
:10128000242000F05FFFB7214DF2252000F05AFF27
:1012900002214DF2262000F055FFCF214DF22720EC
:1012A00000F050FF02214DF2282000F04BFFDE211C
:1012B0004DF2292000F046FF02214DF22A2000F0D5
:1012C00041FFF2214DF22B2000F03CFF02214DF2B4
:1012D0002C2000F037FFFE214DF22D2000F032FFD0
:1012E00003214DF22E2000F02DFF10214DF22F2072
:1012F00000F028FF03214DF2302000F023FF3321BE
:101300004DF2312000F01EFF03214DF2322000F09B
:1013100019FF6D214DF2332000F014FF00214FF42E
:10132000534000F00FFF33214DF2013000F00AFF6F
:1013300000214DF2023000F005FF34214DF2033060
:1013400000F000FF00214DF2043000F0FBFE3A21D6
:101350004DF2053000F0F6FE00214DF2063000F0AF
:10136000F1FE4A214DF2073000F0ECFE00214DF273
:10137000083000F0E7FE5C214DF2093000F0E2FE9B
:1013800000214DF20A3000F0DDFE81214DF20B30DC
:1013900000F0D8FE00214DF20C3000F0D3FEA62163
:1013A0004DF20D3000F0CEFE00214DF20E3000F077
:1013B000C9FEE5214DF20F3000F0C4FE01214DF2CF
:1013C000103000F0BFFE13214DF2113000F0BAFED4
:1013D00001214DF2123000F0B5FE54214DF21330D0
:1013E00000F0B0FE01214DF2143000F0ABFE82217E
:1013F0004DF2153000F0A6FE01214DF2163000F03E
:10140000A1FECA214DF2173000F09CFE02214DF2E0
:10141000183000F097FE00214DF2193000F092FED6
:1014200002214DF21A3000F08DFE01214DF21B30E9
:1014300000F088FE02214DF21C3000F083FE3421C2
:101440004DF21D3000F07EFE02214DF21E3000F004
:1014500079FE67214DF21F3000F074FE02214DF23B
:10146000203000F06FFE84214DF2213000F06AFE42
:1014700002214DF2223000F065FEA4214DF223300E
:1014800000F060FE02214DF2243000F05BFEB72137
:101490004DF2253000F056FE02214DF2263000F0CC
:1014A00051FECF214DF2273000F04CFE02214DF2CB
:1014B000283000F047FEDE214DF2293000F042FED8
:1014C00002214DF22A3000F03DFEF2214DF22B3088
:1014D00000F038FE02214DF22C3000F033FEFE21E8
:1014E0004DF22D3000F02EFE03214DF22E3000F093
:1014F00029FE10214DF22F3000F024FE03214DF281
:10150000303000F01FFE33214DF2313000F01AFE72
:1015100003214DF2323000F015FE6D214DF23330D3
:1015200000F010FE00214FF4544000F00BFE332178
:101530004DF2014000F006FE00214DF2024000F0A5
:1015400001FE34214DF2034000F0FCFD00214DF27C
:10155000044000F0F7FD3A214DF2054000F0F2FDA5
:1015600000214DF2064000F0EDFD4A214DF207400A
:1015700000F0E8FD00214DF2084000F0E3FD5C21A1
:101580004DF2094000F0DEFD00214DF20A4000F06E
:10159000D9FD81214DF20B4000F0D4FD00214DF228
:1015A0000C4000F0CFFDA6214DF20D4000F0CAFD29
:1015B00000214DF20E4000F0C5FDE5214DF20F4037
:1015C00000F0C0FD01214DF2104000F0BBFD1321E1
:1015D0004DF2114000F0B6FD01214DF2124000F035
:1015E000B1FD54214DF2134000F0ACFD01214DF24C
:1015F000144000F0A7FD82214DF2154000F0A2FD3D
:1016000001214DF2164000F09DFDCA214DF2174018
:1016100000F098FD02214DF2184000F093FD0021EA
:101620004DF2194000F08EFD02214DF21A4000F0FB
:1016300089FD01214DF21B4000F084FD02214DF295
:101640001C4000F07FFD34214DF21D4000F07AFD7A
:1016500002214DF21E4000F075FD67214DF21F4042
:1016600000F070FD02214DF2204000F06BFD84215E
:101670004DF2214000F066FD02214DF2224000F0C3
:1016800061FDA4214DF2234000F05CFD02214DF2EA
:10169000244000F057FDB7214DF2254000F052FDE7
:1016A00002214DF2264000F04DFDCF214DF22740A2
:1016B00000F048FD02214DF2284000F043FDDE21FC
:1016C0004DF2294000F03EFD02214DF22A4000F08B
:1016D00039FDF2214DF22B4000F034FD02214DF294
:1016E0002C4000F02FFDFE214DF22D4000F02AFD90
:1016F00003214DF22E4000F025FD10214DF22F4028
:1017000000F020FD03214DF2304000F01BFD33219D
:101710004DF2314000F016FD03214DF2324000F051
:1017200011FD6D214DF2334000F00CFD00214FF40E
:10173000554000F007FD33214DF2015000F002FD4D
:1017400000214DF2025000F0FDFC34214DF2035017
:1017500000F0F8FC00214DF2045000F0F3FC3A21B7
:101760004DF2055000F0EEFC00214DF2065000F065
:10177000E9FC4A214DF2075000F0E4FC00214DF253
:10178000085000F0DFFC5C214DF2095000F0DAFC5B
:1017900000214DF20A5000F0D5FC81214DF20B5092
:1017A00000F0D0FC00214DF20C5000F0CBFCA62143
:1017B0004DF20D5000F0C6FC00214DF20E5000F02D
:1017C000C1FCE5214DF20F5000F0BCFC01214DF2AF
:1017D000105000F0B7FC13214DF2115000F0B2FC94
:1017E00001214DF2125000F0ADFC54214DF2135086
:1017F00000F0A8FC01214DF2145000F0A3FC82215E
:101800004DF2155000F09EFC01214DF2165000F0F3
:1018100099FCCA214DF2175000F094FC02214DF2C0
:10182000185000F08FFC00214DF2195000F08AFC96
:1018300002214DF21A5000F085FC01214DF21B509F
:1018400000F080FC02214DF21C5000F07BFC3421A2
:101850004DF21D5000F076FC02214DF21E5000F0BA
:1018600071FC67214DF21F5000F06CFC02214DF21B
:10187000205000F067FC84214DF2215000F062FC02
:1018800002214DF2225000F05DFCA4214DF22350C4
:1018900000F058FC02214DF2245000F053FCB72117
:1018A0004DF2255000F04EFC02214DF2265000F082
:1018B00049FCCF214DF2275000F044FC02214DF2AB
:1018C000285000F03FFCDE214DF2295000F03AFC98
:1018D00002214DF22A5000F035FCF2214DF22B503E
:1018E00000F030FC02214DF22C5000F02BFCFE21C8
:1018F0004DF22D5000F026FC03214DF22E5000F049
:1019000021FC10214DF22F5000F01CFC03214DF260
:10191000305000F017FC33214DF2315000F012FC32
:1019200003214DF2325000F00DFC6D214DF2335089
:1019300000F008FC00214FF4564000F003FC332176
:101940004DF2016000F0FEFB00214DF2026000F05C
:10195000F9FB34214DF2036000F0F4FB00214DF25D
:10196000046000F0EFFB3A214DF2056000F0EAFB65
:1019700000214DF2066000F0E5FB4A214DF20760C0
:1019800000F0E0FB00214DF2086000F0DBFB5C2181
:101990004DF2096000F0D6FB00214DF20A6000F024
:1019A000D1FB81214DF20B6000F0CCFB00214DF208
:1019B0000C6000F0C7FBA6214DF20D6000F0C2FBE9
:1019C00000214DF20E6000F0BDFBE5214DF20F60ED
:1019D00000F0B8FB01214DF2106000F0B3FB1321C1
:1019E0004DF2116000F0AEFB01214DF2126000F0EB
:1019F000A9FB54214DF2136000F0A4FB01214DF22C
:101A0000146000F09FFB82214DF2156000F09AFBFC
:101A100001214DF2166000F095FBCA214DF21760CE
:101A200000F090FB02214DF2186000F08BFB0021CA
:101A30004DF2196000F086FB02214DF21A6000F0B1
:101A400081FB01214DF21B6000F07CFB02214DF275
:101A50001C6000F077FB34214DF21D6000F072FB3A
:101A600002214DF21E6000F06DFB67214DF21F60F8
:101A700000F068FB02214DF2206000F063FB84213E
:101A80004DF2216000F05EFB02214DF2226000F079
:101A900059FBA4214DF2236000F054FB02214DF2CA
:101AA000246000F04FFBB7214DF2256000F04AFBA7
:101AB00002214DF2266000F045FBCF214DF2276058
:101AC00000F040FB02214DF2286000F03BFBDE21DC
:101AD0004DF2296000F036FB02214DF22A6000F041
:101AE00031FBF2214DF22B6000F02CFB02214DF274
:101AF0002C6000F027FBFE214DF22D6000F022FB50
:101B000003214DF22E6000F01DFB10214DF22F60DD
:101B100000F018FB03214DF2306000F013FB33217D
:101B20004DF2316000F00EFB03214DF2326000F007
:101B300009FB6D214DF2336000F004FB55214FF499
:101B4000704000F0FFFAAA214FF2010000F0FAFA0B
:101B500052214FF2020000F0F5FA08214FF2030083
:101B600000F0F0FA00214FF2040000F0EBFACC2173
:101B70004FF4314000F0E6FA00214BF2011000F082
:101B8000E1FA05214FF4364000F0DCFA70214FF401
:101B9000374000F0D7FA70214BF2017000F0D2FA12
:101BA00001214FF4384000F0CDFA03214BF601003B
:101BB00000F0C8FA03214BF6020000F0C3FA03213B
:101BC0004BF6030000F0BEFA02214FF43C4000F057
:101BD000B9FA00214BF6014000F0B4FA00214BF6AF
:101BE000024000F0AFFAD0214FF4494000F0AAFAC9
:101BF00002214CF6011000F0A5FA50214CF602101B
:101C000000F0A0FA50214CF6031000F09BFA50218E
:101C10004CF6041000F096FA00214FF4545000F0F6
:101C200091FA55214FF4685000F08CFA4FF4885027
:101C300000F066FA782000F015FE4FF4245000F012
:101C40005FFA0020FEF78AFE0120044908604FF683
:101C5000FF70FEF767FE1FB000BD0000BC8240426F
:101C600010B50246012000E050430B1EA1F1010413
:101C7000E1B2F9D110BD000070B504460023002682
:101C800030488079012818D1082C15D2DFE804F0FB
:101C90000406080A0C0E101206240DE007240BE0BF
:101CA000042409E0052407E0012405E0002403E002
:101CB000032401E0022400BF00BF082C1CD2DFE88F
:101CC00004F00406090C0F12151800BF14E043F0CD
:101CD000800311E043F040030EE043F0C0030BE04B
:101CE00043F0200308E043F0600305E043F0A00365
:101CF00002E043F0E00300BF00BF4FF4585619461E
:101D0000304600F01FFA03F0200068B10D4800884B
:101D10000C494988884214DA0A48058840880949EC
:101D20000880084645800CE0064800880549498837
:101D3000884206DD03480588408802490880084635
:101D4000458070BDE800002010B502460C461049E1
:101D5000488900F0D5F9101200F0DEF90C494989E4
:101D6000491C88B200F0CCF9D0B200F0D5F908498E
:101D7000888900F0C5F9201200F0CEF9044989895C
:101D8000491C88B200F0BCF9E0B200F0C5F910BD02
:101D9000E80000202DE9F84F80460E4617461C4605
:101DA000B3462046E31704EB5373DB1021464FEA9A
:101DB000E47C04EB5C7C4FEAEC0CA4EBCC0CBCF1B7
:101DC000000F02D04FF0010C01E04FF0000C634413
:101DD000224604EBD27C4FEA6C0C03FB0CF3DBB223
:101DE0000093A7F12000C7B2002558E00C2C04D0C6
:101DF000102C0AD0182C16D10DE007EB47002A4909
:101E000001EB800010F805900FE0284800EB071068
:101E100010F8059009E007EBC700254901EB8000A9
:101E200010F8059001E0BDE8F88F00BF4FF0000A00
:101E30002FE009F0800030B11E480288314640464C
:101E4000FEF7B2FD07E00A9828B91B480288314620
:101E50004046FEF7A9FD4FEA49604FEA1069701C41
:101E600086B216484088B04200DCDCE7A6EB0B00E7
:101E7000A0420AD15E4608F101001FFA80F80F481F
:101E80000088404500DCCEE706E00AF1010000F0E2
:101E9000FF0ABAF1080FCCDB00BF681CC5B200987E
:101EA0008542A3DB00BFBEE7EA2D00085E320008D2
:101EB0004E3800081C0000201E000020E800002012
:101EC0002DE9F84705468846F0EE400A1446B7EE7D
:101ED000001AC0EE811ABCEEE11A11EE107A01EE82
:101EE000107AB8EE411A30EEC11AB0EE410A9FEDF9
:101EF000461A20EE011AB0EE410AB7EE001AC0EE03
:101F0000011ABCEEE11A11EE100A1FFA80F92346FD
:101F10003A464146284600F07BF80646012006FB7B
:101F200004FA0AEBDA7105EB6101009088B22346EE
:101F30002E224146FFF72EFFB2EE041AB4EEC10A7C
:101F4000F1EE10FA2BD20120711C01FB04FA0AEB0E
:101F5000DA7105EB6101009088B2234630224146D8
:101F6000FFF718FF0120B11C01FB04FA0AEBDA713C
:101F700005EB6101009088B2234630224146FFF70D
:101F800009FFF11C01FB04FA0AEBDA7105EB6101B0
:101F900088B223464A46414600F03AF830E09FEDC9
:101FA0001B1AB4EEC10AF1EE10FA1CD20120711C0A
:101FB00001FB04FA0AEBDA7105EB6101009088B2CB
:101FC000234630224146FFF7E5FEB11C01FB04FA2F
:101FD0000AEBDA7105EB610188B223464A464146B5
:101FE00000F016F80CE0711C01FB04FA0AEBDA7140
:101FF00005EB610188B223464A46414600F008F8E5
:10200000301DC0B2BDE8F88700007A440000C84225
:102010002DE9FF478046894615461E4600240027C5
:10202000092410E0E1B20A20FFF71AFEB5FBF0F038
:1020300001A90855E1B20A20FFF712FEB5FBF0F145
:1020400000FB1155641E002CECDA092405E001A800
:10205000005D00B904B902E0641E002CF7DA00BF8D
:10206000E7B2002412E00120B24606EBDA71491013
:1020700001FB0481009088B2391B01AB595C3031FF
:10208000CAB233464946FFF785FE641CBC42EADD0E
:10209000781CC0B204B0BDE8F0872DE9F8470446CB
:1020A0000D4690469946DDE9096704F0FF0A08EB02
:1020B00004001FFA80F809EB05001FFA80F916E00A
:1020C000444502DB5446A81985B24D4500DB14E0B7
:1020D000002000903A78334629462046FFF75AFE02
:1020E000304606EBD07104EB61018CB27F1C38786E
:1020F0007E2802DC38782028E2DA00BFBDE8F887C5
:1021000001B5BDF800000090BDF80000014908804D
:1021100008BD00007E00006C01B5BDF80000009015
:10212000BDF800000149088008BD00008000006C77
:10213000024800890249088070470000E80000203A
:102140007E00006C034A10804FF0D842A2F8801045
:10215000704700007E00006C1CB50121202000F0BB
:1021600067F84FF4C060009001208DF80400002053
:102170008DF8060003208DF8050001208DF807007A
:1021800069460448FEF75FFB4FF4C0610148FEF763
:10219000C5FB1CBD0014024000BFFEE770470000F5
:1021A00070B5002100230F22C4781CB3174C24689B
:1021B00004F4E064C4F5E064C4F30721C1F104044D
:1021C000E3B20A4144789C40E1B284781440214350
:1021D0000C07210E0E4C05786155047804F01F059C
:1021E0000124AC4005786D11AD0005F1E025C5F87E
:1021F000004109E0047804F01F050124AC40054DBE
:102200000678761145F8264070BD00000CED00E020
:1022100000E400E080E100E002490143024A11606D
:10222000704700000000FA050CED00E07047000068
:1022300029B1064A12680243044B1A6004E0034ABB
:1022400012688243014B1A60704700003038024028
:1022500029B1064A12680243044B1A6004E0034A9B
:1022600012688243014B1A60704700003838024000
:1022700029B1064A12680243044B1A6004E0034A7B
:1022800012688243014B1A607047000044380240D4
:1022900029B1064A12680243044B1A6004E0034A5B
:1022A00012688243014B1A607047000024380240D4
:1022B000F0B5002100220024022500260223324F1F
:1022C0003F6807F00C0121B1042905D0082937D156
:1022D00005E02E4F076036E02D4F076033E02A4FB0
:1022E0003F1F3F68C7F38056274F3F1F3F6807F0E7
:1022F0003F036EB1264FB7FBF3F7DFF88CC0ACF1AC
:10230000040CDCF800C0CCF3881C07FB0CF40CE0D8
:102310001E4FB7FBF3F7DFF870C0ACF1040CDCF82C
:1023200000C0CCF3881C07FB0CF4174F3F1F3F681D
:10233000C7F301477F1C7D00B4FBF5F7076002E09F
:10234000124F076000BF00BF0F4F3F6807F0F0015A
:102350000909104F7A5C0768D74047600A4F3F6809
:1023600007F4E051890A0B4F7A5C4768D7408760D1
:10237000054F3F6807F46041490B064F7A5C476898
:10238000D740C760F0BD0000083802400024F400C8
:1023900000127A0000000020704700000CB50020F9
:1023A000019000903448006840F480303249086061
:1023B00000BF3148006800F4003000900198401CD4
:1023C0000190009818B90198B0F5A04FF1D12A48B2
:1023D000006800F4003010B10120009001E00020FE
:1023E00000900098012846D123484030006840F012
:1023F00080502149403108602048006840F4404046
:102400001E4908601C48083000681B4908310860F4
:102410000846006840F4004008600846006840F440
:10242000A05008601648091F0860081F006840F0A7
:102430008070091F086000BF0F48006800F000703E
:102440000028F9D040F205700E4908600A480830AB
:10245000006820F003000849083108600846006859
:1024600040F00200086000BF03480830006800F038
:102470000C000828F8D10CBD003802400070004064
:1024800008544007003C0240042808D14FF0E021E6
:10249000096941F004014FF0E022116107E04FF0BB
:1024A000E021096921F004014FF0E0221161704739
:1024B0007047000010B51548006840F470001349DB
:1024C00008601348006840F00100114908600020CE
:1024D0000F49083108600E4800680E4908400C4951
:1024E00008600D48091D0860081F006820F480205E
:1024F000091F0860002006490C310860FFF74EFFF5
:102500004FF0006001498039086010BD88ED00E09F
:1025100000380240FFFFF6FE1030002410B50446DC
:102520006FF00400FFF7B0FFE11704EB5171C1F346
:10253000C701074A11701046007800EB4001C1EB5B
:10254000C0104FF6FF7101EAC0000249088010BDBB
:10255000100000201200002010B540F225511D4847
:1025600000F04AF810B31B4800F000F9C4B21A4852
:10257000008800F40040C8B91748008800F4804083
:1025800060B10A2C03D000201349088020E01248D3
:10259000008840F400401049088019E00D2C06D155
:1025A0000D48008840F480400B49088010E00A483C
:1025B0000088C0F30D0009490C5407480088401CEE
:1025C0000549088008460088C72801DD00200880EA
:1025D00010BD000000100140140000202000002069
:1025E00021B1828942F40052828104E082894DF651
:1025F000FF731A408281704770B5024600240023A1
:102600000025002040F66A16B14200D100BFC1F398
:10261000421501F01F03012606FA03F3012D02D132
:102620009689334006E0022D02D1168A334001E03C
:10263000968A33400C12012606FA04F416883440B8
:1026400013B10CB1012000E0002070BDF0B50346CD
:10265000002400260025002040F66A17B94200D168
:1026600000BF1846C1F3421401F01F06012707FA04
:1026700006F5012C01D10C3004E0022C01D1103000
:1026800000E014301AB107682F43076002E00768C2
:10269000AF430760F0BD00002DE9FF4705460E4639
:1026A0000024A14600BFA046B08900B100BF2C8A1B
:1026B00024F44054F08804432C82AC8941F20C602D
:1026C0008443B08831890843718908430443AC814D
:1026D000AC8A24F44074B0890443AC826846FFF7A6
:1026E000E7FD2048854202D01F48854202D1DDF82F
:1026F0000C9001E0DDF80890A88900F4004040B19A
:1027000009EBC90000EB091031684900B0FBF1F793
:1027100007E009EBC90000EB091031688900B0FB44
:10272000F1F76420B7FBF0F004012009642101FBFC
:102730001078A88900F4004040B1322000EBC800B6
:10274000B0FBF1F000F00700044308E0322000EB9A
:1027500008106421B0FBF1F000F00F0004432C815D
:10276000BDE8FF8700100140001401400146888841
:10277000C0F30800704700BFFEE7000010B588B046
:10278000044601210846FFF753FD01211020FFF701
:102790006FFD4FF4C060069002208DF81C008DF88C
:1027A0001D0000208DF81E0001208DF81F0006A9D5
:1027B0001B48FEF748F8072209211948FEF78BF855
:1027C00007220A211648FEF786F802940020ADF889
:1027D0000C00ADF80E00ADF81000ADF814000C20A0
:1027E000ADF8120002A90F48FFF756FF01210D486E
:1027F000FFF7F6FE25208DF8040003208DF8050074
:102800008DF8060001208DF8070001A8FFF7C8FC2D
:10281000012240F225510348FFF718FF08B010BD10
:10282000000002400010014000BF704770B5044630
:102830004FF4077094FBF0F0C6B24FF4077094FBAE
:10284000F0F100FB114085B205E04FF4077000F095
:102850002FF8701EC6B2002EF7D115B1284600F031
:1028600027F870BD0146114A12784A434FF0E02321
:102870005A6100229A611A46126942F001021A61F5
:1028800000BF4FF0E022106900F001021AB100F41D
:102890008032002AF5D04FF0E022126922F00102C6
:1028A0004FF0E0231A6100229A6170471000002067
:1028B0000146114A12884A434FF0E0235A61002230
:1028C0009A611A46126942F001021A6100BF4FF084
:1028D000E022106900F001021AB100F48032002AEF
:1028E000F5D04FF0E022126922F001024FF0E02310
:1028F0001A6100229A6170471200002000BF054A49
:10290000128802F04002002AF9D0C2B2014B9A802C
:1029100070470000001001402DED068B82B04FF48F
:10292000A060FFF779FCA820FFF7F8FD4FF4E13035
:10293000FFF724FFFFF710FCFEF78EF8FDF7B0FE5F
:102940004FF47840414908804FF6FF7040490880B5
:1029500008460088FDF7E6FF3EA018211E234FF42D
:10296000DC72CDE9001032215020FFF796FB1F20CA
:10297000364908803EA018211E234FF4E172CDE9AC
:10298000001064211846FFF788FB3CA018211E2385
:102990004FF4E172CDE9001082211846FFF77DFB6C
:1029A00053E015210520FDF74CFE04462848008819
:1029B00082234FF4F07264210090AE20FEF724F8D9
:1029C000182322466421AE20FFF722FB00EE104AB6
:1029D000B8EE400A10EE100A00F08CF941EC1A0B28
:1029E0009FED290B53EC102B00F086F841EC190BEE
:1029F00000F050F808EE100A15480088A0234FF4A4
:102A0000F072822100908A20FDF7FEFF1822B0EEBE
:102A1000480A82218A20FFF753FA0546012005EB78
:102A200045018A22009002EB810018235622822160
:102A3000FFF7B0F91648006808B9012000E000204F
:102A400013490860FA20FFF7F1FEAAE71C000020F6
:102A50001E00002050686F746F73656E736974692F
:102A6000766520726573697374616E63650000003A
:102A7000414443204E756D6265723A00566F6C7426
:102A80006167653A000000006666666666664A3FF2
:102A9000A482424221F00042A2F16052B2F5801FAE
:102AA00001F0004328BFD2F17F6C0BD95FEA001C14
:102AB00043EAC20242EB507018BF704728BF20F0B3
:102AC00001007047B2F5801FBCBF184670474FEA3F
:102AD000410C1CF5001F02D2084600F081B970B508
:102AE00000F0B4F800000089FFF7F6BF4FF0004097
:102AF000A0F5800070470000DFF848C170B51CEAFF
:102B0000111E1EBF1CEA13159EEA0C0F95EA0C0F4E
:102B100000F06F8081EA030423EA4C134EEAD47E6E
:102B200021EA4C1141F4801143F48013AE44A1FB1F
:102B3000024CA0FB0365AEF17F7E361955EB0C0508
:102B4000A1FB034C4CF10003A0FB021C16EB0C068E
:102B5000654153F10003094218BF46F0010613F422
:102B6000007F0BD14FEA03314FEA0530340341EACD
:102B7000155140EA16506FF003020AE04FEAC321F4
:102B80004FEAC520F40241EA555140EA56506FF031
:102B9000020202EB2E4201EB025585EACE710AD009
:102BA0005FEA440C18BF24F0004450F1000041F1EA
:102BB000000120EAD47040F2FE7C624500D270BD74
:102BC000A84214BF4FF080444FF04044002E08BF8D
:102BD0000024BEF1806FA8BFA1F1C041BDE87040E4
:102BE00080F282804FF0000001F1C04101F000410D
:102BF00070479EEA0C0F0CEA131518BF95EA0C0FEC
:102C000006D04FF0000081EA030E0EF0004170BDC7
:102C100000F01CF88900013E00F007B800F009B888
:102C20004FEA430C5FEA5C5C08D081EA030100F0E4
:102C30005BB84FEA410C5FEA5C5CF6D14FF00000F4
:102C4000014970470000FF070000F87F0EF1020EF7
:102C50002EF0030E5EF8046B364205D4012A43EBD6
:102C6000030515F5001F12D8012841EB010C1CF5D6
:102C7000001F0CD80ED14FEAD17C15F5001F0CEBCC
:102C80004C0C0CF1020C08BF4CEBD37C04E04FF071
:102C9000080C01E04FEAD37C0CEB4C0526FA05F654
:102CA00006F00706B6F1040C06D20EEB860CBDE862
:102CB00070404CF0010C6047DFE80CF0090B020299
:102CC0004FF000414FF00000A1F5002170BD194602
:102CD0001046012851EB010418BFD4F5001484BF3D
:102CE000002001F0004170BD0808A0F500114FEA76
:102CF0003101704743004FEAD30C4FEA3C0C43408C
:102D00001FBF40070CF1605113F0FE4F70471CF0DD
:102D1000006F03D100200CF0004170470CF000431D
:102D200043EA507010B540EACC0000F00EF800BF46
:102D3000000000924FEA0001FFF7D6BF4FF00041BC
:102D40004FF00000A1F5002170470EF1020E2EF0A9
:102D5000030E5EF8044B244204D44FEA4102B2F160
:102D60007F4F11D84FEA4003B3F17F4F0CD80ED1FB
:102D70004FEAD07CB2F17F4F0CEB4C0C0CF1020C03
:102D800008BF4CEBD17C04E04FF0080C01E04FEAA7
:102D9000D17C0CEB4C0324FA03F404F00704B4F1E7
:102DA000040C06D20EEB840CBDE810404CF0010C74
:102DB0006047DFE80CF0070802024FF00040A0F582
:102DC000800010BD0846420018BFD2F1807288BF53
:102DD00000F0004010BD4FF04070E1EE100A704767
:102DE000FF2141EAD050C0057047000000000000FC
:102DF000000000000000000000003F400000000054
:102E000000000000300040003000400000000900D9
:102E10000BC03D000BC03D00090018C024407FE0FE
:102E2000224031800000180024C01B000D80324079
:102E3000018003801C4027401C8007400040100098
:102E40006000000000000000000000000000000022
:102E50001F80204040200000402020401F800000B4
:102E60000000090006001F800600090000000400A1
:102E700004003F8004000400000000100060000017
:102E8000000000000000040004000400040004002E
:102E900000000000004000000000000000000020D2
:102EA00001C006003800400000001F802040204084
:102EB00020401F800000000010403FC00040000084
:102EC000000018C02140224024401840000010801B
:102ED0002040244024401B80000002000D0011000F
:102EE0003FC0014000003C80244024402440238017
:102EF00000001F8024402440344003800000300044
:102F0000200027C03800200000001B8024402440FF
:102F100024401B8000001C0022C0224022401F8051
:102F20000000000000000840000000000000000059
:102F300000000460000000000000000004000A001F
:102F40001100208040400900090009000900090023
:102F5000000000004040208011000A00040018001A
:102F6000200023402400180000001F80204027403C
:102F700029401F400000004007C039000F0001C079
:102F8000004020403FC0244024401B8000001F80A0
:102F90002040204020403080000020403FC02040A2
:102FA00020401F80000020403FC024402E4030C001
:102FB000000020403FC024402E00300000000F00E1
:102FC0001080204022403380020020403FC0040097
:102FD00004003FC02040204020403FC0204020400F
:102FE00000000060202020203FC020002000204062
:102FF0003FC024400B0030C0204020403FC0204054
:103000000040004000C03FC03C0003C03C003FC047
:10301000000020403FC00C4023003FC020001F8024
:103020002040204020401F80000020403FC024401E
:103030002400180000001F802140214020E01FA034
:10304000000020403FC02440260019C0004018C0A6
:1030500024402440224031800000300020403FC006
:1030600020403000000020003F80004000403F80B2
:10307000200020003E0001C007003800200038007A
:1030800007C03C0007C038000000204039C00600DF
:1030900039C0204000002000384007C038402000E0
:1030A0000000304021C02640384020C00000000011
:1030B00000007FE0402040200000000070000C0075
:1030C0000380004000000000402040207FE000001E
:1030D0000000000020004000200000000000001060
:1030E0000010001000100010001000000000400050
:1030F000000000000000000002800540054003C001
:10310000004020003FC00440044003800000000055
:103110000380044004400640000000000380044097
:1031200024403FC0004000000380054005400340AC
:103130000000000004401FC0244024402000000084
:1031400002E0055005500650042020403FC00440D6
:10315000040003C000400000044027C000400000FD
:10316000000000100010041027E0000000002040C4
:103170003FC00140070004C00440204020403FC041
:1031800000400040000007C0040007C0040003C066
:103190000000044007C00440040003C000400000D9
:1031A00003800440044003800000041007F0045032
:1031B000044003800000000003800440045007F036
:1031C0000010044007C0024004000400000000009A
:1031D00006400540054004C00000000004001F80B8
:1031E000044000400000040007800040044007C085
:1031F00000400400070004C001800600040006002F
:1032000001C0070001C006000000044006C0010024
:1032100006C0044000000410071004E0018006000E
:1032200004000000044005C0064004400000000007
:10323000000004007BE040200000000000000000CF
:10324000FFF000000000000040207BE004000000D0
:1032500000004000800040002000200040000000EE
:10326000000000000000000000000000000000005E
:10327000000000001FCC000C000000000000000057
:1032800008003000600008003000600000000220EC
:1032900003FC1E20022003FC1E2002200000000070
:1032A0000E1811043FFF10840C78000000000F007E
:1032B00010840F3800C00778188400780000007868
:1032C0000F8410C411240E9800E400840008080044
:1032D0006800700000000000000000000000000016
:1032E0000000000007E01818200440020000000061
:1032F00040022004181807E000000000000002400F
:10330000024001800FF00180024002400000008076
:10331000008000800FF80080008000800000000125
:10332000000D000E00000000000000000000000082
:10333000008000800080008000800080008000000D
:10334000000C000C00000000000000000000000065
:103350000006001800600180060018002000000030
:1033600007F0080810041004080807F00000000027
:10337000080408041FFC0004000400000000000012
:103380000E0C10141024104411840E0C00000000C8
:103390000C1810041104110412880C7000000000B5
:1033A00000E00320042408241FFC00240000000087
:1033B0001F98108411041104108810700000000080
:1033C00007F008881104110418880070000000003C
:1033D0001C00100010FC13001C0010000000000076
:1033E0000E3811441084108411440E38000000007F
:1033F0000700088C10441044088807F00000000003
:1034000000000000030C030C00000000000000009E
:1034100000000001010600000000000000000000A4
:10342000008001400220041008081004000002205F
:1034300002200220022002200220022000000000C0
:103440001004080804100220014000800000000061
:103450000E001200100C106C10800F00000003E032
:103460000C1813E4142417C4082807D00000000423
:10347000003C03C41C40074000E4001C000410048E
:103480001FFC1104110411040E880070000003E0F9
:103490000C1810041004100410081C100000100474
:1034A0001FFC100410041004080807F000001004AA
:1034B0001FFC1104110417C41004081800001004A4
:1034C0001FFC1104110017C010000800000003E0E9
:1034D0000C181004100410441C7800400000100464
:1034E0001FFC10840080008010841FFC100400006A
:1034F000100410041FFC100410040000000000035E
:103500000001100110011FFE100010000000100447
:103510001FFC110403801464181C10040000100424
:103520001FFC1004000400040004000C0000100440
:103530001FFC1F0000FC1F001FFC100400001004F3
:103540001FFC0C04030000E010181FFC100007F023
:103550000808100410041004080807F00000100404
:103560001FFC10841080108010800F00000007F0F6
:10357000081810241024101C080A07F20000100478
:103580001FFC1104110011C011300E0C00040000CA
:103590000E1C11041084108410441C380000180004
:1035A000100010041FFC1004100018000000100090
:1035B0001FF810040004000410041FF8100010008D
:1035C0001E0011E0001C007013801C0010001FC0C2
:1035D000103C00E01F0000E0103C1FC00000100481
:1035E000180C163401C001C01634180C1004100059
:1035F0001C00130400FC13041C001000000008044D
:10360000101C1064108413041C0410180000000027
:10361000000000007FFE4002400240020000000067
:1036200030000C0003800060001C0003000000005C
:103630004002400240027FFE000000000000000047
:103640000000200040004000400020000000000179
:103650000001000100010001000100010001000063
:1036600040004000200000000000000000000000BA
:103670000098012401440144014400FC00041000AE
:103680001FFC008801040104008800700000000095
:10369000007000880104010401040088000000009B
:1036A000007000880104010411081FFC00040000E0
:1036B00000F8014401440144014400C80000000036
:1036C000010401040FFC1104110411001800000092
:1036D00000D601290129012901C9010600001004B1
:1036E0001FFC008401000100010400FC0004000034
:1036F0000104190419FC000400040000000000008B
:10370000000300010101190119FE0000000010046E
:103710001FFC0024004001B4010C01040000000063
:10372000100410041FFC0004000400000000010449
:1037300001FC0104010001FC0104010000FC010482
:1037400001FC008401000100010400FC00040000F1
:1037500000F8010401040104010400F80000010163
:1037600001FF0085010401040088007000000000D2
:103770000070008801040104010501FF000101043B
:10378000010401FC0084010401000180000000002C
:1037900000CC012401240124012401980000000030
:1037A0000100010007F8010401040000000001000D
:1037B00001F8000400040004010801FC00040100F9
:1037C00001800170000C001001600180010001F017
:1037D000010C003001C00030010C01F001000000BC
:1037E0000104018C00740170018C010400000101CE
:1037F00001810171000E00180160018001000000CC
:103800000184010C013401440184010C000000001A
:1038100000000000000001003EFC400240020000E9
:10382000000000000000FFFF00000000000000009A
:10383000400240023EFC01000000000000000000C9
:103840006000800080004000400020002000000058
:103850000000000000000000000000000000000068
:103860000000000000000000000000000000000058
:103870000000000000000000000000000000000048
:10388000000F80380FFE380F803800000000000065
:103890000000000000000000000000000100000621
:1038A00000000C00003800003100000600000C0091
:1038B00000380000300000000000000000006180BF
:1038C0000067F807F9800061800061800061800076
:1038D00061800067F807F980006180000000000047
:1038E0000000000001C0E003E0F006300804180802
:1038F0001FFFFE040E080787F00381E000000000B0
:10390000000001F000060C00040408060C7001F928
:10391000C0000E00003BE000EC18070808040C187B
:103920000003E00000000001E00007F003F81804C5
:103930001C0804170807E1D003C0E00023B0003CD6
:103940000800200800001000000000000001000036
:103950003100003200001C000000000000000000E8
:103960000000000000000000000000000000000057
:1039700000000000000000000000000000007F00C8
:1039800001FFC00780F00C001810000420000200A6
:1039900000000000002000021000040C0018078046
:1039A000F001FFC0007F00000000000000000000E8
:1039B000000000000000000000004200006600005F
:1039C0006600003C0000180003FFC0001800003C27
:1039D00000006600006600004200000000000800D1
:1039E00000080000080000080000080001FFC000F7
:1039F000080000080000080000080000080000009F
:103A00000000000100003100003200001C00000036
:103A100000000000000000000000000000000000A6
:103A20000000000000000800000800000800000876
:103A3000000008000008000008000008000008005E
:103A40000008000000000000000000000000380036
:103A500000380000380000000000000000000000F6
:103A60000000000000000000000000000000000650
:103A700000001C000070000180000E0000380000F3
:103A8000C0000700001C0000300000000000000023
:103A900000007F8001FFE00380700600180400082A
:103AA00004000806001803807001FFE0007F80001A
:103AB00000000000000000000100080100080100F3
:103AC0000803FFF807FFF8000008000008000008DE
:103AD00000000000000000000001C03802C05804CF
:103AE0000098040118040218040418061C1803F8AE
:103AF0001801E0F800000000000000000001C0E034
:103B000003C0F004000804080804080806180803A5
:103B1000F41801E7F00001E00000000000000000E0
:103B200000000300000D000011000061000081088A
:103B300003010807FFF80FFFF80001080001080063
:103B400000000000000000E007FCD0060808061096
:103B500008061008061008061838060FF00607C0F9
:103B6000000000000000000000003F8001FFE003B3
:103B700084300208180410080410080410080718FC
:103B800010030FF00007C00000000000000000005C
:103B900003C0000700000600000600F80607F8064C
:103BA000180006E00007000006000000000000000A
:103BB0000001E1E003F7F0063410041808041808C7
:103BC000040C08040C0806161803F3F001C1E00009
:103BD000000000000000F80003FC30030638040277
:103BE000080402080402080404100308F001FFC0DE
:103BF000007F000000000000000000000000000046
:103C000000000000000070380070380070380000BC
:103C100000000000000000000000000000000000A4
:103C200000000000000000000000301A00301C00FE
:103C30000000000000000000000000000000000084
:103C400000000000000800001400002200004100F5
:103C500000808001004002002004001008000800DD
:103C600000000000000021000021000021000021D0
:103C7000000021000021000021000021000021009F
:103C800000210000000000000000000008000804FF
:103C9000001002002001004000808000410000224E
:103CA0000000140000080000000000000003C00035
:103CB00004C000040000080038080F38080838085D
:103CC00010000C300007E00003C0000000000000FE
:103CD00000003F8000FFE0038070020F1006708834
:103CE00004C088048308047F8802C0900301200078
:103CF000FE400000080000180001F8003E0801C264
:103D00000007020007E20000FE00001FC80001F8E3
:103D100000003800000804000807FFF807FFF80457
:103D2000080804080804080804080806180803F42A
:103D30001801E7F00001E0000000000000003F80F3
:103D400001FFE0038070020018040008040008046A
:103D500000080400100600200780C00000000400D6
:103D60000807FFF807FFF80400080400080400082B
:103D700004001802001003807001FFE0007F800043
:103D8000000004000807FFF807FFF804080804080B
:103D900008040808040808043E080400080600187F
:103DA00001006000000004000807FFF807FFF804A6
:103DB0000808040800040800040800043E00060087
:103DC00000060000018000000000000000003F80AD
:103DD00001FFE003807006001804000804020804D4
:103DE00002080203F00783F0000200000200040052
:103DF0000807FFF807FFF80408080008000008009B
:103E000000080000080004080807FFF807FFF8048E
:103E1000000800000000000004000804000804007E
:103E20000807FFF807FFF80400080400080400086A
:103E30000000000000000000000000060000070075
:103E4000000104000104000104000307FFFE07FF56
:103E5000FC04000004000004000004000807FFF850
:103E600007FFF8040C08001800003E0004C7800596
:103E700003C80600F8040038040018000008040015
:103E80000807FFF807FFF804000800000800000812
:103E90000000080000080000080000180000600092
:103EA000000004000807FFF807800807FC00007FF7
:103EB000C00003F80007C000780007800807FFF87B
:103EC00007FFF804000804000807FFF807000803CC
:103ED000C00000E000003800001E000007000001E4
:103EE000C00400F007FFF8040000000000007F801D
:103EF00001FFE003807006001804000804000806B3
:103F0000001803003001FFE0007F80000000040083
:103F10000807FFF807FFF80404080404000404007D
:103F2000040400040400060C0003F80001F0000083
:103F30000000000000007F8001FFE00380700600A9
:103F4000880400880400C806003C03003E01FFE628
:103F5000007F8400000004000807FFF807FFF80452
:103F60000808040800040C00040F00040BC006102D
:103F7000F003F03801E00800000800000001E0F85C
:103F800003F030063010041808041808040C080464
:103F90000C080206180207F00781E000000001800B
:103FA0000006000004000004000004000807FFF8F9
:103FB00007FFF804000804000004000006000001E8
:103FC000800004000007FFE007FFF0040018000075
:103FD00008000008000008000008000008040010A5
:103FE00007FFE004000004000006000007E00007EF
:103FF000FE00041FE00001F80000380001E0043E6C
:104000000007C00006000004000004000007E000F4
:1040100007FFC0041FF80007C007F80007FF80046F
:104020003FF80007C004F80007000004000000008B
:104030000004000806001807C07805F1C8003E001B
:10404000001F800463E80780F806001804000800D9
:10405000000004000006000007800007E008047C60
:1040600008001FF80007F800180804E0080700001F
:1040700006000004000000000001000806003804EB
:1040800000F80403E8040F08047C0805F00807C0E2
:104090000807001804006000000000000000000095
:1040A0000000000000000000003FFFFE2000022092
:1040B0000002200002200002200002000000000098
:1040C0000000000008000007000000C000003800E9
:1040D0000006000001C000003000000E00000100DA
:1040E000000000000000000020000220000220006C
:1040F000022000022000023FFFFE0000000000003E
:1041000000000000000000000000000000000008A7
:1041100000001000003000002000003000001000FF
:104120000008000000000000000000000100000185
:10413000000001000001000001000001000001007A
:10414000000100000100000100000100000100006A
:10415000000000000000002000002000001000000F
:10416000100000000000000000000000000000003F
:1041700000000000000000F00019F8001B180022E9
:1041800008002608002408002410003FF8001FF84B
:1041900000000800001800000004000007FFF80FEE
:1041A000FFF0001818001008002008002008003058
:1041B00018001FF0000FC00000000000000007C042
:1041C000001FF00018300020080020080020080020
:1041D0003C08001C1000006000000000000000000F
:1041E000000007C0001FF000381800200800200859
:1041F00000200804101007FFF80FFFF00000100067
:1042000000000000000000000007C0001FF00012C6
:1042100030002218002208002208003208001E1078
:10422000000E200000000000000020000020080018
:10423000200801FFF803FFF80620080420080420E6
:104240000807200003000000000000000000000E2E
:10425000000E6E001FF30031B10020B10020B1004C
:104260003191001F13002E1E00200E0030000000B0
:104270000004000807FFF80FFFF8001008002000F6
:10428000002000002008003FF8001FF80000080090
:1042900000000000000000000020080020080020AE
:1042A00008063FF8063FF800000800000800000874
:1042B00000000000000000000000000000000300FB
:1042C0000003002001002001002003063FFE063FFE
:1042D000FC000000000000000000000000040008D6
:1042E00007FFF80FFFF8000188000300002FC0004F
:1042F00038F8002038002008000008000000000006
:104300000000000004000804000804000807FFF88B
:104310000FFFF8000008000008000008000000007F
:104320000000002008003FF8003FF80010080020BF
:1043300000003FF8003FF8001008002000003FF8A0
:10434000003FF8000008000000002008003FF800CF
:104350003FF8001008001000002000002008003F77
:10436000F8001FF80000080000000000000007C06F
:10437000000FF0001830003008002008002008006E
:104380003008001830000FF00007C00000000000E7
:1043900000002001003FFF003FFF00101100200936
:1043A000002008002008003038001FF0000FC00077
:1043B00000000000000007C0001FF00038180020B7
:1043C00008002008002009001011001FFF003FFF17
:1043D0000000010000000020080020080020080064
:1043E0003FF8003FF80008080010080020080020EF
:1043F000000030000030000000000000000000005D
:10440000000C78001E180033080023080021080063
:1044100021880021980030F0003860000000000082
:104420000000200000200000200000FFF003FFF843
:1044300000200800200800200800003000000000D4
:104440000000000000002000003FF0007FF80000A6
:1044500018000008000008002010003FF8007FF05E
:1044600000001000000000000000200000300000EC
:104470003C00003F800023F0000078000070002323
:1044800080003C00003000002000002000003C00C4
:10449000003FE00023F80000E0002700003E00009D
:1044A0003FE00021F80001E0003E00002000000095
:1044B00000002008002008003838003E68002780EF
:1044C0000003C8002CF8003838002018002008002D
:1044D0000000000000002000003003003C01003F0D
:1044E000830023EC000070002380003C00002000CB
:1044F000002000000000000000000000003808005C
:1045000020380020F80023E8002F88003E080038FB
:1045100008002018000070000000000000000000EB
:104520000000000000000000000008000014001F50
:10453000F7FC300006200002000000000000000030
:10454000000000000000000000000000000000006B
:10455000FFFFFF000000000000000000000000005E
:1045600000000000000000002000023000061FF7DD
:10457000FC00140000080000000000000000000023
:104580000000000000000000001800006000004073
:10459000000040000020000010000008000004009F
:1045A000000400000C0000100000303132333435BC
:1045B000363738394142434445464030580030315F
:1045C000323334353637383961626364656640307A
:1045D00078000000F44500080000002020000000E2
:1045E000C40100081446000820000020380700001D
:1045F000E0010008000000000102030401020304BE
:10460000060708090000000000000000000000008C
:044610000000FFFFA8
:040000050800018965
:00000001FF
