:020000040800F2
:100000005807002031020008F11D0008C50600084D
:10001000ED1D0008C90400087F240008000000004E
:10002000000000000000000000000000A120000807
:10003000CD04000800000000811E0008B92100085E
:100040004B0200084B0200084B0200084B0200085C
:100050004B0200084B0200084B0200084B0200084C
:100060004B0200084B0200084B0200084B0200083C
:100070004B0200084B0200084B0200084B0200082C
:100080004B0200084B0200084B0200084B0200081C
:100090004B0200084B0200084B0200084B0200080C
:1000A0004B0200084B0200084B0200084B020008FC
:1000B0004B0200084B0200084B0200084B020008EC
:1000C0004B0200084B0200084B0200084B020008DC
:1000D0004B020008612200084B0200084B02000896
:1000E0004B0200084B0200084B0200084B020008BC
:1000F0004B0200084B0200084B0200084B020008AC
:100100004B0200084B0200084B0200084B0200089B
:100110004B0200084B0200084B0200084B0200088B
:100120004B0200084B0200084B0200084B0200087B
:100130004B0200084B0200084B0200084B0200086B
:100140004B0200084B0200084B0200084B0200085B
:100150004B0200084B0200084B0200084B0200084B
:100160004B0200084B0200084B0200084B0200083B
:100170004B0200084B0200084B0200084B0200082B
:100180004B0200084B02000800F002F800F041F8B2
:100190000AA090E8000C82448344AAF10107DA45E2
:1001A00001D100F036F8AFF2090EBAE80F0013F0F3
:1001B000010F18BFFB1A43F001031847483D000028
:1001C000683D0000103A24BF78C878C1FAD85207B9
:1001D00024BF30C830C144BF04680C6070470000C1
:1001E0000023002400250026103A28BF78C1FBD840
:1001F000520728BF30C148BF0B607047782900F014
:100200007980002070471FB502F082FA1FBD10B53B
:1002100010BD00F027F91146FFF7F5FF02F000FAD4
:1002200000F045F903B4FFF7F2FF03BC02F080F9D8
:100230000948804709480047FEE7FEE7FEE7FEE77A
:10024000FEE7FEE7FEE7FEE7FEE7FEE704480549B6
:10025000054A064B70470000BD21000889010008CF
:1002600058010020580700205803002058030020A0
:10027000704700000FB4044910B503AA029800F0BB
:10028000C3F810BC5DF814FB180000202DE9F04104
:100290000E460446002020622046E168884730B3BD
:1002A000252805D0D4E901219047206A401CF2E7B7
:1002B000E168204600278847050018D0A5F14100D5
:1002C000192802D820354FF40067324629462046C7
:1002D0002760FFF793FF40B1012804D0F61D26F0F8
:1002E00007060836D8E7361DD6E72846DAE7206A3B
:1002F000BDE8F08170B504460D4621461068AFF3A5
:1003000000802188090502D50F4A7A4402E00E4A8E
:100310007A440E32002104F1240305E000F00F06B8
:100320000009965D5E54491C0028F7D1207800230F
:10033000000704D5702D02D009B1022311322046E6
:10034000BDE8704000F006B8CC3B00007047704735
:10035000704770472DE9F0470D469946924604468E
:1003600000F124080168880604D5E06921F0100135
:10037000216000E00120A84201DD471B00E00027CA
:10038000A1697A1902EB0900081AA0612078C00659
:1003900002D42046AFF30080002608E0D4E9012112
:1003A0001AF806009047206A401C761C20624E45D1
:1003B000F4DB2078C0060AD52046AFF3008006E0C3
:1003C000D4E9012130209047206A401C2062381E69
:1003D000A7F10107F4DC07E0D4E9012118F80500D2
:1003E0009047206A401C2062281EA5F10105F3DC1D
:1003F0002046AFF300802078000602D50220BDE839
:10040000F0870120FBE70000074B70B50D467B44E9
:1004100000F011F80446284600F020F810B14FF023
:10042000FF3070BD204670BDF321000001694A1CF9
:1004300002610878704700B58FB0CDE90131002125
:10044000059105497944CDE9031011466846FFF747
:100450001DFF0FB000BD0000E5FFFFFF007B00F0B7
:1004600080007047754600F02BF8AE4605006946DF
:10047000534620F00700854618B020B5FFF7E6FE8A
:10048000BDE820404FF000064FF000074FF0000895
:100490004FF0000B21F00701AC46ACE8C009ACE816
:1004A000C009ACE8C009ACE8C0098D46704710B57A
:1004B0000446AFF300802046BDE81040FFF7B2BE0F
:1004C00000487047F800002000BFFEE770470000BA
:1004D00051B18200A2F1C042126842F001038200D1
:1004E000A2F1C042136009E08200A2F1C04212688A
:1004F000034B1A408300A3F1C0431A607047000009
:10050000FEFF0F00D0E901121143C26811430269D6
:1005100011434269114382691143C2691143026A5E
:100520001143426A1143826A1143C26A1143026B4A
:10053000114302689200A2F1C0421160816808294B
:100540000BD101688900A1F1C041096841F0400266
:1005500001688900A1F1C0410A60416B0968426BE2
:10056000526841EA0211426B926841EA0221426BF1
:10057000928941EA0241426B128A41EA0251426B7E
:10058000127D41EA0261426B926911430268521C7A
:100590009200A2F1C0421160C16AB1F5804F1BD137
:1005A000816B0968826B526841EA0211826B926822
:1005B00041EA0221826B128A41EA0251826B127D6A
:1005C00041EA0261826B9269114302689200A2F1D2
:1005D000C042C2F8041107E06FF070420168890060
:1005E000A1F1C041C1F804217047F0B50A460021CD
:1005F0000023002400BF3DE0012505FA01F3156842
:1006000005EA03049C4234D105684F000326BE402E
:10061000B543056015794E00B54006683543056061
:100620001579012D02D01579022D16D185684F005C
:100630000326BE40B543856055794E00B5408668B7
:1006400035438560456801268E40B5434560456861
:1006500096798E40B6B235434560C5684F00032693
:10066000BE40B543C560D5794E00B540C668354338
:10067000C560491C1029BFD3F0BDF0B5002300248C
:100680004D07ED0E02FA05F3CE1000F1200555F8E6
:1006900026504E07F70E0F26BE40B543CF1000F18F
:1006A000200646F82750CE1000F1200555F82650B8
:1006B00045EA0304CE1000F1200545F82640F0BDC0
:1006C0000183704700BFFEE770B5044600250A4865
:1006D00000880949498800FB01F60021084601F01D
:1006E00005FA01F04FFB00BF02E0044804806D1CD6
:1006F000B542FAD370BD0000E80000208000006C15
:1007000010B504464CB900200F4988714FF4F070C1
:1007100008804FF44870488008E001200A49887139
:100720004FF4487008804FF4F07048804FF4305018
:10073000054908814FF4285048814FF42C50888196
:10074000002001F06BF910BDE800002030B5044630
:100750000D461449488901F0FDFA201201F006FB0C
:1007600010494989491C88B201F0F4FAE0B201F05D
:10077000FDFA0C49888901F0EDFA281201F0F6FA29
:1007800008498989491C88B201F0E4FAE8B201F00D
:10079000EDFA04480089044908804FF0D840A0F8D9
:1007A000802030BDE80000207E00006C2DE9F04F75
:1007B00005460E4617469846DDF824A0781B401CD7
:1007C0001FFA80FB344614E02146284601F08EF9DA
:1007D00001F0D8FA4FF0000907E04FF0D840A0F838
:1007E00080A009F101001FFA80F9D945F5DB601CF2
:1007F00084B24445E8DDBDE8F08F000000B59FB04D
:100800000121084601F05EFB0121022001F03AFBC4
:100810000121082001F036FB0121102001F032FBFC
:100820000121202001F02EFB0121402001F02AFBB4
:100830004FF400401D9001208DF8780000208DF8C5
:100840007A0002208DF8790001208DF87B001DA927
:10085000FE48FFF7CAFE02208DF8780003208DF8CD
:1008600079004FF480501D901DA9F948FFF7BDFE97
:100870004FF480401D901DA9F648FFF7B6FE4FF4D7
:1008800000401D901DA9F348FFF7AFFE01201D9009
:100890001DA9F048FFF7A9FE02201D901DA9ED48F3
:1008A000FFF7A3FE80201D901DA9EB48FFF79DFEDA
:1008B0004FF480701D901DA9E748FFF796FE4FF496
:1008C00000701D901DA9E448FFF78FFE4FF4806073
:1008D0001D901DA9E048FFF788FE4FF400601D90B1
:1008E0001DA9DD48FFF781FE4FF480501D901DA922
:1008F000D948FFF77AFE4FF400501D901DA9D64845
:10090000FFF773FE4FF480401D901DA9D248FFF7FA
:100910006CFE4FF400401D901DA9CF48FFF765FE07
:100920004FF480701D901DA9CA48FFF75EFE4FF47A
:1009300000701D901DA9C748FFF757FE4FF4806057
:100940001D901DA9C348FFF750FE4FF480501D9025
:100950001DA9C248FFF749FE10201D901DA9BD48E2
:10096000FFF743FE20201D901DA9BA48FFF73DFE6A
:100970000C220021B748FFF780FE0C220121B54868
:10098000FFF77BFE0C220421B248FFF776FE0C2213
:100990000521B048FFF771FE0C220821AD48FFF792
:1009A0006CFE0C220921AB48FFF767FE0C220A21DE
:1009B000A848FFF762FE0C220E21A648FFF75DFE55
:1009C0000C220F21A348FFF758FE0C220721A24852
:1009D000FFF753FE0C2208219F48FFF74EFE0C2222
:1009E00009219D48FFF749FE0C220A219A48FFF78A
:1009F00044FE0C220B219848FFF73FFE0C221146C3
:100A00009548FFF73AFE0C220D219348FFF735FE7B
:100A10000C220E219048FFF730FE0C220F218E4849
:100A2000FFF72BFE0C2211468948FFF726FE0C2209
:100A300011468A48FFF721FE1020079000200890F9
:100A40003C20099000200A900B900C900D90032000
:100A50000090002001900320029000200390049059
:100A60000590069006200E9000200F901090102008
:100A700011900020129014901390159016904FF43E
:100A800080501790002018904FF48040199000205B
:100A90001A9007A81B90CDF870D00EA8FFF732FD72
:100AA00001210620FFF714FD642001F043FD45F20B
:100AB00010506B498880084681886AA0FFF7DAFBEE
:100AC000642001F037FD55214FF4704001F064F9C6
:100AD000AA214FF2010001F05FF952214FF202000A
:100AE00001F05AF908214FF2030001F055F90121F4
:100AF0004FF2040001F050F90D214FF4304001F0A5
:100B00004BF90D214BF2010001F046F90D214BF29A
:100B1000020001F041F934214FF4364001F03CF974
:100B200034214BF2016001F037F934214BF20260BD
:100B300001F032F90D214FF4314001F02DF90D2172
:100B40004BF2011001F028F90D214BF2021001F0D7
:100B500023F934214FF4374001F01EF934214BF2D0
:100B6000017001F019F934214BF2027001F014F90F
:100B700000214FF4324001F00FF900214BF2012027
:100B800001F00AF900214BF2022001F005F92421BD
:100B90004FF4384001F000F924214BF6010001F038
:100BA000FBF824214BF6020001F0F6F801214FF486
:100BB0003F4001F0F1F80F214FF4334001F0ECF821
:100BC0000F214BF2013001F0E7F80F214BF2023018
:100BD00001F0E2F834214FF4394001F0DDF834211E
:100BE0004BF6011001F0D8F834214BF6021001F059
:100BF000D3F808214FF4354001F0CEF808214BF22C
:100C0000015001F0C9F808214BF2025001F0C4F87C
:100C100003214FF4424001F0BFF824214FF43A4041
:100C200001F0BAF824214BF6012001F0B5F8242197
:100C30004BF6022001F0B0F800214FF43C4001F0E7
:100C4000ABF878214BF6014012E0000000040240AE
:100C500000140240000C0240001002400018024044
:100C6000E80000204C43442049443A25780D0A000E
:100C700001F092F800214BF6024001F08DF80021BE
:100C80004FF43D4001F088F878214BF6015001F017
:100C900083F800214BF6025001F07EF800214FF45A
:100CA0003E4001F079F864214BF6016001F074F8E0
:100CB00000214FF4514001F06FF833214DF2011043
:100CC00001F06AF800214DF2021001F065F83421BC
:100CD0004DF2031001F060F800214DF2041001F014
:100CE0005BF83A214DF2051001F056F800214DF263
:100CF000061001F051F84A214DF2071001F04CF8AE
:100D000000214DF2081001F047F85C214DF2091066
:100D100001F042F800214DF20A1001F03DF8812166
:100D20004DF20B1001F038F800214DF20C1001F0DB
:100D300033F8A6214DF20D1001F02EF800214DF2EE
:100D40000E1001F029F8E5214DF20F1001F024F802
:100D500001214DF2101001F01FF813214DF2111076
:100D600001F01AF801214DF2121001F015F854218A
:100D70004DF2131001F010F801214DF2141001F0A2
:100D80000BF882214DF2151001F006F801214DF209
:100D9000161001F001F8CA214DF2171000F0FCFF07
:100DA00002214DF2181000F0F7FF00214DF219104A
:100DB00000F0F2FF02214DF21A1000F0EDFF0121C8
:100DC0004DF21B1000F0E8FF02214DF21C1000F064
:100DD000E3FF34214DF21D1000F0DEFF02214DF241
:100DE0001E1000F0D9FF67214DF21F1000F0D4FF54
:100DF00002214DF2201000F0CFFF84214DF221108E
:100E000000F0CAFF02214DF2221000F0C5FFA4211C
:100E10004DF2231000F0C0FF02214DF2241000F02B
:100E2000BBFFB7214DF2251000F0B6FF02214DF2B5
:100E3000261000F0B1FFCF214DF2271000F0ACFFDB
:100E400002214DF2281000F0A7FFDE214DF22910FB
:100E500000F0A2FF02214DF22A1000F09DFFF221C6
:100E60004DF22B1000F098FF02214DF22C1000F0F3
:100E700093FFFE214DF22D1000F08EFF03214DF265
:100E80002E1000F089FF10214DF22F1000F084FF8A
:100E900003214DF2301000F07FFF33214DF231106D
:100EA00000F07AFF03214DF2321000F075FF6D2142
:100EB0004DF2331000F070FF00214FF4524000F06B
:100EC0006BFF33214DF2012000F066FF00214DF24F
:100ED000022000F061FF34214DF2032000F05CFF9E
:100EE00000214DF2042000F057FF3A214DF2052079
:100EF00000F052FF00214DF2062000F04DFF4A2184
:100F00004DF2072000F048FF00214DF2082000F0CC
:100F100043FF5C214DF2092000F03EFF00214DF21D
:100F20000A2000F039FF81214DF20B2000F034FF40
:100F300000214DF20C2000F02FFFA6214DF20D20D4
:100F400000F02AFF00214DF20E2000F025FFE521E0
:100F50004DF20F2000F020FF01214DF2102000F093
:100F60001BFF13214DF2112000F016FF01214DF25D
:100F7000122000F011FF54214DF2132000F00CFF5D
:100F800001214DF2142000F007FF82214DF21520BF
:100F900000F002FF01214DF2162000F0FDFECA21F3
:100FA0004DF2172000F0F8FE02214DF2182000F05B
:100FB000F3FE00214DF2192000F0EEFE02214DF269
:100FC0001A2000F0E9FE01214DF21B2000F0E4FEA2
:100FD00002214DF21C2000F0DFFE34214DF21D20D5
:100FE00000F0DAFE02214DF21E2000F0D5FE67214E
:100FF0004DF21F2000F0D0FE02214DF2202000F023
:10100000CBFE84214DF2212000F0C6FE02214DF2DC
:10101000222000F0C1FEA4214DF2232000F0BCFEEE
:1010200002214DF2242000F0B7FEB7214DF2252019
:1010300000F0B2FE02214DF2262000F0ADFECF21DD
:101040004DF2272000F0A8FE02214DF2282000F0EA
:10105000A3FEDE214DF2292000F09EFE02214DF27A
:101060002A2000F099FEF2214DF22B2000F094FE90
:1010700002214DF22C2000F08FFEFE214DF22D209A
:1010800000F08AFE03214DF22E2000F085FE102193
:101090004DF22F2000F080FE03214DF2302000F0B1
:1010A0007BFE33214DF2312000F076FE03214DF21C
:1010B000322000F071FE6D214DF2332000F06CFE05
:1010C00000214FF4534000F067FE33214DF2013010
:1010D00000F062FE00214DF2023000F05DFE34218E
:1010E0004DF2033000F058FE00214DF2043000F0C4
:1010F00053FE3A214DF2053000F04EFE00214DF234
:10110000063000F049FE4A214DF2073000F044FE5F
:1011100000214DF2083000F03FFE5C214DF2093015
:1011200000F03AFE00214DF20A3000F035FE812138
:101130004DF20B3000F030FE00214DF20C3000F08B
:101140002BFEA6214DF20D3000F026FE00214DF2BF
:101150000E3000F021FEE5214DF20F3000F01CFEB4
:1011600001214DF2103000F017FE13214DF2113025
:1011700000F012FE01214DF2123000F00DFE54215C
:101180004DF2133000F008FE01214DF2143000F052
:1011900003FE82214DF2153000F0FEFD01214DF2DB
:1011A000163000F0F9FDCA214DF2173000F0F4FDC1
:1011B00002214DF2183000F0EFFD00214DF2193000
:1011C00000F0EAFD02214DF21A3000F0E5FD0121A8
:1011D0004DF21B3000F0E0FD02214DF21C3000F01A
:1011E000DBFD34214DF21D3000F0D6FD02214DF221
:1011F0001E3000F0D1FD67214DF21F3000F0CCFD14
:1012000002214DF2203000F0C7FD84214DF2213043
:1012100000F0C2FD02214DF2223000F0BDFDA421FC
:101220004DF2233000F0B8FD02214DF2243000F0E1
:10123000B3FDB7214DF2253000F0AEFD02214DF295
:10124000263000F0A9FDCF214DF2273000F0A4FD9B
:1012500002214DF2283000F09FFDDE214DF22930B1
:1012600000F09AFD02214DF22A3000F095FDF221A6
:101270004DF22B3000F090FD02214DF22C3000F0A9
:101280008BFDFE214DF22D3000F086FD03214DF245
:101290002E3000F081FD10214DF22F3000F07CFD4A
:1012A00003214DF2303000F077FD33214DF2313023
:1012B00000F072FD03214DF2323000F06DFD6D2122
:1012C0004DF2333000F068FD00214FF4544000F03F
:1012D00063FD33214DF2014000F05EFD00214DF22F
:1012E000024000F059FD34214DF2034000F054FD5E
:1012F00000214DF2044000F04FFD3A214DF205402F
:1013000000F04AFD00214DF2064000F045FD4A2163
:101310004DF2074000F040FD00214DF2084000F082
:101320003BFD5C214DF2094000F036FD00214DF2FD
:101330000A4000F031FD81214DF20B4000F02CFD00
:1013400000214DF20C4000F027FDA6214DF20D408A
:1013500000F022FD00214DF20E4000F01DFDE521C0
:101360004DF20F4000F018FD01214DF2104000F049
:1013700013FD13214DF2114000F00EFD01214DF23D
:10138000124000F009FD54214DF2134000F004FD1D
:1013900001214DF2144000F0FFFC82214DF2154076
:1013A00000F0FAFC01214DF2164000F0F5FCCA21D4
:1013B0004DF2174000F0F0FC02214DF2184000F011
:1013C000EBFC00214DF2194000F0E6FC02214DF249
:1013D0001A4000F0E1FC01214DF21B4000F0DCFC62
:1013E00002214DF21C4000F0D7FC34214DF21D408B
:1013F00000F0D2FC02214DF21E4000F0CDFC67212E
:101400004DF21F4000F0C8FC02214DF2204000F0D8
:10141000C3FC84214DF2214000F0BEFC02214DF2BC
:10142000224000F0B9FCA4214DF2234000F0B4FCAE
:1014300002214DF2244000F0AFFCB7214DF22540CF
:1014400000F0AAFC02214DF2264000F0A5FCCF21BD
:101450004DF2274000F0A0FC02214DF2284000F0A0
:101460009BFCDE214DF2294000F096FC02214DF25A
:101470002A4000F091FCF2214DF22B4000F08CFC50
:1014800002214DF22C4000F087FCFE214DF22D4050
:1014900000F082FC03214DF22E4000F07DFC102173
:1014A0004DF22F4000F078FC03214DF2304000F067
:1014B00073FC33214DF2314000F06EFC03214DF2FC
:1014C000324000F069FC6D214DF2334000F064FCC5
:1014D00000214FF4554000F05FFC33214DF20150E4
:1014E00000F05AFC00214DF2025000F055FC34216E
:1014F0004DF2035000F050FC00214DF2045000F07A
:101500004BFC3A214DF2055000F046FC00214DF213
:10151000065000F041FC4A214DF2075000F03CFC1F
:1015200000214DF2085000F037FC5C214DF20950CB
:1015300000F032FC00214DF20A5000F02DFC812118
:101540004DF20B5000F028FC00214DF20C5000F041
:1015500023FCA6214DF20D5000F01EFC00214DF29F
:101560000E5000F019FCE5214DF20F5000F014FC74
:1015700001214DF2105000F00FFC13214DF21150DB
:1015800000F00AFC01214DF2125000F005FC54213C
:101590004DF2135000F000FC01214DF2145000F008
:1015A000FBFB82214DF2155000F0F6FB01214DF2BC
:1015B000165000F0F1FBCA214DF2175000F0ECFB81
:1015C00002214DF2185000F0E7FB00214DF21950B6
:1015D00000F0E2FB02214DF21A5000F0DDFB012188
:1015E0004DF21B5000F0D8FB02214DF21C5000F0D0
:1015F000D3FB34214DF21D5000F0CEFB02214DF201
:101600001E5000F0C9FB67214DF21F5000F0C4FBD3
:1016100002214DF2205000F0BFFB84214DF22150F9
:1016200000F0BAFB02214DF2225000F0B5FBA421DC
:101630004DF2235000F0B0FB02214DF2245000F097
:10164000ABFBB7214DF2255000F0A6FB02214DF275
:10165000265000F0A1FBCF214DF2275000F09CFB5B
:1016600002214DF2285000F097FBDE214DF2295067
:1016700000F092FB02214DF22A5000F08DFBF22186
:101680004DF22B5000F088FB02214DF22C5000F05F
:1016900083FBFE214DF22D5000F07EFB03214DF225
:1016A0002E5000F079FB10214DF22F5000F074FB0A
:1016B00003214DF2305000F06FFB33214DF23150D9
:1016C00000F06AFB03214DF2325000F065FB6D2102
:1016D0004DF2335000F060FB00214FF4564000F013
:1016E0005BFB33214DF2016000F056FB00214DF20F
:1016F000026000F051FB34214DF2036000F04CFB1E
:1017000000214DF2046000F047FB3A214DF20560E4
:1017100000F042FB00214DF2066000F03DFB4A2143
:101720004DF2076000F038FB00214DF2086000F038
:1017300033FB5C214DF2096000F02EFB00214DF2DD
:101740000A6000F029FB81214DF20B6000F024FBC0
:1017500000214DF20C6000F01FFBA6214DF20D6040
:1017600000F01AFB00214DF20E6000F015FBE521A0
:101770004DF20F6000F010FB01214DF2106000F0FF
:101780000BFB13214DF2116000F006FB01214DF21D
:10179000126000F001FB54214DF2136000F0FCFADE
:1017A00001214DF2146000F0F7FA82214DF215602C
:1017B00000F0F2FA01214DF2166000F0EDFACA21B4
:1017C0004DF2176000F0E8FA02214DF2186000F0C7
:1017D000E3FA00214DF2196000F0DEFA02214DF229
:1017E0001A6000F0D9FA01214DF21B6000F0D4FA22
:1017F00002214DF21C6000F0CFFA34214DF21D6041
:1018000000F0CAFA02214DF21E6000F0C5FA67210D
:101810004DF21F6000F0C0FA02214DF2206000F08E
:10182000BBFA84214DF2216000F0B6FA02214DF29C
:10183000226000F0B1FAA4214DF2236000F0ACFA6E
:1018400002214DF2246000F0A7FAB7214DF2256085
:1018500000F0A2FA02214DF2266000F09DFACF219D
:101860004DF2276000F098FA02214DF2286000F056
:1018700093FADE214DF2296000F08EFA02214DF23A
:101880002A6000F089FAF2214DF22B6000F084FA10
:1018900002214DF22C6000F07FFAFE214DF22D6006
:1018A00000F07AFA03214DF22E6000F075FA102153
:1018B0004DF22F6000F070FA03214DF2306000F01D
:1018C0006BFA33214DF2316000F066FA03214DF2DC
:1018D000326000F061FA6D214DF2336000F05CFA85
:1018E00055214FF4704000F057FAAA214FF2010041
:1018F00000F052FA52214FF2020000F04DFA082196
:101900004FF2030000F048FA00214FF2040000F00B
:1019100043FACC214FF4314000F03EFA00214BF263
:10192000011000F039FA05214FF4364000F034FA86
:1019300070214FF4374000F02FFA70214BF2017004
:1019400000F02AFA01214FF4384000F025FA032173
:101950004BF6010000F020FA03214BF6020000F0E4
:101960001BFA03214BF6030000F016FA02214FF494
:101970003C4000F011FA00214BF6014000F00CFA57
:1019800000214BF6024000F007FAD0214FF4494005
:1019900000F002FA02214CF6011000F0FDF950218E
:1019A0004CF6021000F0F8F950214CF6031000F04C
:1019B000F3F950214CF6041000F0EEF900214FF439
:1019C000545000F0E9F955214FF4685000F0E4F963
:1019D0004FF4885000F0BEF9782000F0C7FD4FF4B6
:1019E000245000F0B7F90020FEF78AFE01200449D8
:1019F00008604FF6FF70FEF767FE1FB000BD0000E5
:101A0000BC82404210B50246012000E050430B1E4C
:101A1000A1F10104E1B2F9D110BD000070B5044696
:101A20000023002630488079012818D1082C15D2CF
:101A3000DFE804F00406080A0C0E101206240DE07C
:101A400007240BE0042409E0052407E0012405E055
:101A5000002403E0032401E0022400BF00BF082C9F
:101A60001CD2DFE804F00406090C0F12151800BFA1
:101A700014E043F0800311E043F040030EE043F034
:101A8000C0030BE043F0200308E043F0600305E0EF
:101A900043F0A00302E043F0E00300BF00BF4FF4B7
:101AA00058561946304600F077F903F0200068B127
:101AB0000D4800880C494988884214DA0A4805888C
:101AC000408809490880084645800CE0064800889F
:101AD00005494988884206DD03480588408802494F
:101AE00008800846458070BDE800002010B5024619
:101AF0000C461049488900F02DF9101200F036F913
:101B00000C494989491C88B200F024F9D0B200F090
:101B10002DF90849888900F01DF9201200F026F9F6
:101B200004498989491C88B200F014F9E0B200F038
:101B30001DF910BDE80000202DE9F84F80460E4643
:101B400017461C46B3462046E31704EB5373DB10DD
:101B500021464FEAE47C04EB5C7C4FEAEC0CA4EBFE
:101B6000CC0CBCF1000F02D04FF0010C01E04FF0A3
:101B7000000C6344224604EBD27C4FEA6C0C03FB5E
:101B80000CF3DBB20093A7F12000C7B2002558E0A8
:101B90000C2C04D0102C0AD0182C16D10DE007EB19
:101BA00047002A4901EB800010F805900FE0284813
:101BB00000EB071010F8059009E007EBC700254976
:101BC00001EB800010F8059001E0BDE8F88F00BF40
:101BD0004FF0000A2FE009F0800030B11E48028863
:101BE00031464046FEF7B2FD07E00A9828B91B4887
:101BF000028831464046FEF7A9FD4FEA49604FEAA8
:101C00001069701C86B216484088B04200DCDCE7E0
:101C1000A6EB0B00A0420AD15E4608F101001FFAB4
:101C200080F80F480088404500DCCEE706E00AF166
:101C3000010000F0FF0ABAF1080FCCDB00BF681CFE
:101C4000C5B200988542A3DB00BFBEE71A27000893
:101C50008E2B00087E3100081C0000201E00002092
:101C6000E80000202DE9FF478046894615461E46BC
:101C700000240027092410E0E1B20A20FFF7C2FE89
:101C8000B5FBF0F001A90855E1B20A20FFF7BAFE52
:101C9000B5FBF0F100FB1155641E002CECDA0924B1
:101CA00005E001A8005D00B904B902E0641E002C43
:101CB000F7DA00BFE7B2002412E00120B24606EBDB
:101CC000DA71491001FB0481009088B2391B01AB25
:101CD000595C3031CAB233464946FFF72DFF641CC8
:101CE000BC42EADD781CC0B204B0BDE8F0872DE943
:101CF000F84704460D4690469946DDE9096704F029
:101D0000FF0A08EB04001FFA80F809EB05001FFA30
:101D100080F916E0444502DB5446A81985B24D45CA
:101D200000DB14E0002000903A7833462946204634
:101D3000FFF702FF304606EBD07104EB61018CB275
:101D40007F1C38787E2802DC38782028E2DA00BF51
:101D5000BDE8F88701B5BDF800000090BDF80000AF
:101D60000149088008BD00007E00006C01B5BDF887
:101D700000000090BDF800000149088008BD000087
:101D80008000006C0248008902490880704700000A
:101D9000E80000207E00006C034A10804FF0D8421B
:101DA000A2F88010704700007E00006C1CB5012175
:101DB000202000F067F84FF4C060009001208DF8FB
:101DC000040000208DF8060003208DF80500012096
:101DD0008DF8070069460448FEF707FC4FF4C06120
:101DE0000148FEF76DFC1CBD0014024000BFFEE779
:101DF0007047000070B5002100230F22C4781CB387
:101E0000174C246804F4E064C4F5E064C4F30721CB
:101E1000C1F10404E3B20A4144789C40E1B2847801
:101E2000144021430C07210E0E4C057861550478AF
:101E300004F01F050124AC4005786D11AD0005F1DB
:101E4000E025C5F8004109E0047804F01F050124ED
:101E5000AC40054D0678761145F8264070BD00006F
:101E60000CED00E000E400E080E100E00249014305
:101E7000024A1160704700000000FA050CED00E016
:101E80007047000029B1064A12680243044B1A60E9
:101E900004E0034A12688243014B1A607047000055
:101EA0003038024029B1064A12680243044B1A60D6
:101EB00004E0034A12688243014B1A607047000035
:101EC0003438024029B1064A12680243044B1A60B2
:101ED00004E0034A12688243014B1A607047000015
:101EE0003838024029B1064A12680243044B1A608E
:101EF00004E0034A12688243014B1A6070470000F5
:101F000044380240F0B500210022002402250026BA
:101F10000223324F3F6807F00C0121B1042905D09C
:101F2000082937D105E02E4F076036E02D4F0760B6
:101F300033E02A4F3F1F3F68C7F38056274F3F1FAC
:101F40003F6807F03F036EB1264FB7FBF3F7DFF8AA
:101F50008CC0ACF1040CDCF800C0CCF3881C07FB8F
:101F60000CF40CE01E4FB7FBF3F7DFF870C0ACF1D8
:101F7000040CDCF800C0CCF3881C07FB0CF4174FF2
:101F80003F1F3F68C7F301477F1C7D00B4FBF5F797
:101F9000076002E0124F076000BF00BF0F4F3F68AD
:101FA00007F0F0010909104F7A5C0768D7404760D5
:101FB0000A4F3F6807F4E051890A0B4F7A5C476883
:101FC000D7408760054F3F6807F46041490B064FD3
:101FD0007A5C4768D740C760F0BD0000083802400F
:101FE0000024F40000127A000000002030B10749FC
:101FF000096841F00401054A116005E003490968D8
:1020000021F00401014A11607047000000080650E9
:1020100001460020034A12680A400AB1012000E08C
:10202000002070470408065001480068704700000F
:102030000808065010B500BF0120FFF7E9FF00288F
:10204000FAD0FFF7F1FF10BD70B504460D46FFF75B
:10205000F1FF291B491CB0FBF1F201FB12002044E7
:1020600070BD10B5002401214020FFF71BFF0120A7
:10207000FFF7BCFF04E0601C84B2642000F076FA35
:102080000120FFF7C5FF18B942F210708442F2DB5D
:1020900042F21070844201DB012010BD0020FCE7F9
:1020A000704700000CB50020019000903448006893
:1020B00040F480303249086000BF3148006800F4C5
:1020C000003000900198401C0190009818B90198C8
:1020D000B0F5A04FF1D12A48006800F4003010B1EB
:1020E0000120009001E0002000900098012846D1D6
:1020F00023484030006840F080502149403108605A
:102100002048006840F440401E4908601C480830E0
:1021100000681B49083108600846006840F4004028
:1021200008600846006840F4A05008601648091F7F
:102130000860081F006840F08070091F086000BF39
:102140000F48006800F000700028F9D040F20570D8
:102150000E4908600A480830006820F0030008496A
:10216000083108600846006840F00200086000BFBF
:1021700003480830006800F00C000828F8D10CBDB6
:10218000003802400070004008544007003C024004
:10219000042808D14FF0E021096941F004014FF013
:1021A000E022116107E04FF0E021096921F004010C
:1021B0004FF0E022116170477047000010B51548DC
:1021C000006840F47000134908601348006840F04C
:1021D00001001149086000200F49083108600E48CD
:1021E00000680E4908400C4908600D48091D086048
:1021F000081F006820F48020091F0860002006499D
:102200000C310860FFF74EFF4FF000600149803944
:10221000086010BD88ED00E000380240FFFFF6FEC8
:102220001030002410B504466FF00400FFF7B0FF33
:10223000E11704EB5171C1F3C701074A1170104651
:10224000007800EB4001C1EBC0104FF6FF7101EACE
:10225000C0000249088010BD1000002012000020BC
:1022600010B540F225511D4800F04AF810B31B4844
:1022700000F000F9C4B21A48008800F40040C8B960
:102280001748008800F4804060B10A2C03D0002079
:102290001349088020E01248008840F400401049AB
:1022A000088019E00D2C06D10D48008840F48040CC
:1022B0000B49088010E00A480088C0F30D00094966
:1022C0000C5407480088401C0549088008460088CF
:1022D000C72801DD0020088010BD0000001001406B
:1022E000140000202000002021B1828942F4005215
:1022F000828104E082894DF6FF731A408281704723
:1023000070B50246002400230025002040F66A161E
:10231000B14200D100BFC1F3421501F01F030126F5
:1023200006FA03F3012D02D19689334006E0022D0F
:1023300002D1168A334001E0968A33400C120126FE
:1023400006FA04F41688344013B10CB1012000E001
:10235000002070BDF0B503460024002600250020B3
:1023600040F66A17B94200D100BF1846C1F34214C3
:1023700001F01F06012707FA06F5012C01D10C30E8
:1023800004E0022C01D1103000E014301AB10768CB
:102390002F43076002E00768AF430760F0BD00000D
:1023A0002DE9FF4705460E460024A14600BFA04682
:1023B000B08900B100BF2C8A24F44054F088044353
:1023C0002C82AC8941F20C608443B0883189084387
:1023D000718908430443AC81AC8A24F44074B08909
:1023E0000443AC826846FFF78DFD2048854202D049
:1023F0001F48854202D1DDF80C9001E0DDF808901D
:10240000A88900F4004040B109EBC90000EB0910B5
:1024100031684900B0FBF1F707E009EBC90000EBB8
:10242000091031688900B0FBF1F76420B7FBF0F0C8
:1024300004012009642101FB1078A88900F4004000
:1024400040B1322000EBC800B0FBF1F000F0070013
:10245000044308E0322000EB08106421B0FBF1F0E7
:1024600000F00F0004432C81BDE8FF8700100140FD
:102470000014014001468888C0F30800704700BF7F
:10248000FEE7000010B588B0044601210846FFF7BA
:10249000F9FC01211020FFF725FD4FF4C0600690E4
:1024A00002208DF81C008DF81D0000208DF81E0004
:1024B00001208DF81F0006A91B48FEF796F8072299
:1024C00009211948FEF7D9F807220A211648FEF714
:1024D000D4F802940020ADF80C00ADF80E00ADF871
:1024E0001000ADF814000C20ADF8120002A90F483E
:1024F000FFF756FF01210D48FFF7F6FE25208DF866
:10250000040003208DF805008DF8060001208DF8E9
:10251000070001A8FFF76EFC012240F22551034895
:10252000FFF718FF08B010BD000002400010014086
:1025300000BF704770B504464FF4077094FBF0F08D
:10254000C6B24FF4077094FBF0F100FB114085B266
:1025500005E04FF4077000F02FF8701EC6B2002E91
:10256000F7D115B1284600F027F870BD0146114A91
:1025700012784A434FF0E0235A6100229A611A46CA
:10258000126942F001021A6100BF4FF0E0221069A7
:1025900000F001021AB100F48032002AF5D04FF0A9
:1025A000E022126922F001024FF0E0231A610022BA
:1025B0009A617047100000200146114A12884A4370
:1025C0004FF0E0235A6100229A611A46126942F0E4
:1025D00001021A6100BF4FF0E022106900F0010211
:1025E0001AB100F48032002AF5D04FF0E0221269CF
:1025F00022F001024FF0E0231A6100229A61704735
:102600001200002000BF054A128802F04002002A92
:10261000F9D0C2B2014B9A8070470000001001400F
:102620001CB54FF4A060FFF721FCA820FFF7FAFDCE
:102630004FF4E130FFF726FFFFF7B8FBFEF7DEF8B7
:1026400000BFFFF70EFD0028FBD14FF4784023496F
:1026500008804FF6FF702249088008460088FEF780
:1026600033F820A018211E234FF4DC72CDE90010AE
:1026700032218C20FFF73BFB1F20184908801EA049
:1026800018210B464FF4DC72CDE9001064211420B0
:10269000FFF72DFB20E01D48006808B9012000E08D
:1026A00000201A4908600F210020FFF7CDFC0446E6
:1026B0000B48008882234FF4F07264210090EC20D4
:1026C000FEF774F8182322466421EC20FFF7CAFABB
:1026D0004FF4FA70FFF72EFFDDE700001C0000202A
:1026E0001E00002052616E646F6D20657870657207
:1026F000696D656E7400000052616E646F6D204EEE
:10270000756D5B302D31355D3A000000A482424288
:102710004FF04070E1EE100A70470000000000002A
:10272000000000000000000000003F40000000002A
:1027300000000000300040003000400000000900B0
:102740000BC03D000BC03D00090018C024407FE0D5
:10275000224031800000180024C01B000D80324050
:10276000018003801C4027401C800740004010006F
:1027700060000000000000000000000000000000F9
:102780001F80204040200000402020401F8000008B
:102790000000090006001F80060009000000040078
:1027A00004003F80040004000000001000600000EE
:1027B0000000000000000400040004000400040005
:1027C00000000000004000000000000000000020A9
:1027D00001C006003800400000001F80204020405B
:1027E00020401F800000000010403FC0004000005B
:1027F000000018C0214022402440184000001080F2
:102800002040244024401B80000002000D001100E5
:102810003FC0014000003C802440244024402380ED
:1028200000001F802440244034400380000030001A
:10283000200027C03800200000001B8024402440D6
:1028400024401B8000001C0022C0224022401F8028
:102850000000000000000840000000000000000030
:1028600000000460000000000000000004000A00F6
:1028700011002080404009000900090009000900FA
:10288000000000004040208011000A0004001800F1
:10289000200023402400180000001F802040274013
:1028A00029401F400000004007C039000F0001C050
:1028B000004020403FC0244024401B8000001F8077
:1028C0002040204020403080000020403FC0204079
:1028D00020401F80000020403FC024402E4030C0D8
:1028E000000020403FC024402E00300000000F00B8
:1028F0001080204022403380020020403FC004006E
:1029000004003FC02040204020403FC020402040E5
:1029100000000060202020203FC020002000204038
:102920003FC024400B0030C0204020403FC020402A
:102930000040004000C03FC03C0003C03C003FC01E
:10294000000020403FC00C4023003FC020001F80FB
:102950002040204020401F80000020403FC02440F5
:102960002400180000001F802140214020E01FA00B
:10297000000020403FC02440260019C0004018C07D
:1029800024402440224031800000300020403FC0DD
:1029900020403000000020003F80004000403F8089
:1029A000200020003E0001C0070038002000380051
:1029B00007C03C0007C038000000204039C00600B6
:1029C00039C0204000002000384007C038402000B7
:1029D0000000304021C02640384020C000000000E8
:1029E00000007FE0402040200000000070000C004C
:1029F0000380004000000000402040207FE00000F5
:102A00000000000020004000200000000000001036
:102A10000010001000100010001000000000400026
:102A2000000000000000000002800540054003C0D7
:102A3000004020003FC0044004400380000000002C
:102A4000038004400440064000000000038004406E
:102A500024403FC000400000038005400540034083
:102A60000000000004401FC024402440200000005B
:102A700002E0055005500650042020403FC00440AD
:102A8000040003C000400000044027C000400000D4
:102A9000000000100010041027E00000000020409B
:102AA0003FC00140070004C00440204020403FC018
:102AB00000400040000007C0040007C0040003C03D
:102AC0000000044007C00440040003C000400000B0
:102AD00003800440044003800000041007F0045009
:102AE000044003800000000003800440045007F00D
:102AF0000010044007C00240040004000000000071
:102B000006400540054004C00000000004001F808E
:102B1000044000400000040007800040044007C05B
:102B200000400400070004C0018006000400060005
:102B300001C0070001C006000000044006C00100FB
:102B400006C0044000000410071004E001800600E5
:102B500004000000044005C00640044000000000DE
:102B6000000004007BE040200000000000000000A6
:102B7000FFF000000000000040207BE004000000A7
:102B800000004000800040002000200040000000C5
:102B90000000000000000000000000000000000035
:102BA000000000001FCC000C00000000000000002E
:102BB00008003000600008003000600000000220C3
:102BC00003FC1E20022003FC1E2002200000000047
:102BD0000E1811043FFF10840C78000000000F0055
:102BE00010840F3800C0077818840078000000783F
:102BF0000F8410C411240E9800E40084000808001B
:102C000068007000000000000000000000000000EC
:102C10000000000007E01818200440020000000037
:102C200040022004181807E00000000000000240E5
:102C3000024001800FF0018002400240000000804D
:102C4000008000800FF800800080008000000001FC
:102C5000000D000E00000000000000000000000059
:102C600000800080008000800080008000800000E4
:102C7000000C000C0000000000000000000000003C
:102C80000006001800600180060018002000000007
:102C900007F0080810041004080807F000000000FE
:102CA000080408041FFC00040004000000000000E9
:102CB0000E0C10141024104411840E0C000000009F
:102CC0000C1810041104110412880C70000000008C
:102CD00000E00320042408241FFC0024000000005E
:102CE0001F98108411041104108810700000000057
:102CF00007F0088811041104188800700000000013
:102D00001C00100010FC13001C001000000000004C
:102D10000E3811441084108411440E380000000055
:102D20000700088C10441044088807F000000000D9
:102D300000000000030C030C000000000000000075
:102D4000000000010106000000000000000000007B
:102D50000080014002200410080810040000022036
:102D60000220022002200220022002200000000097
:102D70001004080804100220014000800000000038
:102D80000E001200100C106C10800F00000003E009
:102D90000C1813E4142417C4082807D000000004FA
:102DA000003C03C41C40074000E4001C0004100465
:102DB0001FFC1104110411040E880070000003E0D0
:102DC0000C1810041004100410081C10000010044B
:102DD0001FFC100410041004080807F00000100481
:102DE0001FFC1104110417C410040818000010047B
:102DF0001FFC1104110017C010000800000003E0C0
:102E00000C181004100410441C780040000010043A
:102E10001FFC10840080008010841FFC1004000040
:102E2000100410041FFC1004100400000000000334
:102E30000001100110011FFE10001000000010041E
:102E40001FFC110403801464181C100400001004FB
:102E50001FFC1004000400040004000C0000100417
:102E60001FFC1F0000FC1F001FFC100400001004CA
:102E70001FFC0C04030000E010181FFC100007F0FA
:102E80000808100410041004080807F000001004DB
:102E90001FFC10841080108010800F00000007F0CD
:102EA000081810241024101C080A07F2000010044F
:102EB0001FFC1104110011C011300E0C00040000A1
:102EC0000E1C11041084108410441C3800001800DB
:102ED000100010041FFC1004100018000000100067
:102EE0001FF810040004000410041FF81000100064
:102EF0001E0011E0001C007013801C0010001FC099
:102F0000103C00E01F0000E0103C1FC00000100457
:102F1000180C163401C001C01634180C100410002F
:102F20001C00130400FC13041C0010000000080423
:102F3000101C1064108413041C04101800000000FE
:102F4000000000007FFE400240024002000000003E
:102F500030000C0003800060001C00030000000033
:102F60004002400240027FFE00000000000000001E
:102F70000000200040004000400020000000000150
:102F8000000100010001000100010001000100003A
:102F90004000400020000000000000000000000091
:102FA0000098012401440144014400FC0004100085
:102FB0001FFC00880104010400880070000000006C
:102FC0000070008801040104010400880000000072
:102FD000007000880104010411081FFC00040000B7
:102FE00000F8014401440144014400C8000000000D
:102FF000010401040FFC1104110411001800000069
:1030000000D601290129012901C901060000100487
:103010001FFC008401000100010400FC000400000A
:103020000104190419FC0004000400000000000061
:10303000000300010101190119FE00000000100445
:103040001FFC0024004001B4010C0104000000003A
:10305000100410041FFC0004000400000000010420
:1030600001FC0104010001FC0104010000FC010459
:1030700001FC008401000100010400FC00040000C8
:1030800000F8010401040104010400F8000001013A
:1030900001FF0085010401040088007000000000A9
:1030A0000070008801040104010501FF0001010412
:1030B000010401FC00840104010001800000000003
:1030C00000CC012401240124012401980000000007
:1030D0000100010007F801040104000000000100E4
:1030E00001F8000400040004010801FC00040100D0
:1030F00001800170000C001001600180010001F0EE
:10310000010C003001C00030010C01F00100000092
:103110000104018C00740170018C010400000101A4
:1031200001810171000E00180160018001000000A2
:103130000184010C013401440184010C00000000F1
:1031400000000000000001003EFC400240020000C0
:10315000000000000000FFFF000000000000000071
:10316000400240023EFC01000000000000000000A0
:10317000600080008000400040002000200000002F
:10318000000000000000000000000000000000003F
:10319000000000000000000000000000000000002F
:1031A000000000000000000000000000000000001F
:1031B000000F80380FFE380F80380000000000003C
:1031C00000000000000000000000000001000006F8
:1031D00000000C00003800003100000600000C0068
:1031E0000038000030000000000000000000618096
:1031F0000067F807F980006180006180006180004D
:1032000061800067F807F98000618000000000001D
:103210000000000001C0E003E0F0063008041808D8
:103220001FFFFE040E080787F00381E00000000086
:10323000000001F000060C00040408060C7001F9FF
:10324000C0000E00003BE000EC18070808040C1852
:103250000003E00000000001E00007F003F818049C
:103260001C0804170807E1D003C0E00023B0003CAD
:10327000080020080000100000000000000100000D
:103280003100003200001C000000000000000000BF
:10329000000000000000000000000000000000002E
:1032A00000000000000000000000000000007F009F
:1032B00001FFC00780F00C0018100004200002007D
:1032C00000000000002000021000040C001807801D
:1032D000F001FFC0007F00000000000000000000BF
:1032E0000000000000000000000042000066000036
:1032F0006600003C0000180003FFC0001800003CFE
:1033000000006600006600004200000000000800A7
:1033100000080000080000080000080001FFC000CD
:103320000800000800000800000800000800000075
:103330000000000100003100003200001C0000000D
:10334000000000000000000000000000000000007D
:10335000000000000000080000080000080000084D
:103360000000080000080000080000080000080035
:10337000000800000000000000000000000038000D
:1033800000380000380000000000000000000000CD
:103390000000000000000000000000000000000627
:1033A00000001C000070000180000E0000380000CA
:1033B000C0000700001C00003000000000000000FA
:1033C00000007F8001FFE003807006001804000801
:1033D00004000806001803807001FFE0007F8000F1
:1033E00000000000000000000100080100080100CA
:1033F0000803FFF807FFF8000008000008000008B5
:1034000000000000000000000001C03802C05804A5
:103410000098040118040218040418061C1803F884
:103420001801E0F800000000000000000001C0E00A
:1034300003C0F0040008040808040808061808037C
:10344000F41801E7F00001E00000000000000000B7
:1034500000000300000D0000110000610000810861
:1034600003010807FFF80FFFF8000108000108003A
:1034700000000000000000E007FCD006080806106D
:1034800008061008061008061838060FF00607C0D0
:10349000000000000000000000003F8001FFE0038A
:1034A00084300208180410080410080410080718D3
:1034B00010030FF00007C000000000000000000033
:1034C00003C0000700000600000600F80607F80623
:1034D000180006E0000700000600000000000000E1
:1034E0000001E1E003F7F00634100418080418089E
:1034F000040C08040C0806161803F3F001C1E000E0
:10350000000000000000F80003FC3003063804024D
:10351000080402080402080404100308F001FFC0B4
:10352000007F00000000000000000000000000001C
:103530000000000000007038007038007038000093
:10354000000000000000000000000000000000007B
:1035500000000000000000000000301A00301C00D5
:10356000000000000000000000000000000000005B
:1035700000000000000800001400002200004100CC
:1035800000808001004002002004001008000800B4
:1035900000000000000021000021000021000021A7
:1035A0000000210000210000210000210000210076
:1035B00000210000000000000000000008000804D6
:1035C0000010020020010040008080004100002225
:1035D0000000140000080000000000000003C0000C
:1035E00004C000040000080038080F380808380834
:1035F00010000C300007E00003C0000000000000D5
:1036000000003F8000FFE0038070020F100670880A
:1036100004C088048308047F8802C090030120004E
:10362000FE400000080000180001F8003E0801C23A
:103630000007020007E20000FE00001FC80001F8BA
:1036400000003800000804000807FFF807FFF8042E
:10365000080804080804080804080806180803F401
:103660001801E7F00001E0000000000000003F80CA
:1036700001FFE00380700200180400080400080441
:1036800000080400100600200780C00000000400AD
:103690000807FFF807FFF804000804000804000802
:1036A00004001802001003807001FFE0007F80001A
:1036B000000004000807FFF807FFF80408080408E2
:1036C00008040808040808043E0804000806001856
:1036D00001006000000004000807FFF807FFF8047D
:1036E0000808040800040800040800043E0006005E
:1036F00000060000018000000000000000003F8084
:1037000001FFE003807006001804000804020804AA
:1037100002080203F00783F0000200000200040028
:103720000807FFF807FFF804080800080000080071
:1037300000080000080004080807FFF807FFF80465
:103740000008000000000000040008040008040055
:103750000807FFF807FFF804000804000804000841
:10376000000000000000000000000006000007004C
:10377000000104000104000104000307FFFE07FF2D
:10378000FC04000004000004000004000807FFF827
:1037900007FFF8040C08001800003E0004C780056D
:1037A00003C80600F80400380400180000080400EC
:1037B0000807FFF807FFF8040008000008000008E9
:1037C0000000080000080000080000180000600069
:1037D000000004000807FFF807800807FC00007FCE
:1037E000C00003F80007C000780007800807FFF852
:1037F00007FFF804000804000807FFF807000803A3
:10380000C00000E000003800001E000007000001BA
:10381000C00400F007FFF8040000000000007F80F3
:1038200001FFE00380700600180400080400080689
:10383000001803003001FFE0007F8000000004005A
:103840000807FFF807FFF804040804040004040054
:10385000040400040400060C0003F80001F000005A
:103860000000000000007F8001FFE0038070060080
:10387000880400880400C806003C03003E01FFE6FF
:10388000007F8400000004000807FFF807FFF80429
:103890000808040800040C00040F00040BC0061004
:1038A000F003F03801E00800000800000001E0F833
:1038B00003F030063010041808041808040C08043B
:1038C0000C080206180207F00781E00000000180E2
:1038D0000006000004000004000004000807FFF8D0
:1038E00007FFF804000804000004000006000001BF
:1038F000800004000007FFE007FFF004001800004C
:10390000080000080000080000080000080400107B
:1039100007FFE004000004000006000007E00007C5
:10392000FE00041FE00001F80000380001E0043E42
:103930000007C00006000004000004000007E000CB
:1039400007FFC0041FF80007C007F80007FF800446
:103950003FF80007C004F800070000040000000062
:103960000004000806001807C07805F1C8003E00F2
:10397000001F800463E80780F806001804000800B0
:10398000000004000006000007800007E008047C37
:1039900008001FF80007F800180804E008070000F6
:1039A00006000004000000000001000806003804C2
:1039B00000F80403E8040F08047C0805F00807C0B9
:1039C000080700180400600000000000000000006C
:1039D0000000000000000000003FFFFE2000022069
:1039E000000220000220000220000200000000006F
:1039F0000000000008000007000000C000003800C0
:103A00000006000001C000003000000E00000100B0
:103A10000000000000000000200002200002200042
:103A2000022000022000023FFFFE00000000000014
:103A3000000000000000000000000000000000087E
:103A400000001000003000002000003000001000D6
:103A5000000800000000000000000000010000015C
:103A60000000010000010000010000010000010051
:103A70000001000001000001000001000001000041
:103A800000000000000000200000200000100000E6
:103A90001000000000000000000000000000000016
:103AA00000000000000000F00019F8001B180022C0
:103AB00008002608002408002410003FF8001FF822
:103AC00000000800001800000004000007FFF80FC5
:103AD000FFF000181800100800200800200800302F
:103AE00018001FF0000FC00000000000000007C019
:103AF000001FF000183000200800200800200800F7
:103B00003C08001C100000600000000000000000E5
:103B1000000007C0001FF00038180020080020082F
:103B200000200804101007FFF80FFFF0000010003D
:103B300000000000000000000007C0001FF000129D
:103B400030002218002208002208003208001E104F
:103B5000000E2000000000000000200000200800EF
:103B6000200801FFF803FFF80620080420080420BD
:103B70000807200003000000000000000000000E05
:103B8000000E6E001FF30031B10020B10020B10023
:103B90003191001F13002E1E00200E003000000087
:103BA0000004000807FFF80FFFF8001008002000CD
:103BB000002000002008003FF8001FF80000080067
:103BC0000000000000000000002008002008002085
:103BD00008063FF8063FF80000080000080000084B
:103BE00000000000000000000000000000000300D2
:103BF0000003002001002001002003063FFE063FD5
:103C0000FC000000000000000000000000040008AC
:103C100007FFF80FFFF8000188000300002FC00025
:103C200038F80020380020080000080000000000DC
:103C30000000000004000804000804000807FFF862
:103C40000FFFF80000080000080000080000000056
:103C50000000002008003FF8003FF8001008002096
:103C600000003FF8003FF8001008002000003FF877
:103C7000003FF8000008000000002008003FF800A6
:103C80003FF8001008001000002000002008003F4E
:103C9000F8001FF80000080000000000000007C046
:103CA000000FF00018300030080020080020080045
:103CB0003008001830000FF00007C00000000000BE
:103CC00000002001003FFF003FFF0010110020090D
:103CD000002008002008003038001FF0000FC0004E
:103CE00000000000000007C0001FF000381800208E
:103CF00008002008002009001011001FFF003FFFEE
:103D0000000001000000002008002008002008003A
:103D10003FF8003FF80008080010080020080020C5
:103D20000000300000300000000000000000000033
:103D3000000C78001E18003308002308002108003A
:103D400021880021980030F0003860000000000059
:103D50000000200000200000200000FFF003FFF81A
:103D600000200800200800200800003000000000AB
:103D70000000000000002000003FF0007FF800007D
:103D800018000008000008002010003FF8007FF035
:103D900000001000000000000000200000300000C3
:103DA0003C00003F800023F00000780000700023FA
:103DB00080003C00003000002000002000003C009B
:103DC000003FE00023F80000E0002700003E000074
:103DD0003FE00021F80001E0003E0000200000006C
:103DE00000002008002008003838003E68002780C6
:103DF0000003C8002CF80038380020180020080004
:103E00000000000000002000003003003C01003FE3
:103E1000830023EC000070002380003C00002000A1
:103E20000020000000000000000000000038080032
:103E300020380020F80023E8002F88003E080038D2
:103E400008002018000070000000000000000000C2
:103E50000000000000000000000008000014001F27
:103E6000F7FC300006200002000000000000000007
:103E70000000000000000000000000000000000042
:103E8000FFFFFF0000000000000000000000000035
:103E900000000000000000002000023000061FF7B4
:103EA000FC001400000800000000000000000000FA
:103EB000000000000000000000180000600000404A
:103EC0000000400000200000100000080000040076
:103ED000000400000C000010000030313233343593
:103EE0003637383941424344454640305800303136
:103EF0003233343536373839616263646566403051
:103F000078000000243F000800000020200000008E
:103F1000C4010008443F00082000002038070000CA
:103F2000E001000800000000010203040102030494
:103F30000607080900000000000000000000000063
:043F40000000FFFF7F
:040000050800018965
:00000001FF
